{
  "_format": "hh-sol-artifact-1",
  "contractName": "CondominiumAdapter",
  "sourceName": "contracts/CondominiumAdapter.sol",
  "abi": [
    {
      "inputs": [],
      "stateMutability": "nonpayable",
      "type": "constructor"
    },
    {
      "anonymous": false,
      "inputs": [
        {
          "indexed": false,
          "internalType": "address",
          "name": "manager",
          "type": "address"
        }
      ],
      "name": "ManagerChanged",
      "type": "event"
    },
    {
      "anonymous": false,
      "inputs": [
        {
          "indexed": false,
          "internalType": "uint256",
          "name": "amount",
          "type": "uint256"
        }
      ],
      "name": "QuotaChanged",
      "type": "event"
    },
    {
      "anonymous": false,
      "inputs": [
        {
          "indexed": true,
          "internalType": "bytes32",
          "name": "topicId",
          "type": "bytes32"
        },
        {
          "indexed": false,
          "internalType": "string",
          "name": "title",
          "type": "string"
        },
        {
          "indexed": true,
          "internalType": "enum CondominiumLib.Status",
          "name": "status",
          "type": "uint8"
        }
      ],
      "name": "TopicChanged",
      "type": "event"
    },
    {
      "anonymous": false,
      "inputs": [
        {
          "indexed": false,
          "internalType": "address",
          "name": "to",
          "type": "address"
        },
        {
          "indexed": true,
          "internalType": "uint256",
          "name": "amount",
          "type": "uint256"
        },
        {
          "indexed": false,
          "internalType": "string",
          "name": "topic",
          "type": "string"
        }
      ],
      "name": "Transfer",
      "type": "event"
    },
    {
      "inputs": [
        {
          "internalType": "address",
          "name": "resident",
          "type": "address"
        },
        {
          "internalType": "uint16",
          "name": "residenceId",
          "type": "uint16"
        }
      ],
      "name": "addResident",
      "outputs": [],
      "stateMutability": "nonpayable",
      "type": "function"
    },
    {
      "inputs": [
        {
          "internalType": "string",
          "name": "title",
          "type": "string"
        },
        {
          "internalType": "string",
          "name": "description",
          "type": "string"
        },
        {
          "internalType": "enum CondominiumLib.Category",
          "name": "category",
          "type": "uint8"
        },
        {
          "internalType": "uint256",
          "name": "amount",
          "type": "uint256"
        },
        {
          "internalType": "address",
          "name": "responsible",
          "type": "address"
        }
      ],
      "name": "addTopic",
      "outputs": [],
      "stateMutability": "nonpayable",
      "type": "function"
    },
    {
      "inputs": [
        {
          "internalType": "string",
          "name": "title",
          "type": "string"
        }
      ],
      "name": "closeVoting",
      "outputs": [],
      "stateMutability": "nonpayable",
      "type": "function"
    },
    {
      "inputs": [
        {
          "internalType": "string",
          "name": "topicToEdit",
          "type": "string"
        },
        {
          "internalType": "string",
          "name": "description",
          "type": "string"
        },
        {
          "internalType": "uint256",
          "name": "amount",
          "type": "uint256"
        },
        {
          "internalType": "address",
          "name": "responsible",
          "type": "address"
        }
      ],
      "name": "editTopic",
      "outputs": [],
      "stateMutability": "nonpayable",
      "type": "function"
    },
    {
      "inputs": [],
      "name": "getImplAddress",
      "outputs": [
        {
          "internalType": "address",
          "name": "",
          "type": "address"
        }
      ],
      "stateMutability": "view",
      "type": "function"
    },
    {
      "inputs": [],
      "name": "getManager",
      "outputs": [
        {
          "internalType": "address",
          "name": "",
          "type": "address"
        }
      ],
      "stateMutability": "view",
      "type": "function"
    },
    {
      "inputs": [],
      "name": "getQuota",
      "outputs": [
        {
          "internalType": "uint256",
          "name": "",
          "type": "uint256"
        }
      ],
      "stateMutability": "view",
      "type": "function"
    },
    {
      "inputs": [
        {
          "internalType": "string",
          "name": "title",
          "type": "string"
        }
      ],
      "name": "openVoting",
      "outputs": [],
      "stateMutability": "nonpayable",
      "type": "function"
    },
    {
      "inputs": [],
      "name": "owner",
      "outputs": [
        {
          "internalType": "address",
          "name": "",
          "type": "address"
        }
      ],
      "stateMutability": "view",
      "type": "function"
    },
    {
      "inputs": [
        {
          "internalType": "uint16",
          "name": "residenceId",
          "type": "uint16"
        }
      ],
      "name": "payQuota",
      "outputs": [],
      "stateMutability": "payable",
      "type": "function"
    },
    {
      "inputs": [
        {
          "internalType": "address",
          "name": "resident",
          "type": "address"
        }
      ],
      "name": "removeResident",
      "outputs": [],
      "stateMutability": "nonpayable",
      "type": "function"
    },
    {
      "inputs": [
        {
          "internalType": "string",
          "name": "title",
          "type": "string"
        }
      ],
      "name": "removeTopic",
      "outputs": [],
      "stateMutability": "nonpayable",
      "type": "function"
    },
    {
      "inputs": [
        {
          "internalType": "address",
          "name": "resident",
          "type": "address"
        },
        {
          "internalType": "bool",
          "name": "isEntering",
          "type": "bool"
        }
      ],
      "name": "setCounselor",
      "outputs": [],
      "stateMutability": "nonpayable",
      "type": "function"
    },
    {
      "inputs": [
        {
          "internalType": "string",
          "name": "topicTitle",
          "type": "string"
        },
        {
          "internalType": "uint256",
          "name": "amount",
          "type": "uint256"
        }
      ],
      "name": "transfer",
      "outputs": [],
      "stateMutability": "nonpayable",
      "type": "function"
    },
    {
      "inputs": [
        {
          "internalType": "address",
          "name": "newImplementation",
          "type": "address"
        }
      ],
      "name": "upgrade",
      "outputs": [],
      "stateMutability": "nonpayable",
      "type": "function"
    },
    {
      "inputs": [
        {
          "internalType": "string",
          "name": "title",
          "type": "string"
        },
        {
          "internalType": "enum CondominiumLib.Options",
          "name": "option",
          "type": "uint8"
        }
      ],
      "name": "vote",
      "outputs": [],
      "stateMutability": "nonpayable",
      "type": "function"
    }
  ],
  "bytecode": "0x60a0604052348015600f57600080fd5b503373ffffffffffffffffffffffffffffffffffffffff1660808173ffffffffffffffffffffffffffffffffffffffff1681525050608051612561610066600039600081816103850152610adb01526125616000f3fe6080604052600436106100f35760003560e01c80638fc5dad81161008a578063b158354611610059578063b1583546146102ea578063c12e806314610313578063d50095841461032f578063eaf5d9dc1461035a576100f3565b80638fc5dad81461024657806390ca27f31461026f57806396fa1def146102985780639e1bf985146102c1576100f3565b8063597de987116100c6578063597de9871461019e5780637311ad81146101c75780637b57ee49146101f25780638da5cb5b1461021b576100f3565b80630900f010146100f857806312cb70c7146101215780631df8ba771461014a57806343b8c6b114610175575b600080fd5b34801561010457600080fd5b5061011f600480360381019061011a91906117eb565b610383565b005b34801561012d57600080fd5b5061014860048036038101906101439190611994565b6104c3565b005b34801561015657600080fd5b5061015f610645565b60405161016c91906119ff565b60405180910390f35b34801561018157600080fd5b5061019c60048036038101906101979190611a3f565b610769565b005b3480156101aa57600080fd5b506101c560048036038101906101c091906117eb565b610892565b005b3480156101d357600080fd5b506101dc610920565b6040516101e99190611b01565b60405180910390f35b3480156101fe57600080fd5b5061021960048036038101906102149190611b1c565b610949565b005b34801561022757600080fd5b50610230610ad9565b60405161023d9190611b01565b60405180910390f35b34801561025257600080fd5b5061026d60048036038101906102689190611b1c565b610afd565b005b34801561027b57600080fd5b5061029660048036038101906102919190611b8a565b610eae565b005b3480156102a457600080fd5b506102bf60048036038101906102ba9190611c1e565b610fce565b005b3480156102cd57600080fd5b506102e860048036038101906102e39190611b1c565b6110ee565b005b3480156102f657600080fd5b50610311600480360381019061030c9190611c98565b61127e565b005b61032d60048036038101906103289190611cd8565b61139e565b005b34801561033b57600080fd5b506103446114bc565b6040516103519190611b01565b60405180910390f35b34801561036657600080fd5b50610381600480360381019061037c9190611d05565b6115e0565b005b7f000000000000000000000000000000000000000000000000000000000000000073ffffffffffffffffffffffffffffffffffffffff163373ffffffffffffffffffffffffffffffffffffffff1614610411576040517f08c379a000000000000000000000000000000000000000000000000000000000815260040161040890611e01565b60405180910390fd5b600073ffffffffffffffffffffffffffffffffffffffff168173ffffffffffffffffffffffffffffffffffffffff1603610480576040517f08c379a000000000000000000000000000000000000000000000000000000000815260040161047790611e6d565b60405180910390fd5b806000806101000a81548173ffffffffffffffffffffffffffffffffffffffff021916908373ffffffffffffffffffffffffffffffffffffffff16021790555050565b600073ffffffffffffffffffffffffffffffffffffffff1660008054906101000a900473ffffffffffffffffffffffffffffffffffffffff1673ffffffffffffffffffffffffffffffffffffffff1603610552576040517f08c379a000000000000000000000000000000000000000000000000000000000815260040161054990611ed9565b60405180910390fd5b60008060009054906101000a900473ffffffffffffffffffffffffffffffffffffffff1673ffffffffffffffffffffffffffffffffffffffff166312cb70c784846040518363ffffffff1660e01b81526004016105b0929190611f67565b6000604051808303816000875af11580156105cf573d6000803e3d6000fd5b505050506040513d6000823e3d601f19601f820116820180604052508101906105f891906120bb565b905080602001517feb10b79f28ae0b520cb7ee8e40115f547bfac852d7167a55d9ae8e028ee23a1182600001518360400151604051610638929190612104565b60405180910390a2505050565b60008073ffffffffffffffffffffffffffffffffffffffff1660008054906101000a900473ffffffffffffffffffffffffffffffffffffffff1673ffffffffffffffffffffffffffffffffffffffff16036106d5576040517f08c379a00000000000000000000000000000000000000000000000000000000081526004016106cc90611ed9565b60405180910390fd5b60008054906101000a900473ffffffffffffffffffffffffffffffffffffffff1673ffffffffffffffffffffffffffffffffffffffff16631df8ba776040518163ffffffff1660e01b8152600401602060405180830381865afa158015610740573d6000803e3d6000fd5b505050506040513d601f19601f820116820180604052508101906107649190612134565b905090565b600073ffffffffffffffffffffffffffffffffffffffff1660008054906101000a900473ffffffffffffffffffffffffffffffffffffffff1673ffffffffffffffffffffffffffffffffffffffff16036107f8576040517f08c379a00000000000000000000000000000000000000000000000000000000081526004016107ef90611ed9565b60405180910390fd5b60008054906101000a900473ffffffffffffffffffffffffffffffffffffffff1673ffffffffffffffffffffffffffffffffffffffff166343b8c6b186868686866040518663ffffffff1660e01b81526004016108599594939291906121d8565b600060405180830381600087803b15801561087357600080fd5b505af1158015610887573d6000803e3d6000fd5b505050505050505050565b60008054906101000a900473ffffffffffffffffffffffffffffffffffffffff1673ffffffffffffffffffffffffffffffffffffffff1663597de987826040518263ffffffff1660e01b81526004016108eb9190611b01565b600060405180830381600087803b15801561090557600080fd5b505af1158015610919573d6000803e3d6000fd5b5050505050565b60008060009054906101000a900473ffffffffffffffffffffffffffffffffffffffff16905090565b600073ffffffffffffffffffffffffffffffffffffffff1660008054906101000a900473ffffffffffffffffffffffffffffffffffffffff1673ffffffffffffffffffffffffffffffffffffffff16036109d8576040517f08c379a00000000000000000000000000000000000000000000000000000000081526004016109cf90611ed9565b60405180910390fd5b60008060009054906101000a900473ffffffffffffffffffffffffffffffffffffffff1673ffffffffffffffffffffffffffffffffffffffff16637b57ee49836040518263ffffffff1660e01b8152600401610a349190612239565b6000604051808303816000875af1158015610a53573d6000803e3d6000fd5b505050506040513d6000823e3d601f19601f82011682018060405250810190610a7c919061235f565b905080604001516005811115610a9557610a94612161565b5b81600001517fefe93f21a3369f1228a2589883bc377a76d7335daddc712853688de4617f82ab8360200151604051610acd9190612239565b60405180910390a35050565b7f000000000000000000000000000000000000000000000000000000000000000081565b600073ffffffffffffffffffffffffffffffffffffffff1660008054906101000a900473ffffffffffffffffffffffffffffffffffffffff1673ffffffffffffffffffffffffffffffffffffffff1603610b8c576040517f08c379a0000000000000000000000000000000000000000000000000000000008152600401610b8390611ed9565b60405180910390fd5b60008060009054906101000a900473ffffffffffffffffffffffffffffffffffffffff1673ffffffffffffffffffffffffffffffffffffffff16638fc5dad8836040518263ffffffff1660e01b8152600401610be89190612239565b6000604051808303816000875af1158015610c07573d6000803e3d6000fd5b505050506040513d6000823e3d601f19601f82011682018060405250810190610c30919061235f565b905080604001516005811115610c4957610c48612161565b5b81600001517fefe93f21a3369f1228a2589883bc377a76d7335daddc712853688de4617f82ab8360200151604051610c819190612239565b60405180910390a360026005811115610c9d57610c9c612161565b5b81604001516005811115610cb457610cb3612161565b5b03610eaa57600380811115610ccc57610ccb612161565b5b81606001516003811115610ce357610ce2612161565b5b03610db2577f198db6e425fb8aafd1823c6ca50be2d51e5764571a5ae0f0f21c6812e45def0b60008054906101000a900473ffffffffffffffffffffffffffffffffffffffff1673ffffffffffffffffffffffffffffffffffffffff1663d50095846040518163ffffffff1660e01b8152600401602060405180830381865afa158015610d74573d6000803e3d6000fd5b505050506040513d601f19601f82011682018060405250810190610d9891906123a8565b604051610da59190611b01565b60405180910390a1610ea9565b60026003811115610dc657610dc5612161565b5b81606001516003811115610ddd57610ddc612161565b5b03610ea8577f274a3b0d5142ec9fc4e77bd3ffc173b4e7c6c64eca73b31a6c6906b184257e7e60008054906101000a900473ffffffffffffffffffffffffffffffffffffffff1673ffffffffffffffffffffffffffffffffffffffff16631df8ba776040518163ffffffff1660e01b8152600401602060405180830381865afa158015610e6e573d6000803e3d6000fd5b505050506040513d601f19601f82011682018060405250810190610e929190612134565b604051610e9f91906119ff565b60405180910390a15b5b5b5050565b600073ffffffffffffffffffffffffffffffffffffffff1660008054906101000a900473ffffffffffffffffffffffffffffffffffffffff1673ffffffffffffffffffffffffffffffffffffffff1603610f3d576040517f08c379a0000000000000000000000000000000000000000000000000000000008152600401610f3490611ed9565b60405180910390fd5b60008054906101000a900473ffffffffffffffffffffffffffffffffffffffff1673ffffffffffffffffffffffffffffffffffffffff166390ca27f383836040518363ffffffff1660e01b8152600401610f9892919061241d565b600060405180830381600087803b158015610fb257600080fd5b505af1158015610fc6573d6000803e3d6000fd5b505050505050565b600073ffffffffffffffffffffffffffffffffffffffff1660008054906101000a900473ffffffffffffffffffffffffffffffffffffffff1673ffffffffffffffffffffffffffffffffffffffff160361105d576040517f08c379a000000000000000000000000000000000000000000000000000000000815260040161105490611ed9565b60405180910390fd5b60008054906101000a900473ffffffffffffffffffffffffffffffffffffffff1673ffffffffffffffffffffffffffffffffffffffff166396fa1def83836040518363ffffffff1660e01b81526004016110b892919061245c565b600060405180830381600087803b1580156110d257600080fd5b505af11580156110e6573d6000803e3d6000fd5b505050505050565b600073ffffffffffffffffffffffffffffffffffffffff1660008054906101000a900473ffffffffffffffffffffffffffffffffffffffff1673ffffffffffffffffffffffffffffffffffffffff160361117d576040517f08c379a000000000000000000000000000000000000000000000000000000000815260040161117490611ed9565b60405180910390fd5b60008060009054906101000a900473ffffffffffffffffffffffffffffffffffffffff1673ffffffffffffffffffffffffffffffffffffffff16639e1bf985836040518263ffffffff1660e01b81526004016111d99190612239565b6000604051808303816000875af11580156111f8573d6000803e3d6000fd5b505050506040513d6000823e3d601f19601f82011682018060405250810190611221919061235f565b90508060400151600581111561123a57611239612161565b5b81600001517fefe93f21a3369f1228a2589883bc377a76d7335daddc712853688de4617f82ab83602001516040516112729190612239565b60405180910390a35050565b600073ffffffffffffffffffffffffffffffffffffffff1660008054906101000a900473ffffffffffffffffffffffffffffffffffffffff1673ffffffffffffffffffffffffffffffffffffffff160361130d576040517f08c379a000000000000000000000000000000000000000000000000000000000815260040161130490611ed9565b60405180910390fd5b60008054906101000a900473ffffffffffffffffffffffffffffffffffffffff1673ffffffffffffffffffffffffffffffffffffffff1663b158354683836040518363ffffffff1660e01b8152600401611368929190612494565b600060405180830381600087803b15801561138257600080fd5b505af1158015611396573d6000803e3d6000fd5b505050505050565b600073ffffffffffffffffffffffffffffffffffffffff1660008054906101000a900473ffffffffffffffffffffffffffffffffffffffff1673ffffffffffffffffffffffffffffffffffffffff160361142d576040517f08c379a000000000000000000000000000000000000000000000000000000000815260040161142490611ed9565b60405180910390fd5b60008054906101000a900473ffffffffffffffffffffffffffffffffffffffff1673ffffffffffffffffffffffffffffffffffffffff1663c12e806334836040518363ffffffff1660e01b815260040161148791906124bd565b6000604051808303818588803b1580156114a057600080fd5b505af11580156114b4573d6000803e3d6000fd5b505050505050565b60008073ffffffffffffffffffffffffffffffffffffffff1660008054906101000a900473ffffffffffffffffffffffffffffffffffffffff1673ffffffffffffffffffffffffffffffffffffffff160361154c576040517f08c379a000000000000000000000000000000000000000000000000000000000815260040161154390611ed9565b60405180910390fd5b60008054906101000a900473ffffffffffffffffffffffffffffffffffffffff1673ffffffffffffffffffffffffffffffffffffffff1663d50095846040518163ffffffff1660e01b8152600401602060405180830381865afa1580156115b7573d6000803e3d6000fd5b505050506040513d601f19601f820116820180604052508101906115db91906123a8565b905090565b600073ffffffffffffffffffffffffffffffffffffffff1660008054906101000a900473ffffffffffffffffffffffffffffffffffffffff1673ffffffffffffffffffffffffffffffffffffffff160361166f576040517f08c379a000000000000000000000000000000000000000000000000000000000815260040161166690611ed9565b60405180910390fd5b60008060009054906101000a900473ffffffffffffffffffffffffffffffffffffffff1673ffffffffffffffffffffffffffffffffffffffff1663eaf5d9dc868686866040518563ffffffff1660e01b81526004016116d194939291906124d8565b6000604051808303816000875af11580156116f0573d6000803e3d6000fd5b505050506040513d6000823e3d601f19601f82011682018060405250810190611719919061235f565b90508060400151600581111561173257611731612161565b5b81600001517fefe93f21a3369f1228a2589883bc377a76d7335daddc712853688de4617f82ab836020015160405161176a9190612239565b60405180910390a35050505050565b6000604051905090565b600080fd5b600080fd5b600073ffffffffffffffffffffffffffffffffffffffff82169050919050565b60006117b88261178d565b9050919050565b6117c8816117ad565b81146117d357600080fd5b50565b6000813590506117e5816117bf565b92915050565b60006020828403121561180157611800611783565b5b600061180f848285016117d6565b91505092915050565b600080fd5b600080fd5b6000601f19601f8301169050919050565b7f4e487b7100000000000000000000000000000000000000000000000000000000600052604160045260246000fd5b61186b82611822565b810181811067ffffffffffffffff8211171561188a57611889611833565b5b80604052505050565b600061189d611779565b90506118a98282611862565b919050565b600067ffffffffffffffff8211156118c9576118c8611833565b5b6118d282611822565b9050602081019050919050565b82818337600083830152505050565b60006119016118fc846118ae565b611893565b90508281526020810184848401111561191d5761191c61181d565b5b6119288482856118df565b509392505050565b600082601f83011261194557611944611818565b5b81356119558482602086016118ee565b91505092915050565b6000819050919050565b6119718161195e565b811461197c57600080fd5b50565b60008135905061198e81611968565b92915050565b600080604083850312156119ab576119aa611783565b5b600083013567ffffffffffffffff8111156119c9576119c8611788565b5b6119d585828601611930565b92505060206119e68582860161197f565b9150509250929050565b6119f98161195e565b82525050565b6000602082019050611a1460008301846119f0565b92915050565b60048110611a2757600080fd5b50565b600081359050611a3981611a1a565b92915050565b600080600080600060a08688031215611a5b57611a5a611783565b5b600086013567ffffffffffffffff811115611a7957611a78611788565b5b611a8588828901611930565b955050602086013567ffffffffffffffff811115611aa657611aa5611788565b5b611ab288828901611930565b9450506040611ac388828901611a2a565b9350506060611ad48882890161197f565b9250506080611ae5888289016117d6565b9150509295509295909350565b611afb816117ad565b82525050565b6000602082019050611b166000830184611af2565b92915050565b600060208284031215611b3257611b31611783565b5b600082013567ffffffffffffffff811115611b5057611b4f611788565b5b611b5c84828501611930565b91505092915050565b60048110611b7257600080fd5b50565b600081359050611b8481611b65565b92915050565b60008060408385031215611ba157611ba0611783565b5b600083013567ffffffffffffffff811115611bbf57611bbe611788565b5b611bcb85828601611930565b9250506020611bdc85828601611b75565b9150509250929050565b60008115159050919050565b611bfb81611be6565b8114611c0657600080fd5b50565b600081359050611c1881611bf2565b92915050565b60008060408385031215611c3557611c34611783565b5b6000611c43858286016117d6565b9250506020611c5485828601611c09565b9150509250929050565b600061ffff82169050919050565b611c7581611c5e565b8114611c8057600080fd5b50565b600081359050611c9281611c6c565b92915050565b60008060408385031215611caf57611cae611783565b5b6000611cbd858286016117d6565b9250506020611cce85828601611c83565b9150509250929050565b600060208284031215611cee57611ced611783565b5b6000611cfc84828501611c83565b91505092915050565b60008060008060808587031215611d1f57611d1e611783565b5b600085013567ffffffffffffffff811115611d3d57611d3c611788565b5b611d4987828801611930565b945050602085013567ffffffffffffffff811115611d6a57611d69611788565b5b611d7687828801611930565b9350506040611d878782880161197f565b9250506060611d98878288016117d6565b91505092959194509250565b600082825260208201905092915050565b7f596f7520646f206e6f742068617665207065726d697373696f6e000000000000600082015250565b6000611deb601a83611da4565b9150611df682611db5565b602082019050919050565b60006020820190508181036000830152611e1a81611dde565b9050919050565b7f496e76616c696420616464726573730000000000000000000000000000000000600082015250565b6000611e57600f83611da4565b9150611e6282611e21565b602082019050919050565b60006020820190508181036000830152611e8681611e4a565b9050919050565b7f596f75206d757374207570677261646520666972737400000000000000000000600082015250565b6000611ec3601683611da4565b9150611ece82611e8d565b602082019050919050565b60006020820190508181036000830152611ef281611eb6565b9050919050565b600081519050919050565b60005b83811015611f22578082015181840152602081019050611f07565b60008484015250505050565b6000611f3982611ef9565b611f438185611da4565b9350611f53818560208601611f04565b611f5c81611822565b840191505092915050565b60006040820190508181036000830152611f818185611f2e565b9050611f9060208301846119f0565b9392505050565b600080fd5b600080fd5b600081519050611fb0816117bf565b92915050565b600081519050611fc581611968565b92915050565b6000611fde611fd9846118ae565b611893565b905082815260208101848484011115611ffa57611ff961181d565b5b612005848285611f04565b509392505050565b600082601f83011261202257612021611818565b5b8151612032848260208601611fcb565b91505092915050565b60006060828403121561205157612050611f97565b5b61205b6060611893565b9050600061206b84828501611fa1565b600083015250602061207f84828501611fb6565b602083015250604082015167ffffffffffffffff8111156120a3576120a2611f9c565b5b6120af8482850161200d565b60408301525092915050565b6000602082840312156120d1576120d0611783565b5b600082015167ffffffffffffffff8111156120ef576120ee611788565b5b6120fb8482850161203b565b91505092915050565b60006040820190506121196000830185611af2565b818103602083015261212b8184611f2e565b90509392505050565b60006020828403121561214a57612149611783565b5b600061215884828501611fb6565b91505092915050565b7f4e487b7100000000000000000000000000000000000000000000000000000000600052602160045260246000fd5b600481106121a1576121a0612161565b5b50565b60008190506121b282612190565b919050565b60006121c2826121a4565b9050919050565b6121d2816121b7565b82525050565b600060a08201905081810360008301526121f28188611f2e565b905081810360208301526122068187611f2e565b905061221560408301866121c9565b61222260608301856119f0565b61222f6080830184611af2565b9695505050505050565b600060208201905081810360008301526122538184611f2e565b905092915050565b6000819050919050565b61226e8161225b565b811461227957600080fd5b50565b60008151905061228b81612265565b92915050565b6006811061229e57600080fd5b50565b6000815190506122b081612291565b92915050565b6000815190506122c581611a1a565b92915050565b6000608082840312156122e1576122e0611f97565b5b6122eb6080611893565b905060006122fb8482850161227c565b600083015250602082015167ffffffffffffffff81111561231f5761231e611f9c565b5b61232b8482850161200d565b602083015250604061233f848285016122a1565b6040830152506060612353848285016122b6565b60608301525092915050565b60006020828403121561237557612374611783565b5b600082015167ffffffffffffffff81111561239357612392611788565b5b61239f848285016122cb565b91505092915050565b6000602082840312156123be576123bd611783565b5b60006123cc84828501611fa1565b91505092915050565b600481106123e6576123e5612161565b5b50565b60008190506123f7826123d5565b919050565b6000612407826123e9565b9050919050565b612417816123fc565b82525050565b600060408201905081810360008301526124378185611f2e565b9050612446602083018461240e565b9392505050565b61245681611be6565b82525050565b60006040820190506124716000830185611af2565b61247e602083018461244d565b9392505050565b61248e81611c5e565b82525050565b60006040820190506124a96000830185611af2565b6124b66020830184612485565b9392505050565b60006020820190506124d26000830184612485565b92915050565b600060808201905081810360008301526124f28187611f2e565b905081810360208301526125068186611f2e565b905061251560408301856119f0565b6125226060830184611af2565b9594505050505056fea26469706673582212202f76d752ef3d0872691484326fedb210a226285d7468f6f76faf5137b1e5fb1464736f6c634300081c0033",
  "linkReferences": {},
  "deployedLinkReferences": {}
}