{
  "_format": "hh-sol-artifact-1",
  "contractName": "Condominium",
  "sourceName": "contracts/Condominium.sol",
  "abi": [
    {
      "inputs": [],
      "stateMutability": "nonpayable",
      "type": "constructor"
    },
    {
      "inputs": [
        {
          "internalType": "address",
          "name": "resident",
          "type": "address"
        },
        {
          "internalType": "uint16",
          "name": "residenceId",
          "type": "uint16"
        }
      ],
      "name": "addResident",
      "outputs": [],
      "stateMutability": "nonpayable",
      "type": "function"
    },
    {
      "inputs": [
        {
          "internalType": "string",
          "name": "title",
          "type": "string"
        },
        {
          "internalType": "string",
          "name": "description",
          "type": "string"
        },
        {
          "internalType": "enum CondominiumLib.Category",
          "name": "category",
          "type": "uint8"
        },
        {
          "internalType": "uint256",
          "name": "amount",
          "type": "uint256"
        },
        {
          "internalType": "address",
          "name": "responsible",
          "type": "address"
        }
      ],
      "name": "addTopic",
      "outputs": [],
      "stateMutability": "nonpayable",
      "type": "function"
    },
    {
      "inputs": [
        {
          "internalType": "string",
          "name": "title",
          "type": "string"
        }
      ],
      "name": "closeVoting",
      "outputs": [
        {
          "components": [
            {
              "internalType": "bytes32",
              "name": "id",
              "type": "bytes32"
            },
            {
              "internalType": "string",
              "name": "title",
              "type": "string"
            },
            {
              "internalType": "enum CondominiumLib.Status",
              "name": "status",
              "type": "uint8"
            },
            {
              "internalType": "enum CondominiumLib.Category",
              "name": "category",
              "type": "uint8"
            }
          ],
          "internalType": "struct CondominiumLib.TopicUpdate",
          "name": "",
          "type": "tuple"
        }
      ],
      "stateMutability": "nonpayable",
      "type": "function"
    },
    {
      "inputs": [
        {
          "internalType": "uint256",
          "name": "",
          "type": "uint256"
        }
      ],
      "name": "counselors",
      "outputs": [
        {
          "internalType": "address",
          "name": "",
          "type": "address"
        }
      ],
      "stateMutability": "view",
      "type": "function"
    },
    {
      "inputs": [
        {
          "internalType": "string",
          "name": "topicToEdit",
          "type": "string"
        },
        {
          "internalType": "string",
          "name": "description",
          "type": "string"
        },
        {
          "internalType": "uint256",
          "name": "amount",
          "type": "uint256"
        },
        {
          "internalType": "address",
          "name": "responsible",
          "type": "address"
        }
      ],
      "name": "editTopic",
      "outputs": [
        {
          "components": [
            {
              "internalType": "bytes32",
              "name": "id",
              "type": "bytes32"
            },
            {
              "internalType": "string",
              "name": "title",
              "type": "string"
            },
            {
              "internalType": "enum CondominiumLib.Status",
              "name": "status",
              "type": "uint8"
            },
            {
              "internalType": "enum CondominiumLib.Category",
              "name": "category",
              "type": "uint8"
            }
          ],
          "internalType": "struct CondominiumLib.TopicUpdate",
          "name": "",
          "type": "tuple"
        }
      ],
      "stateMutability": "nonpayable",
      "type": "function"
    },
    {
      "inputs": [],
      "name": "getManager",
      "outputs": [
        {
          "internalType": "address",
          "name": "",
          "type": "address"
        }
      ],
      "stateMutability": "view",
      "type": "function"
    },
    {
      "inputs": [],
      "name": "getQuota",
      "outputs": [
        {
          "internalType": "uint256",
          "name": "",
          "type": "uint256"
        }
      ],
      "stateMutability": "view",
      "type": "function"
    },
    {
      "inputs": [
        {
          "internalType": "address",
          "name": "resident",
          "type": "address"
        }
      ],
      "name": "getResident",
      "outputs": [
        {
          "components": [
            {
              "internalType": "address",
              "name": "wallet",
              "type": "address"
            },
            {
              "internalType": "uint16",
              "name": "residence",
              "type": "uint16"
            },
            {
              "internalType": "bool",
              "name": "isCounselor",
              "type": "bool"
            },
            {
              "internalType": "bool",
              "name": "isManager",
              "type": "bool"
            },
            {
              "internalType": "uint256",
              "name": "nextPayment",
              "type": "uint256"
            }
          ],
          "internalType": "struct CondominiumLib.Resident",
          "name": "",
          "type": "tuple"
        }
      ],
      "stateMutability": "view",
      "type": "function"
    },
    {
      "inputs": [
        {
          "internalType": "uint256",
          "name": "page",
          "type": "uint256"
        },
        {
          "internalType": "uint256",
          "name": "pageSize",
          "type": "uint256"
        }
      ],
      "name": "getResidents",
      "outputs": [
        {
          "components": [
            {
              "components": [
                {
                  "internalType": "address",
                  "name": "wallet",
                  "type": "address"
                },
                {
                  "internalType": "uint16",
                  "name": "residence",
                  "type": "uint16"
                },
                {
                  "internalType": "bool",
                  "name": "isCounselor",
                  "type": "bool"
                },
                {
                  "internalType": "bool",
                  "name": "isManager",
                  "type": "bool"
                },
                {
                  "internalType": "uint256",
                  "name": "nextPayment",
                  "type": "uint256"
                }
              ],
              "internalType": "struct CondominiumLib.Resident[]",
              "name": "residents",
              "type": "tuple[]"
            },
            {
              "internalType": "uint256",
              "name": "total",
              "type": "uint256"
            }
          ],
          "internalType": "struct CondominiumLib.ResidentPage",
          "name": "",
          "type": "tuple"
        }
      ],
      "stateMutability": "view",
      "type": "function"
    },
    {
      "inputs": [
        {
          "internalType": "string",
          "name": "title",
          "type": "string"
        }
      ],
      "name": "getTopic",
      "outputs": [
        {
          "components": [
            {
              "internalType": "string",
              "name": "title",
              "type": "string"
            },
            {
              "internalType": "string",
              "name": "description",
              "type": "string"
            },
            {
              "internalType": "enum CondominiumLib.Status",
              "name": "status",
              "type": "uint8"
            },
            {
              "internalType": "uint256",
              "name": "createdDate",
              "type": "uint256"
            },
            {
              "internalType": "uint256",
              "name": "startDate",
              "type": "uint256"
            },
            {
              "internalType": "uint256",
              "name": "endDate",
              "type": "uint256"
            },
            {
              "internalType": "enum CondominiumLib.Category",
              "name": "category",
              "type": "uint8"
            },
            {
              "internalType": "uint256",
              "name": "amount",
              "type": "uint256"
            },
            {
              "internalType": "address",
              "name": "responsible",
              "type": "address"
            }
          ],
          "internalType": "struct CondominiumLib.Topic",
          "name": "",
          "type": "tuple"
        }
      ],
      "stateMutability": "view",
      "type": "function"
    },
    {
      "inputs": [
        {
          "internalType": "uint256",
          "name": "page",
          "type": "uint256"
        },
        {
          "internalType": "uint256",
          "name": "pageSize",
          "type": "uint256"
        }
      ],
      "name": "getTopics",
      "outputs": [
        {
          "components": [
            {
              "components": [
                {
                  "internalType": "string",
                  "name": "title",
                  "type": "string"
                },
                {
                  "internalType": "string",
                  "name": "description",
                  "type": "string"
                },
                {
                  "internalType": "enum CondominiumLib.Status",
                  "name": "status",
                  "type": "uint8"
                },
                {
                  "internalType": "uint256",
                  "name": "createdDate",
                  "type": "uint256"
                },
                {
                  "internalType": "uint256",
                  "name": "startDate",
                  "type": "uint256"
                },
                {
                  "internalType": "uint256",
                  "name": "endDate",
                  "type": "uint256"
                },
                {
                  "internalType": "enum CondominiumLib.Category",
                  "name": "category",
                  "type": "uint8"
                },
                {
                  "internalType": "uint256",
                  "name": "amount",
                  "type": "uint256"
                },
                {
                  "internalType": "address",
                  "name": "responsible",
                  "type": "address"
                }
              ],
              "internalType": "struct CondominiumLib.Topic[]",
              "name": "topics",
              "type": "tuple[]"
            },
            {
              "internalType": "uint256",
              "name": "total",
              "type": "uint256"
            }
          ],
          "internalType": "struct CondominiumLib.TopicPage",
          "name": "",
          "type": "tuple"
        }
      ],
      "stateMutability": "view",
      "type": "function"
    },
    {
      "inputs": [
        {
          "internalType": "string",
          "name": "topicTitle",
          "type": "string"
        }
      ],
      "name": "getVotes",
      "outputs": [
        {
          "components": [
            {
              "internalType": "address",
              "name": "resident",
              "type": "address"
            },
            {
              "internalType": "uint16",
              "name": "residence",
              "type": "uint16"
            },
            {
              "internalType": "enum CondominiumLib.Options",
              "name": "option",
              "type": "uint8"
            },
            {
              "internalType": "uint256",
              "name": "timestamp",
              "type": "uint256"
            }
          ],
          "internalType": "struct CondominiumLib.Vote[]",
          "name": "",
          "type": "tuple[]"
        }
      ],
      "stateMutability": "view",
      "type": "function"
    },
    {
      "inputs": [
        {
          "internalType": "address",
          "name": "resident",
          "type": "address"
        }
      ],
      "name": "isResident",
      "outputs": [
        {
          "internalType": "bool",
          "name": "",
          "type": "bool"
        }
      ],
      "stateMutability": "view",
      "type": "function"
    },
    {
      "inputs": [],
      "name": "manager",
      "outputs": [
        {
          "internalType": "address",
          "name": "",
          "type": "address"
        }
      ],
      "stateMutability": "view",
      "type": "function"
    },
    {
      "inputs": [],
      "name": "monthlyQuota",
      "outputs": [
        {
          "internalType": "uint256",
          "name": "",
          "type": "uint256"
        }
      ],
      "stateMutability": "view",
      "type": "function"
    },
    {
      "inputs": [
        {
          "internalType": "string",
          "name": "title",
          "type": "string"
        }
      ],
      "name": "numberOfVotes",
      "outputs": [
        {
          "internalType": "uint256",
          "name": "",
          "type": "uint256"
        }
      ],
      "stateMutability": "view",
      "type": "function"
    },
    {
      "inputs": [
        {
          "internalType": "string",
          "name": "title",
          "type": "string"
        }
      ],
      "name": "openVoting",
      "outputs": [
        {
          "components": [
            {
              "internalType": "bytes32",
              "name": "id",
              "type": "bytes32"
            },
            {
              "internalType": "string",
              "name": "title",
              "type": "string"
            },
            {
              "internalType": "enum CondominiumLib.Status",
              "name": "status",
              "type": "uint8"
            },
            {
              "internalType": "enum CondominiumLib.Category",
              "name": "category",
              "type": "uint8"
            }
          ],
          "internalType": "struct CondominiumLib.TopicUpdate",
          "name": "",
          "type": "tuple"
        }
      ],
      "stateMutability": "nonpayable",
      "type": "function"
    },
    {
      "inputs": [
        {
          "internalType": "uint16",
          "name": "residenceId",
          "type": "uint16"
        }
      ],
      "name": "payQuota",
      "outputs": [],
      "stateMutability": "payable",
      "type": "function"
    },
    {
      "inputs": [
        {
          "internalType": "address",
          "name": "resident",
          "type": "address"
        }
      ],
      "name": "removeResident",
      "outputs": [],
      "stateMutability": "nonpayable",
      "type": "function"
    },
    {
      "inputs": [
        {
          "internalType": "string",
          "name": "title",
          "type": "string"
        }
      ],
      "name": "removeTopic",
      "outputs": [
        {
          "components": [
            {
              "internalType": "bytes32",
              "name": "id",
              "type": "bytes32"
            },
            {
              "internalType": "string",
              "name": "title",
              "type": "string"
            },
            {
              "internalType": "enum CondominiumLib.Status",
              "name": "status",
              "type": "uint8"
            },
            {
              "internalType": "enum CondominiumLib.Category",
              "name": "category",
              "type": "uint8"
            }
          ],
          "internalType": "struct CondominiumLib.TopicUpdate",
          "name": "",
          "type": "tuple"
        }
      ],
      "stateMutability": "nonpayable",
      "type": "function"
    },
    {
      "inputs": [
        {
          "internalType": "uint16",
          "name": "residenceId",
          "type": "uint16"
        }
      ],
      "name": "residenceExists",
      "outputs": [
        {
          "internalType": "bool",
          "name": "",
          "type": "bool"
        }
      ],
      "stateMutability": "view",
      "type": "function"
    },
    {
      "inputs": [
        {
          "internalType": "uint16",
          "name": "",
          "type": "uint16"
        }
      ],
      "name": "residences",
      "outputs": [
        {
          "internalType": "bool",
          "name": "",
          "type": "bool"
        }
      ],
      "stateMutability": "view",
      "type": "function"
    },
    {
      "inputs": [
        {
          "internalType": "uint256",
          "name": "",
          "type": "uint256"
        }
      ],
      "name": "residents",
      "outputs": [
        {
          "internalType": "address",
          "name": "wallet",
          "type": "address"
        },
        {
          "internalType": "uint16",
          "name": "residence",
          "type": "uint16"
        },
        {
          "internalType": "bool",
          "name": "isCounselor",
          "type": "bool"
        },
        {
          "internalType": "bool",
          "name": "isManager",
          "type": "bool"
        },
        {
          "internalType": "uint256",
          "name": "nextPayment",
          "type": "uint256"
        }
      ],
      "stateMutability": "view",
      "type": "function"
    },
    {
      "inputs": [
        {
          "internalType": "address",
          "name": "resident",
          "type": "address"
        },
        {
          "internalType": "bool",
          "name": "isEntering",
          "type": "bool"
        }
      ],
      "name": "setCounselor",
      "outputs": [],
      "stateMutability": "nonpayable",
      "type": "function"
    },
    {
      "inputs": [
        {
          "internalType": "string",
          "name": "title",
          "type": "string"
        }
      ],
      "name": "topicExists",
      "outputs": [
        {
          "internalType": "bool",
          "name": "",
          "type": "bool"
        }
      ],
      "stateMutability": "view",
      "type": "function"
    },
    {
      "inputs": [
        {
          "internalType": "uint256",
          "name": "",
          "type": "uint256"
        }
      ],
      "name": "topics",
      "outputs": [
        {
          "internalType": "string",
          "name": "title",
          "type": "string"
        },
        {
          "internalType": "string",
          "name": "description",
          "type": "string"
        },
        {
          "internalType": "enum CondominiumLib.Status",
          "name": "status",
          "type": "uint8"
        },
        {
          "internalType": "uint256",
          "name": "createdDate",
          "type": "uint256"
        },
        {
          "internalType": "uint256",
          "name": "startDate",
          "type": "uint256"
        },
        {
          "internalType": "uint256",
          "name": "endDate",
          "type": "uint256"
        },
        {
          "internalType": "enum CondominiumLib.Category",
          "name": "category",
          "type": "uint8"
        },
        {
          "internalType": "uint256",
          "name": "amount",
          "type": "uint256"
        },
        {
          "internalType": "address",
          "name": "responsible",
          "type": "address"
        }
      ],
      "stateMutability": "view",
      "type": "function"
    },
    {
      "inputs": [
        {
          "internalType": "string",
          "name": "topicTitle",
          "type": "string"
        },
        {
          "internalType": "uint256",
          "name": "amount",
          "type": "uint256"
        }
      ],
      "name": "transfer",
      "outputs": [
        {
          "components": [
            {
              "internalType": "address",
              "name": "to",
              "type": "address"
            },
            {
              "internalType": "uint256",
              "name": "amount",
              "type": "uint256"
            },
            {
              "internalType": "string",
              "name": "topic",
              "type": "string"
            }
          ],
          "internalType": "struct CondominiumLib.TransferReceipt",
          "name": "",
          "type": "tuple"
        }
      ],
      "stateMutability": "nonpayable",
      "type": "function"
    },
    {
      "inputs": [
        {
          "internalType": "string",
          "name": "title",
          "type": "string"
        },
        {
          "internalType": "enum CondominiumLib.Options",
          "name": "option",
          "type": "uint8"
        }
      ],
      "name": "vote",
      "outputs": [],
      "stateMutability": "nonpayable",
      "type": "function"
    }
  ],
  "bytecode": "0x6080604052662386f26fc1000060015534801561001b57600080fd5b50600080546001600160a01b0319163317905560015b60028161ffff16116100e85760015b60058161ffff16116100d55760015b60058161ffff16116100c2576001600260008361006d866064610104565b610079886103e8610104565b6100839190610128565b61008d9190610128565b61ffff1681526020810191909152604001600020805460ff1916911515919091179055806100ba81610148565b91505061004f565b50806100cd81610148565b915050610040565b50806100e081610148565b915050610031565b50610169565b634e487b7160e01b600052601160045260246000fd5b61ffff8181168382160290811690818114610121576101216100ee565b5092915050565b61ffff8181168382160190811115610142576101426100ee565b92915050565b600061ffff821661ffff8103610160576101606100ee565b60010192915050565b61495e806101786000396000f3fe6080604052600436106101b75760003560e01c80637b57ee49116100ec578063a7107f021161008a578063bc2f89f311610064578063bc2f89f3146105b4578063c12e8063146105e4578063d5009584146105f7578063eaf5d9dc1461061557600080fd5b8063a7107f0214610547578063abeb376114610574578063b15835461461059457600080fd5b806390ca27f3116100c657806390ca27f3146104b3578063967d59e4146104d357806396fa1def146105075780639e1bf9851461052757600080fd5b80637b57ee4914610439578063805265e5146104665780638fc5dad81461049357600080fd5b8063481c6a751161015957806368aca3351161013357806368aca335146103a6578063783bb57d146103d657806378b5749d146103ec5780637932938b1461040c57600080fd5b8063481c6a751461032157806356ea46d914610359578063597de9871461038657600080fd5b80631df8ba77116101955780631df8ba771461027e5780632f9f21fe1461029d57806343b8c6b1146102d2578063474502d8146102f457600080fd5b80631283d0a0146101bc57806312cb70c71461021c57806318d9adab14610249575b600080fd5b3480156101c857600080fd5b506101dc6101d7366004613e24565b610635565b604080516001600160a01b03909616865261ffff9094166020860152911515928401929092529015156060830152608082015260a0015b60405180910390f35b34801561022857600080fd5b5061023c610237366004613f38565b6106c6565b6040516102139190613fe1565b34801561025557600080fd5b50610269610264366004613e24565b61099d565b6040516102139998979695949392919061407d565b34801561028a57600080fd5b506001545b604051908152602001610213565b3480156102a957600080fd5b5061028f6102b83660046140f9565b805160209182012060009081526009909152604090205490565b3480156102de57600080fd5b506102f26102ed366004614152565b610b1c565b005b34801561030057600080fd5b5061031461030f3660046140f9565b610e9b565b604051610213919061428d565b34801561032d57600080fd5b50600054610341906001600160a01b031681565b6040516001600160a01b039091168152602001610213565b34801561036557600080fd5b506103796103743660046142a7565b610eac565b60405161021391906142c9565b34801561039257600080fd5b506102f26103a1366004614363565b61119f565b3480156103b257600080fd5b506103c66103c1366004614363565b611575565b6040519015158152602001610213565b3480156103e257600080fd5b5061028f60015481565b3480156103f857600080fd5b506103c66104073660046140f9565b611590565b34801561041857600080fd5b5061042c6104273660046142a7565b6115a7565b604051610213919061437e565b34801561044557600080fd5b506104596104543660046140f9565b6116fe565b6040516102139190614421565b34801561047257600080fd5b506104866104813660046140f9565b611c9d565b604051610213919061447a565b34801561049f57600080fd5b506104596104ae3660046140f9565b611d9b565b3480156104bf57600080fd5b506102f26104ce3660046144f6565b61247a565b3480156104df57600080fd5b506103c66104ee36600461455a565b61ffff1660009081526002602052604090205460ff1690565b34801561051357600080fd5b506102f2610522366004614575565b612a4d565b34801561053357600080fd5b506104596105423660046140f9565b612a69565b34801561055357600080fd5b50610567610562366004614363565b612c95565b60405161021391906145a6565b34801561058057600080fd5b5061034161058f366004613e24565b612cc9565b3480156105a057600080fd5b506102f26105af3660046145f0565b612cf3565b3480156105c057600080fd5b506103c66105cf36600461455a565b60026020526000908152604090205460ff1681565b6102f26105f236600461455a565b613042565b34801561060357600080fd5b506000546001600160a01b0316610341565b34801561062157600080fd5b50610459610630366004614623565b6131c6565b6003818154811061064557600080fd5b6000918252602090912060029091020180546001909101546001600160a01b038216925061ffff740100000000000000000000000000000000000000008304169160ff760100000000000000000000000000000000000000000000820481169277010000000000000000000000000000000000000000000000909204169085565b604080516060808201835260008083526020830152918101919091526000546001600160a01b031632146107415760405162461bcd60e51b815260206004820152601c60248201527f4f6e6c7920746865206d616e616765722063616e20646f20746869730000000060448201526064015b60405180910390fd5b814710156107915760405162461bcd60e51b815260206004820152601260248201527f496e73756666696369656e742066756e647300000000000000000000000000006044820152606401610738565b600061079c84613448565b90506002816040015160058111156107b6576107b6614021565b1480156107d8575060018160c0015160038111156107d6576107d6614021565b145b61084a5760405162461bcd60e51b815260206004820152603460248201527f4f6e6c7920415050524f564544205350454e5420746f706963732063616e206260448201527f65207573656420666f72207472616e73666572730000000000000000000000006064820152608401610738565b828160e0015110156108c45760405162461bcd60e51b815260206004820152603360248201527f54686520616d6f756e74206d757374206265206c657373206f7220657175616c60448201527f2074686520415050524f56454420746f706963000000000000000000000000006064820152608401610738565b8061010001516001600160a01b03166108fc849081150290604051600060405180830381858888f19350505050158015610902573d6000803e3d6000fd5b50835160208086019190912060008181526008909252604090912054600780546005919083908110610936576109366146a6565b60009182526020909120600260099092020101805460ff1916600183600581111561096357610963614021565b021790555060405180606001604052808461010001516001600160a01b031681526020018681526020018781525093505050505b92915050565b600781815481106109ad57600080fd5b90600052602060002090600902016000915090508060000180546109d0906146d5565b80601f01602080910402602001604051908101604052809291908181526020018280546109fc906146d5565b8015610a495780601f10610a1e57610100808354040283529160200191610a49565b820191906000526020600020905b815481529060010190602001808311610a2c57829003601f168201915b505050505090806001018054610a5e906146d5565b80601f0160208091040260200160405190810160405280929190818152602001828054610a8a906146d5565b8015610ad75780601f10610aac57610100808354040283529160200191610ad7565b820191906000526020600020905b815481529060010190602001808311610aba57829003601f168201915b505050600284015460038501546004860154600587015460068801546007890154600890990154979860ff95861698949750929550909316916001600160a01b031689565b6000546001600160a01b03163214610c0c57610b3732611575565b610ba95760405162461bcd60e51b815260206004820152602d60248201527f4f6e6c7920746865206d616e61676572206f7220746865207265736964656e7460448201527f732063616e20646f2074686973000000000000000000000000000000000000006064820152608401610738565b6000610bb432613701565b90508060800151421115610c0a5760405162461bcd60e51b815260206004820152601e60248201527f546865207265736964656e74206d7573742062652064656661756c74657200006044820152606401610738565b505b610c1585611590565b15610c625760405162461bcd60e51b815260206004820152601960248201527f5468697320746f70696320616c726561647920657869737473000000000000006044820152606401610738565b8115610ce5576002836003811115610c7c57610c7c614021565b1480610c9957506001836003811115610c9757610c97614021565b145b610ce55760405162461bcd60e51b815260206004820152600e60248201527f57726f6e672063617465676f72790000000000000000000000000000000000006044820152606401610738565b60408051610120810182528681526020810186905260009181018281526020014281526020016000815260200160008152602001856003811115610d2b57610d2b614021565b8152602081018590526040016001600160a01b038416610d4b5732610d4d565b835b6001600160a01b031690526007805488516020808b01919091206000908152600890915260408120829055600182018355919091528151919250829160099091027fa66cc928b5edb82af9bd49922954155ab7b0942694bea4ce44661d9a8736c68801908190610dbd9082614777565b5060208201516001820190610dd29082614777565b50604082015160028201805460ff19166001836005811115610df657610df6614021565b0217905550606082015181600301556080820151816004015560a0820151816005015560c08201518160060160006101000a81548160ff02191690836003811115610e4357610e43614021565b021790555060e0820151600782015561010090910151600890910180547fffffffffffffffffffffffff0000000000000000000000000000000000000000166001600160a01b03909216919091179055505050505050565b610ea3613d7b565b61099782613448565b60408051808201909152606081526000602082015260008267ffffffffffffffff811115610edc57610edc613e3d565b604051908082528060200260200182016040528015610f1557816020015b610f02613d7b565b815260200190600190039081610efa5790505b509050600083610f26600187614883565b610f309190614896565b90506000815b610f4086846148ad565b81108015610f4f575060075481105b156111805760078181548110610f6757610f676146a6565b906000526020600020906009020160405180610120016040529081600082018054610f91906146d5565b80601f0160208091040260200160405190810160405280929190818152602001828054610fbd906146d5565b801561100a5780601f10610fdf5761010080835404028352916020019161100a565b820191906000526020600020905b815481529060010190602001808311610fed57829003601f168201915b50505050508152602001600182018054611023906146d5565b80601f016020809104026020016040519081016040528092919081815260200182805461104f906146d5565b801561109c5780601f106110715761010080835404028352916020019161109c565b820191906000526020600020905b81548152906001019060200180831161107f57829003601f168201915b5050509183525050600282015460209091019060ff1660058111156110c3576110c3614021565b60058111156110d4576110d4614021565b815260038281015460208301526004830154604083015260058301546060830152600683015460809092019160ff169081111561111357611113614021565b600381111561112457611124614021565b8152600782015460208201526008909101546001600160a01b03166040909101528483611150816148c0565b945081518110611162576111626146a6565b60200260200101819052508080611178906148c0565b915050610f36565b5050604080518082019091529182525060075460208201529392505050565b6000546001600160a01b031632146111f95760405162461bcd60e51b815260206004820152601c60248201527f4f6e6c7920746865206d616e616765722063616e20646f2074686973000000006044820152606401610738565b6112028161386a565b1561124f5760405162461bcd60e51b815260206004820152601d60248201527f4120636f756e73656c6f722063616e6e6f742062652072656d6f7665640000006044820152606401610738565b6001600160a01b038116600090815260046020526040812054908190036112f457816001600160a01b03166003828154811061128d5761128d6146a6565b60009182526020909120600290910201546001600160a01b0316146112f45760405162461bcd60e51b815260206004820152601c60248201527f546865207265736964656e7420646f6573206e6f7420657869737473000000006044820152606401610738565b60035461130390600190614883565b811461150357600380546000919061131d90600190614883565b8154811061132d5761132d6146a6565b60009182526020918290206040805160a081018252600290930290910180546001600160a01b038116845261ffff740100000000000000000000000000000000000000008204169484019490945260ff760100000000000000000000000000000000000000000000850481161515928401929092527701000000000000000000000000000000000000000000000090930416151560608201526001909101546080820152600380549192508291849081106113ea576113ea6146a6565b6000918252602080832084516002909302018054858301516040808801516060890151151577010000000000000000000000000000000000000000000000027fffffffffffffffff00ffffffffffffffffffffffffffffffffffffffffffffff91151576010000000000000000000000000000000000000000000002919091167fffffffffffffffff0000ffffffffffffffffffffffffffffffffffffffffffff61ffff90941674010000000000000000000000000000000000000000027fffffffffffffffffffff000000000000000000000000000000000000000000009095166001600160a01b03988916179490941792909216929092171782556080909501516001909101559351168152600490925290208190555b6003805480611514576115146148da565b6000828152602080822060026000199094019384020180547fffffffffffffffff000000000000000000000000000000000000000000000000168155600101829055919092556001600160a01b039390931681526004909252506040812055565b60008061158183613701565b6020015161ffff161192915050565b60008061159c83613448565b606001511192915050565b60408051808201909152606081526000602082015260008267ffffffffffffffff8111156115d7576115d7613e3d565b60405190808252806020026020018201604052801561163057816020015b6040805160a0810182526000808252602080830182905292820181905260608201819052608082015282526000199092019101816115f55790505b509050600083611641600187614883565b61164b9190614896565b90506000815b61165b86846148ad565b8110801561166a575060035481105b156116df576116a460038281548110611685576116856146a6565b60009182526020909120600290910201546001600160a01b0316613701565b84836116af816148c0565b9450815181106116c1576116c16146a6565b602002602001018190525080806116d7906148c0565b915050611651565b5050604080518082019091529182525060035460208201529392505050565b61172860408051608081018252600080825260606020830152909182019081526020016000905290565b6000546001600160a01b031632146117825760405162461bcd60e51b815260206004820152601c60248201527f4f6e6c7920746865206d616e616765722063616e20646f2074686973000000006044820152606401610738565b600061178d83613448565b905060008160600151116117e35760405162461bcd60e51b815260206004820152601960248201527f54686520746f70696320646f6573206e6f7420657869737473000000000000006044820152606401610738565b6000816040015160058111156117fb576117fb614021565b146118485760405162461bcd60e51b815260206004820152601f60248201527f4f6e6c792049444c4520746f706963732063616e2062652072656d6f766564006044820152606401610738565b82516020808501919091206000818152600890925260409091205460075461187290600190614883565b8114611ba157600780546000919061188c90600190614883565b8154811061189c5761189c6146a6565b9060005260206000209060090201604051806101200160405290816000820180546118c6906146d5565b80601f01602080910402602001604051908101604052809291908181526020018280546118f2906146d5565b801561193f5780601f106119145761010080835404028352916020019161193f565b820191906000526020600020905b81548152906001019060200180831161192257829003601f168201915b50505050508152602001600182018054611958906146d5565b80601f0160208091040260200160405190810160405280929190818152602001828054611984906146d5565b80156119d15780601f106119a6576101008083540402835291602001916119d1565b820191906000526020600020905b8154815290600101906020018083116119b457829003601f168201915b5050509183525050600282015460209091019060ff1660058111156119f8576119f8614021565b6005811115611a0957611a09614021565b815260038281015460208301526004830154604083015260058301546060830152600683015460809092019160ff1690811115611a4857611a48614021565b6003811115611a5957611a59614021565b815260078281015460208301526008909201546001600160a01b03166040909101528054919250829184908110611a9257611a926146a6565b600091825260209091208251600990920201908190611ab19082614777565b5060208201516001820190611ac69082614777565b50604082015160028201805460ff19166001836005811115611aea57611aea614021565b0217905550606082015181600301556080820151816004015560a0820151816005015560c08201518160060160006101000a81548160ff02191690836003811115611b3757611b37614021565b021790555060e0820151600782015561010090910151600891820180547fffffffffffffffffffffffff0000000000000000000000000000000000000000166001600160a01b03909216919091179055905180516020918201206000908152919052604090208190555b6007805480611bb257611bb26148da565b60008281526020812060001990920191600983020190611bd28282613dd6565b611be0600183016000613dd6565b5060028101805460ff1990811690915560006003830181905560048084018290556005840182905560068401805490931690925560078301819055600892830180547fffffffffffffffffffffffff0000000000000000000000000000000000000000169055929093558482526020908152604080832092909255815160808101835285815286519181019190915291908201905b81526020018460c001516003811115611c9057611c90614021565b905293505050505b919050565b60606009600083805190602001208152602001908152602001600020805480602002602001604051908101604052809291908181526020016000905b82821015611d90576000848152602090819020604080516080810182526002860290920180546001600160a01b038116845274010000000000000000000000000000000000000000810461ffff1694840194909452919290830190760100000000000000000000000000000000000000000000900460ff166003811115611d6257611d62614021565b6003811115611d7357611d73614021565b815260200160018201548152505081526020019060010190611cd9565b505050509050919050565b611dc560408051608081018252600080825260606020830152909182019081526020016000905290565b6000546001600160a01b03163214611e1f5760405162461bcd60e51b815260206004820152601c60248201527f4f6e6c7920746865206d616e616765722063616e20646f2074686973000000006044820152606401610738565b6000611e2a83613448565b90506000816060015111611e805760405162461bcd60e51b815260206004820152601960248201527f54686520746f70696320646f6573206e6f7420657869737473000000000000006044820152606401610738565b600181604001516005811115611e9857611e98614021565b14611ee55760405162461bcd60e51b815260206004820181905260248201527f4f6e6c7920564f54494e4720746f706963732063616e20626520636c6f7365646044820152606401610738565b600560018260c001516003811115611eff57611eff614021565b03611f0c5750600a611f52565b60038260c001516003811115611f2457611f24614021565b03611f315750600f611f52565b60028260c001516003811115611f4957611f49614021565b03611f52575060145b8060ff16611f7485805160209182012060009081526009909152604090205490565b1015611fe85760405162461bcd60e51b815260206004820152603460248201527f596f752063616e6e6f742066696e697368206120766f74696e6720776974686f60448201527f757420746865206d696e696d756d20766f7465730000000000000000000000006064820152608401610738565b60008060008087805190602001209050600060096000838152602001908152602001600020805480602002602001604051908101604052809291908181526020016000905b828210156120e4576000848152602090819020604080516080810182526002860290920180546001600160a01b038116845274010000000000000000000000000000000000000000810461ffff1694840194909452919290830190760100000000000000000000000000000000000000000000900460ff1660038111156120b6576120b6614021565b60038111156120c7576120c7614021565b81526020016001820154815250508152602001906001019061202d565b50505050905060005b81518160ff1610156121af576001828260ff1681518110612110576121106146a6565b602002602001015160400151600381111561212d5761212d614021565b03612144578561213c81614909565b96505061219d565b6002828260ff168151811061215b5761215b6146a6565b602002602001015160400151600381111561217857612178614021565b0361218f578461218781614909565b95505061219d565b8361219981614909565b9450505b806121a781614909565b9150506120ed565b5060008460ff168660ff16116121c65760036121c9565b60025b600084815260086020526040902054600780549293509091839190839081106121f4576121f46146a6565b60009182526020909120600260099092020101805460ff1916600183600581111561222157612221614021565b0217905550426007828154811061223a5761223a6146a6565b6000918252602090912060056009909202010155600282600581111561226257612262614021565b036124255760028960c00151600381111561227f5761227f614021565b036122915760e0890151600155612425565b60038960c0015160038111156122a9576122a9614021565b03612425576000546122c3906001600160a01b0316611575565b1561235057600080546001600160a01b03168152600460205260408120546003805490919081106122f6576122f66146a6565b60009182526020909120600290910201805491151577010000000000000000000000000000000000000000000000027fffffffffffffffff00ffffffffffffffffffffffffffffffffffffffffffffff9092169190911790555b610100890151600080547fffffffffffffffffffffffff0000000000000000000000000000000000000000166001600160a01b03831617905561239290611575565b15612425576101008901516001600160a01b0316600090815260046020526040902054600380546001929081106123cb576123cb6146a6565b60009182526020909120600290910201805491151577010000000000000000000000000000000000000000000000027fffffffffffffffff00ffffffffffffffffffffffffffffffffffffffffffffff9092169190911790555b604080516080810182528581528a51602082015290810183600581111561244e5761244e614021565b81526020018a60c00151600381111561246957612469614021565b90529b9a5050505050505050505050565b6000546001600160a01b0316321461256a5761249532611575565b6125075760405162461bcd60e51b815260206004820152602d60248201527f4f6e6c7920746865206d616e61676572206f7220746865207265736964656e7460448201527f732063616e20646f2074686973000000000000000000000000000000000000006064820152608401610738565b600061251232613701565b905080608001514211156125685760405162461bcd60e51b815260206004820152601e60248201527f546865207265736964656e74206d7573742062652064656661756c74657200006044820152606401610738565b505b600081600381111561257e5761257e614021565b036125cb5760405162461bcd60e51b815260206004820152601a60248201527f546865206f7074696f6e2063616e6e6f7420626520454d5054590000000000006044820152606401610738565b60006125d683613448565b9050600081606001511161262c5760405162461bcd60e51b815260206004820152601960248201527f54686520746f70696320646f6573206e6f7420657869737473000000000000006044820152606401610738565b60018160400151600581111561264457612644614021565b146126915760405162461bcd60e51b815260206004820152601f60248201527f4f6e6c7920564f54494e4720746f706963732063616e20626520766f746564006044820152606401610738565b32600090815260046020526040902054801515806126e45750326001600160a01b031660036000815481106126c8576126c86146a6565b60009182526020909120600290910201546001600160a01b0316145b6127305760405162461bcd60e51b815260206004820152601260248201527f5265736964656e74206e6f7420666f756e6400000000000000000000000000006044820152606401610738565b600060038281548110612745576127456146a6565b600091825260208083206002929092029091015487518883012080845260098352604080852080548251818702810187019093528083527401000000000000000000000000000000000000000090940461ffff169650919493909290849084015b8282101561285d576000848152602090819020604080516080810182526002860290920180546001600160a01b038116845274010000000000000000000000000000000000000000810461ffff1694840194909452919290830190760100000000000000000000000000000000000000000000900460ff16600381111561282f5761282f614021565b600381111561284057612840614021565b8152602001600182015481525050815260200190600101906127a6565b50505050905060005b81518160ff161015612921578361ffff16828260ff168151811061288c5761288c6146a6565b60200260200101516020015161ffff160361290f5760405162461bcd60e51b815260206004820152602160248201527f41207265736964656e63652073686f756c6420766f7465206f6e6c79206f6e6360448201527f65000000000000000000000000000000000000000000000000000000000000006064820152608401610738565b8061291981614909565b915050612866565b506040805160808101825232815261ffff85166020820152600091810188600381111561295057612950614021565b8152426020918201526000858152600982526040808220805460018101825590835291839020845160029093020180549385015161ffff1674010000000000000000000000000000000000000000027fffffffffffffffffffff000000000000000000000000000000000000000000009094166001600160a01b039093169290921792909217808255918301519293508392909182907fffffffffffffffffff00ffffffffffffffffffffffffffffffffffffffffffff16760100000000000000000000000000000000000000000000836003811115612a3257612a32614021565b02179055506060820151816001015550505050505050505050565b8015612a6057612a5c826138c9565b5050565b612a5c82613ab1565b612a9360408051608081018252600080825260606020830152909182019081526020016000905290565b6000546001600160a01b03163214612aed5760405162461bcd60e51b815260206004820152601c60248201527f4f6e6c7920746865206d616e616765722063616e20646f2074686973000000006044820152606401610738565b6000612af883613448565b90506000816060015111612b4e5760405162461bcd60e51b815260206004820152601960248201527f54686520746f70696320646f6573206e6f7420657869737473000000000000006044820152606401610738565b600081604001516005811115612b6657612b66614021565b14612bd95760405162461bcd60e51b815260206004820152602760248201527f4f6e6c792049444c4520746f706963732063616e206265206f70656e20666f7260448201527f20766f74696e67000000000000000000000000000000000000000000000000006064820152608401610738565b825160208085019190912060008181526008909252604090912054600780546001919083908110612c0c57612c0c6146a6565b60009182526020909120600260099092020101805460ff19166001836005811115612c3957612c39614021565b02179055504260078281548110612c5257612c526146a6565b90600052602060002090600902016004018190555060405180608001604052808381526020018460000151815260200160016005811115611c7557611c75614021565b6040805160a08101825260008082526020820181905291810182905260608101829052608081019190915261099782613701565b60058181548110612cd957600080fd5b6000918252602090912001546001600160a01b0316905081565b6000546001600160a01b0316321480612d105750612d103261386a565b612d825760405162461bcd60e51b815260206004820152602b60248201527f4f6e6c7920746865206d616e61676572206f722074686520636f756e63696c2060448201527f63616e20646f20746869730000000000000000000000000000000000000000006064820152608401610738565b816001600160a01b038116612dd95760405162461bcd60e51b815260206004820152600f60248201527f496e76616c6964206164647265737300000000000000000000000000000000006044820152606401610738565b61ffff821660009081526002602052604090205460ff16612e3c5760405162461bcd60e51b815260206004820152601e60248201527f54686973207265736964656e636520646f6573206e6f742065786973747300006044820152606401610738565b612e4583611575565b15612e925760405162461bcd60e51b815260206004820152601c60248201527f54686973207265736964656e7420616c726561647920657869737473000000006044820152606401610738565b6040805160a0810182526001600160a01b0380861680835261ffff808716602085019081526000958501868152865485169093146060860190815260808601878152600380546001818101835599829052975160029098027fc2575a0e9e593c00f959f8c92f12db2869c3395a3b0502d05e2516446f71f85b81018054955197519451151577010000000000000000000000000000000000000000000000027fffffffffffffffff00ffffffffffffffffffffffffffffffffffffffffffffff95151576010000000000000000000000000000000000000000000002959095167fffffffffffffffff0000ffffffffffffffffffffffffffffffffffffffffffff9890971674010000000000000000000000000000000000000000027fffffffffffffffffffff00000000000000000000000000000000000000000000909616999098169890981793909317949094169290921791909117909255517fc2575a0e9e593c00f959f8c92f12db2869c3395a3b0502d05e2516446f71f85c90920191909155546130219190614883565b6001600160a01b039093166000908152600460205260409020929092555050565b61ffff811660009081526002602052604090205460ff166130a55760405162461bcd60e51b815260206004820152601d60248201527f546865207265736964656e636520646f6573206e6f74206578697374730000006044820152606401610738565b6001543410156130f75760405162461bcd60e51b815260206004820152600b60248201527f57726f6e672076616c75650000000000000000000000000000000000000000006044820152606401610738565b61ffff811660009081526006602052604090205442116131595760405162461bcd60e51b815260206004820152601c60248201527f596f752063616e6e6f74207061792074776963652061206d6f6e7468000000006044820152606401610738565b61ffff811660009081526006602052604081205490036131975761318062278d00426148ad565b61ffff821660009081526006602052604090205550565b61ffff81166000908152600660205260408120805462278d0092906131bd9084906148ad565b90915550505b50565b6131f060408051608081018252600080825260606020830152909182019081526020016000905290565b6000546001600160a01b0316321461324a5760405162461bcd60e51b815260206004820152601c60248201527f4f6e6c7920746865206d616e616765722063616e20646f2074686973000000006044820152606401610738565b600061325586613448565b905060008160600151116132ab5760405162461bcd60e51b815260206004820152601960248201527f54686520746f70696320646f6573206e6f7420657869737473000000000000006044820152606401610738565b6000816040015160058111156132c3576132c3614021565b146133105760405162461bcd60e51b815260206004820152601e60248201527f4f6e6c792049444c4520746f706963732063616e2062652065646974656400006044820152606401610738565b855160208088019190912060008181526008909252604090912054865115613365578660078281548110613346576133466146a6565b906000526020600020906009020160010190816133639190614777565b505b851561339557856007828154811061337f5761337f6146a6565b9060005260206000209060090201600701819055505b6001600160a01b038516156133ee5784600782815481106133b8576133b86146a6565b906000526020600020906009020160080160006101000a8154816001600160a01b0302191690836001600160a01b031602179055505b6040518060800160405280838152602001846000015181526020018460400151600581111561341f5761341f614021565b81526020018460c00151600381111561343a5761343a614021565b905298975050505050505050565b613450613d7b565b81516020808401919091206000818152600890925260409091205460075481101561368f5760006007828154811061348a5761348a6146a6565b9060005260206000209060090201604051806101200160405290816000820180546134b4906146d5565b80601f01602080910402602001604051908101604052809291908181526020018280546134e0906146d5565b801561352d5780601f106135025761010080835404028352916020019161352d565b820191906000526020600020905b81548152906001019060200180831161351057829003601f168201915b50505050508152602001600182018054613546906146d5565b80601f0160208091040260200160405190810160405280929190818152602001828054613572906146d5565b80156135bf5780601f10613594576101008083540402835291602001916135bf565b820191906000526020600020905b8154815290600101906020018083116135a257829003601f168201915b5050509183525050600282015460209091019060ff1660058111156135e6576135e6614021565b60058111156135f7576135f7614021565b815260038281015460208301526004830154604083015260058301546060830152600683015460809092019160ff169081111561363657613636614021565b600381111561364757613647614021565b8152600782015460208201526008909101546001600160a01b031660409091015290508115158061368057508051805160209091012083145b1561368d57949350505050565b505b60408051610140810182526000610120820181815282528251602081810185529181529082015290810160048152602001600081526020016000815260200160008152602001600060038111156136e8576136e8614021565b8152600060208201819052604090910152949350505050565b6040805160a0810182526000808252602080830182905282840182905260608301829052608083018290526001600160a01b038516825260049052919091205460035481101561383857600060038281548110613760576137606146a6565b60009182526020918290206040805160a081018252600290930290910180546001600160a01b0380821680865261ffff740100000000000000000000000000000000000000008404169686019690965260ff760100000000000000000000000000000000000000000000830481161515948601949094527701000000000000000000000000000000000000000000000090910490921615156060840152600101546080830152909250851690036138365760208082015161ffff1660009081526006909152604090205460808201529392505050565b505b50506040805160a081018252600080825260208201819052918101829052606081018290526080810191909152919050565b6000805b6005548110156138c057826001600160a01b031660058281548110613895576138956146a6565b6000918252602090912001546001600160a01b0316036138b85750600192915050565b60010161386e565b50600092915050565b6000546001600160a01b031632146139235760405162461bcd60e51b815260206004820152601c60248201527f4f6e6c7920746865206d616e616765722063616e20646f2074686973000000006044820152606401610738565b806001600160a01b03811661397a5760405162461bcd60e51b815260206004820152600f60248201527f496e76616c6964206164647265737300000000000000000000000000000000006044820152606401610738565b61398382611575565b6139cf5760405162461bcd60e51b815260206004820181905260248201527f54686520636f756e73656c6f72206d7573742062652061207265736964656e746044820152606401610738565b6005805460018082019092557f036b6384b5eca791c62761152d0c79bb0604c104a5fb6f4eb0703f3154bb3db00180547fffffffffffffffffffffffff0000000000000000000000000000000000000000166001600160a01b038516908117909155600090815260046020526040902054600380549091908110613a5557613a556146a6565b600091825260209091206002909102018054911515760100000000000000000000000000000000000000000000027fffffffffffffffffff00ffffffffffffffffffffffffffffffffffffffffffff9092169190911790555050565b6000546001600160a01b03163214613b0b5760405162461bcd60e51b815260206004820152601c60248201527f4f6e6c7920746865206d616e616765722063616e20646f2074686973000000006044820152606401610738565b806001600160a01b038116613b625760405162461bcd60e51b815260206004820152600f60248201527f496e76616c6964206164647265737300000000000000000000000000000000006044820152606401610738565b620f424060005b600554811015613bba57836001600160a01b031660058281548110613b9057613b906146a6565b6000918252602090912001546001600160a01b031603613bb257809150613bba565b600101613b69565b5080620f424003613c0d5760405162461bcd60e51b815260206004820152601360248201527f436f756e73656c6f72206e6f7420666f756e64000000000000000000000000006044820152606401610738565b600554613c1c90600190614883565b8114613ca5576005805460009190613c3690600190614883565b81548110613c4657613c466146a6565b600091825260209091200154600580546001600160a01b039092169250829184908110613c7557613c756146a6565b9060005260206000200160006101000a8154816001600160a01b0302191690836001600160a01b03160217905550505b6005805480613cb657613cb66148da565b60008281526020808220830160001990810180547fffffffffffffffffffffffff00000000000000000000000000000000000000001690559092019092556001600160a01b0385168252600490526040812054600380549091908110613d1e57613d1e6146a6565b600091825260209091206002909102018054911515760100000000000000000000000000000000000000000000027fffffffffffffffffff00ffffffffffffffffffffffffffffffffffffffffffff909216919091179055505050565b6040805161012081018252606080825260208201529081016000815260200160008152602001600081526020016000815260200160006003811115613dc257613dc2614021565b815260006020820181905260409091015290565b508054613de2906146d5565b6000825580601f10613df2575050565b601f0160209004906000526020600020908101906131c391905b80821115613e205760008155600101613e0c565b5090565b600060208284031215613e3657600080fd5b5035919050565b7f4e487b7100000000000000000000000000000000000000000000000000000000600052604160045260246000fd5b600082601f830112613e7d57600080fd5b813567ffffffffffffffff811115613e9757613e97613e3d565b6040517fffffffffffffffffffffffffffffffffffffffffffffffffffffffffffffffe0603f7fffffffffffffffffffffffffffffffffffffffffffffffffffffffffffffffe0601f8501160116810181811067ffffffffffffffff82111715613f0357613f03613e3d565b604052818152838201602001851015613f1b57600080fd5b816020850160208301376000918101602001919091529392505050565b60008060408385031215613f4b57600080fd5b823567ffffffffffffffff811115613f6257600080fd5b613f6e85828601613e6c565b95602094909401359450505050565b6000815180845260005b81811015613fa357602081850181015186830182015201613f87565b5060006020828601015260207fffffffffffffffffffffffffffffffffffffffffffffffffffffffffffffffe0601f83011685010191505092915050565b602081526001600160a01b03825116602082015260208201516040820152600060408301516060808401526140196080840182613f7d565b949350505050565b7f4e487b7100000000000000000000000000000000000000000000000000000000600052602160045260246000fd5b6006811061406057614060614021565b9052565b600481106131c3576131c3614021565b61406081614064565b6101208152600061409261012083018c613f7d565b82810360208401526140a4818c613f7d565b9150506140b4604083018a614050565b8760608301528660808301528560a08301526140cf85614064565b8460c08301528360e08301526001600160a01b0383166101008301529a9950505050505050505050565b60006020828403121561410b57600080fd5b813567ffffffffffffffff81111561412257600080fd5b61401984828501613e6c565b600481106131c357600080fd5b80356001600160a01b0381168114611c9857600080fd5b600080600080600060a0868803121561416a57600080fd5b853567ffffffffffffffff81111561418157600080fd5b61418d88828901613e6c565b955050602086013567ffffffffffffffff8111156141aa57600080fd5b6141b688828901613e6c565b94505060408601356141c78161412e565b9250606086013591506141dc6080870161413b565b90509295509295909350565b6000815161012084526141ff610120850182613f7d565b9050602083015184820360208601526142188282613f7d565b915050604083015161422d6040860182614050565b50606083015160608501526080830151608085015260a083015160a085015260c083015161425e60c0860182614074565b5060e083015160e08501526101008301516142856101008601826001600160a01b03169052565b509392505050565b6020815260006142a060208301846141e8565b9392505050565b600080604083850312156142ba57600080fd5b50508035926020909101359150565b6020815260006060820183516040602085015281815180845260808601915060808160051b870101935060208301925060005b8181101561434b577fffffffffffffffffffffffffffffffffffffffffffffffffffffffffffffff808786030183526143368585516141e8565b945060209384019392909201916001016142fc565b50505050602084015160408401528091505092915050565b60006020828403121561437557600080fd5b6142a08261413b565b602080825282516040838301528051606084018190526000929190910190829060808501905b8083101561440a576143f38285516001600160a01b03815116825261ffff6020820151166020830152604081015115156040830152606081015115156060830152608081015160808301525050565b60a0820191506020840193506001830192506143a4565b506020860151604086015280935050505092915050565b6020815281516020820152600060208301516080604084015261444760a0840182613f7d565b9050604084015161445b6060850182614050565b50606084015161446a81614064565b6080939093019290925250919050565b602080825282518282018190526000918401906040840190835b818110156144eb5783516001600160a01b03815116845261ffff602082015116602085015260408101516144c781614064565b60408501526060908101519084015260209390930192608090920191600101614494565b509095945050505050565b6000806040838503121561450957600080fd5b823567ffffffffffffffff81111561452057600080fd5b61452c85828601613e6c565b925050602083013561453d8161412e565b809150509250929050565b803561ffff81168114611c9857600080fd5b60006020828403121561456c57600080fd5b6142a082614548565b6000806040838503121561458857600080fd5b6145918361413b565b91506020830135801515811461453d57600080fd5b60a0810161099782846001600160a01b03815116825261ffff6020820151166020830152604081015115156040830152606081015115156060830152608081015160808301525050565b6000806040838503121561460357600080fd5b61460c8361413b565b915061461a60208401614548565b90509250929050565b6000806000806080858703121561463957600080fd5b843567ffffffffffffffff81111561465057600080fd5b61465c87828801613e6c565b945050602085013567ffffffffffffffff81111561467957600080fd5b61468587828801613e6c565b9350506040850135915061469b6060860161413b565b905092959194509250565b7f4e487b7100000000000000000000000000000000000000000000000000000000600052603260045260246000fd5b600181811c908216806146e957607f821691505b602082108103614722577f4e487b7100000000000000000000000000000000000000000000000000000000600052602260045260246000fd5b50919050565b601f82111561477257806000526020600020601f840160051c8101602085101561474f5750805b601f840160051c820191505b8181101561476f576000815560010161475b565b50505b505050565b815167ffffffffffffffff81111561479157614791613e3d565b6147a58161479f84546146d5565b84614728565b6020601f8211600181146147d957600083156147c15750848201515b600019600385901b1c1916600184901b17845561476f565b6000848152602081207fffffffffffffffffffffffffffffffffffffffffffffffffffffffffffffffe08516915b828110156148275787850151825560209485019460019092019101614807565b50848210156148455786840151600019600387901b60f8161c191681555b50505050600190811b01905550565b7f4e487b7100000000000000000000000000000000000000000000000000000000600052601160045260246000fd5b8181038181111561099757610997614854565b808202811582820484141761099757610997614854565b8082018082111561099757610997614854565b600060001982036148d3576148d3614854565b5060010190565b7f4e487b7100000000000000000000000000000000000000000000000000000000600052603160045260246000fd5b600060ff821660ff810361491f5761491f614854565b6001019291505056fea264697066735822122011415f0a8f2b74e2ab88df3d6f9708a091a19d7386db5bd8b996cbda7909898964736f6c634300081c0033",
  "linkReferences": {},
  "deployedLinkReferences": {}
}