{
  "_format": "hh-sol-artifact-1",
  "contractName": "Condominium",
  "sourceName": "contracts/Condominium.sol",
  "abi": [
    {
      "inputs": [],
      "stateMutability": "nonpayable",
      "type": "constructor"
    },
    {
      "inputs": [
        {
          "internalType": "address",
          "name": "resident",
          "type": "address"
        },
        {
          "internalType": "uint16",
          "name": "residenceId",
          "type": "uint16"
        }
      ],
      "name": "addResident",
      "outputs": [],
      "stateMutability": "nonpayable",
      "type": "function"
    },
    {
      "inputs": [
        {
          "internalType": "string",
          "name": "title",
          "type": "string"
        },
        {
          "internalType": "string",
          "name": "description",
          "type": "string"
        },
        {
          "internalType": "enum CondominiumLib.Category",
          "name": "category",
          "type": "uint8"
        },
        {
          "internalType": "uint256",
          "name": "amount",
          "type": "uint256"
        },
        {
          "internalType": "address",
          "name": "responsible",
          "type": "address"
        }
      ],
      "name": "addTopic",
      "outputs": [],
      "stateMutability": "nonpayable",
      "type": "function"
    },
    {
      "inputs": [
        {
          "internalType": "string",
          "name": "title",
          "type": "string"
        }
      ],
      "name": "closeVoting",
      "outputs": [
        {
          "components": [
            {
              "internalType": "bytes32",
              "name": "id",
              "type": "bytes32"
            },
            {
              "internalType": "string",
              "name": "title",
              "type": "string"
            },
            {
              "internalType": "enum CondominiumLib.Status",
              "name": "status",
              "type": "uint8"
            },
            {
              "internalType": "enum CondominiumLib.Category",
              "name": "category",
              "type": "uint8"
            }
          ],
          "internalType": "struct CondominiumLib.TopicUpdate",
          "name": "",
          "type": "tuple"
        }
      ],
      "stateMutability": "nonpayable",
      "type": "function"
    },
    {
      "inputs": [
        {
          "internalType": "uint256",
          "name": "",
          "type": "uint256"
        }
      ],
      "name": "counselors",
      "outputs": [
        {
          "internalType": "address",
          "name": "",
          "type": "address"
        }
      ],
      "stateMutability": "view",
      "type": "function"
    },
    {
      "inputs": [
        {
          "internalType": "string",
          "name": "topicToEdit",
          "type": "string"
        },
        {
          "internalType": "string",
          "name": "description",
          "type": "string"
        },
        {
          "internalType": "uint256",
          "name": "amount",
          "type": "uint256"
        },
        {
          "internalType": "address",
          "name": "responsible",
          "type": "address"
        }
      ],
      "name": "editTopic",
      "outputs": [
        {
          "components": [
            {
              "internalType": "bytes32",
              "name": "id",
              "type": "bytes32"
            },
            {
              "internalType": "string",
              "name": "title",
              "type": "string"
            },
            {
              "internalType": "enum CondominiumLib.Status",
              "name": "status",
              "type": "uint8"
            },
            {
              "internalType": "enum CondominiumLib.Category",
              "name": "category",
              "type": "uint8"
            }
          ],
          "internalType": "struct CondominiumLib.TopicUpdate",
          "name": "",
          "type": "tuple"
        }
      ],
      "stateMutability": "nonpayable",
      "type": "function"
    },
    {
      "inputs": [],
      "name": "getManager",
      "outputs": [
        {
          "internalType": "address",
          "name": "",
          "type": "address"
        }
      ],
      "stateMutability": "view",
      "type": "function"
    },
    {
      "inputs": [],
      "name": "getQuota",
      "outputs": [
        {
          "internalType": "uint256",
          "name": "",
          "type": "uint256"
        }
      ],
      "stateMutability": "view",
      "type": "function"
    },
    {
      "inputs": [
        {
          "internalType": "address",
          "name": "resident",
          "type": "address"
        }
      ],
      "name": "getResident",
      "outputs": [
        {
          "components": [
            {
              "internalType": "address",
              "name": "wallet",
              "type": "address"
            },
            {
              "internalType": "uint16",
              "name": "residence",
              "type": "uint16"
            },
            {
              "internalType": "bool",
              "name": "isCounselor",
              "type": "bool"
            },
            {
              "internalType": "bool",
              "name": "isManager",
              "type": "bool"
            },
            {
              "internalType": "uint256",
              "name": "nextPayment",
              "type": "uint256"
            }
          ],
          "internalType": "struct CondominiumLib.Resident",
          "name": "",
          "type": "tuple"
        }
      ],
      "stateMutability": "view",
      "type": "function"
    },
    {
      "inputs": [
        {
          "internalType": "uint256",
          "name": "page",
          "type": "uint256"
        },
        {
          "internalType": "uint256",
          "name": "pageSize",
          "type": "uint256"
        }
      ],
      "name": "getResidents",
      "outputs": [
        {
          "components": [
            {
              "components": [
                {
                  "internalType": "address",
                  "name": "wallet",
                  "type": "address"
                },
                {
                  "internalType": "uint16",
                  "name": "residence",
                  "type": "uint16"
                },
                {
                  "internalType": "bool",
                  "name": "isCounselor",
                  "type": "bool"
                },
                {
                  "internalType": "bool",
                  "name": "isManager",
                  "type": "bool"
                },
                {
                  "internalType": "uint256",
                  "name": "nextPayment",
                  "type": "uint256"
                }
              ],
              "internalType": "struct CondominiumLib.Resident[]",
              "name": "residents",
              "type": "tuple[]"
            },
            {
              "internalType": "uint256",
              "name": "total",
              "type": "uint256"
            }
          ],
          "internalType": "struct CondominiumLib.ResidentPage",
          "name": "",
          "type": "tuple"
        }
      ],
      "stateMutability": "view",
      "type": "function"
    },
    {
      "inputs": [
        {
          "internalType": "string",
          "name": "title",
          "type": "string"
        }
      ],
      "name": "getTopic",
      "outputs": [
        {
          "components": [
            {
              "internalType": "string",
              "name": "title",
              "type": "string"
            },
            {
              "internalType": "string",
              "name": "description",
              "type": "string"
            },
            {
              "internalType": "enum CondominiumLib.Status",
              "name": "status",
              "type": "uint8"
            },
            {
              "internalType": "uint256",
              "name": "createdDate",
              "type": "uint256"
            },
            {
              "internalType": "uint256",
              "name": "startdDate",
              "type": "uint256"
            },
            {
              "internalType": "uint256",
              "name": "endDate",
              "type": "uint256"
            },
            {
              "internalType": "enum CondominiumLib.Category",
              "name": "category",
              "type": "uint8"
            },
            {
              "internalType": "uint256",
              "name": "amount",
              "type": "uint256"
            },
            {
              "internalType": "address",
              "name": "responsible",
              "type": "address"
            }
          ],
          "internalType": "struct CondominiumLib.Topic",
          "name": "",
          "type": "tuple"
        }
      ],
      "stateMutability": "view",
      "type": "function"
    },
    {
      "inputs": [
        {
          "internalType": "uint256",
          "name": "page",
          "type": "uint256"
        },
        {
          "internalType": "uint256",
          "name": "pageSize",
          "type": "uint256"
        }
      ],
      "name": "getTopics",
      "outputs": [
        {
          "components": [
            {
              "components": [
                {
                  "internalType": "string",
                  "name": "title",
                  "type": "string"
                },
                {
                  "internalType": "string",
                  "name": "description",
                  "type": "string"
                },
                {
                  "internalType": "enum CondominiumLib.Status",
                  "name": "status",
                  "type": "uint8"
                },
                {
                  "internalType": "uint256",
                  "name": "createdDate",
                  "type": "uint256"
                },
                {
                  "internalType": "uint256",
                  "name": "startdDate",
                  "type": "uint256"
                },
                {
                  "internalType": "uint256",
                  "name": "endDate",
                  "type": "uint256"
                },
                {
                  "internalType": "enum CondominiumLib.Category",
                  "name": "category",
                  "type": "uint8"
                },
                {
                  "internalType": "uint256",
                  "name": "amount",
                  "type": "uint256"
                },
                {
                  "internalType": "address",
                  "name": "responsible",
                  "type": "address"
                }
              ],
              "internalType": "struct CondominiumLib.Topic[]",
              "name": "topics",
              "type": "tuple[]"
            },
            {
              "internalType": "uint256",
              "name": "total",
              "type": "uint256"
            }
          ],
          "internalType": "struct CondominiumLib.TopicPage",
          "name": "",
          "type": "tuple"
        }
      ],
      "stateMutability": "view",
      "type": "function"
    },
    {
      "inputs": [
        {
          "internalType": "string",
          "name": "topicTitle",
          "type": "string"
        }
      ],
      "name": "getVotes",
      "outputs": [
        {
          "components": [
            {
              "internalType": "address",
              "name": "resident",
              "type": "address"
            },
            {
              "internalType": "uint16",
              "name": "residence",
              "type": "uint16"
            },
            {
              "internalType": "enum CondominiumLib.Options",
              "name": "option",
              "type": "uint8"
            },
            {
              "internalType": "uint256",
              "name": "timestamp",
              "type": "uint256"
            }
          ],
          "internalType": "struct CondominiumLib.Vote[]",
          "name": "",
          "type": "tuple[]"
        }
      ],
      "stateMutability": "view",
      "type": "function"
    },
    {
      "inputs": [
        {
          "internalType": "address",
          "name": "resident",
          "type": "address"
        }
      ],
      "name": "isResident",
      "outputs": [
        {
          "internalType": "bool",
          "name": "",
          "type": "bool"
        }
      ],
      "stateMutability": "view",
      "type": "function"
    },
    {
      "inputs": [],
      "name": "manager",
      "outputs": [
        {
          "internalType": "address",
          "name": "",
          "type": "address"
        }
      ],
      "stateMutability": "view",
      "type": "function"
    },
    {
      "inputs": [],
      "name": "monthlyQuota",
      "outputs": [
        {
          "internalType": "uint256",
          "name": "",
          "type": "uint256"
        }
      ],
      "stateMutability": "view",
      "type": "function"
    },
    {
      "inputs": [
        {
          "internalType": "string",
          "name": "title",
          "type": "string"
        }
      ],
      "name": "numberOfVotes",
      "outputs": [
        {
          "internalType": "uint256",
          "name": "",
          "type": "uint256"
        }
      ],
      "stateMutability": "view",
      "type": "function"
    },
    {
      "inputs": [
        {
          "internalType": "string",
          "name": "title",
          "type": "string"
        }
      ],
      "name": "openVoting",
      "outputs": [
        {
          "components": [
            {
              "internalType": "bytes32",
              "name": "id",
              "type": "bytes32"
            },
            {
              "internalType": "string",
              "name": "title",
              "type": "string"
            },
            {
              "internalType": "enum CondominiumLib.Status",
              "name": "status",
              "type": "uint8"
            },
            {
              "internalType": "enum CondominiumLib.Category",
              "name": "category",
              "type": "uint8"
            }
          ],
          "internalType": "struct CondominiumLib.TopicUpdate",
          "name": "",
          "type": "tuple"
        }
      ],
      "stateMutability": "nonpayable",
      "type": "function"
    },
    {
      "inputs": [
        {
          "internalType": "uint16",
          "name": "residenceId",
          "type": "uint16"
        }
      ],
      "name": "payQuota",
      "outputs": [],
      "stateMutability": "payable",
      "type": "function"
    },
    {
      "inputs": [
        {
          "internalType": "address",
          "name": "resident",
          "type": "address"
        }
      ],
      "name": "removeResident",
      "outputs": [],
      "stateMutability": "nonpayable",
      "type": "function"
    },
    {
      "inputs": [
        {
          "internalType": "string",
          "name": "title",
          "type": "string"
        }
      ],
      "name": "removeTopic",
      "outputs": [
        {
          "components": [
            {
              "internalType": "bytes32",
              "name": "id",
              "type": "bytes32"
            },
            {
              "internalType": "string",
              "name": "title",
              "type": "string"
            },
            {
              "internalType": "enum CondominiumLib.Status",
              "name": "status",
              "type": "uint8"
            },
            {
              "internalType": "enum CondominiumLib.Category",
              "name": "category",
              "type": "uint8"
            }
          ],
          "internalType": "struct CondominiumLib.TopicUpdate",
          "name": "",
          "type": "tuple"
        }
      ],
      "stateMutability": "nonpayable",
      "type": "function"
    },
    {
      "inputs": [
        {
          "internalType": "uint16",
          "name": "residenceId",
          "type": "uint16"
        }
      ],
      "name": "residenceExists",
      "outputs": [
        {
          "internalType": "bool",
          "name": "",
          "type": "bool"
        }
      ],
      "stateMutability": "view",
      "type": "function"
    },
    {
      "inputs": [
        {
          "internalType": "uint16",
          "name": "",
          "type": "uint16"
        }
      ],
      "name": "residences",
      "outputs": [
        {
          "internalType": "bool",
          "name": "",
          "type": "bool"
        }
      ],
      "stateMutability": "view",
      "type": "function"
    },
    {
      "inputs": [
        {
          "internalType": "uint256",
          "name": "",
          "type": "uint256"
        }
      ],
      "name": "residents",
      "outputs": [
        {
          "internalType": "address",
          "name": "wallet",
          "type": "address"
        },
        {
          "internalType": "uint16",
          "name": "residence",
          "type": "uint16"
        },
        {
          "internalType": "bool",
          "name": "isCounselor",
          "type": "bool"
        },
        {
          "internalType": "bool",
          "name": "isManager",
          "type": "bool"
        },
        {
          "internalType": "uint256",
          "name": "nextPayment",
          "type": "uint256"
        }
      ],
      "stateMutability": "view",
      "type": "function"
    },
    {
      "inputs": [
        {
          "internalType": "address",
          "name": "resident",
          "type": "address"
        },
        {
          "internalType": "bool",
          "name": "isEntering",
          "type": "bool"
        }
      ],
      "name": "setCounselor",
      "outputs": [],
      "stateMutability": "nonpayable",
      "type": "function"
    },
    {
      "inputs": [
        {
          "internalType": "string",
          "name": "tile",
          "type": "string"
        }
      ],
      "name": "topicExists",
      "outputs": [
        {
          "internalType": "bool",
          "name": "",
          "type": "bool"
        }
      ],
      "stateMutability": "view",
      "type": "function"
    },
    {
      "inputs": [
        {
          "internalType": "uint256",
          "name": "",
          "type": "uint256"
        }
      ],
      "name": "topics",
      "outputs": [
        {
          "internalType": "string",
          "name": "title",
          "type": "string"
        },
        {
          "internalType": "string",
          "name": "description",
          "type": "string"
        },
        {
          "internalType": "enum CondominiumLib.Status",
          "name": "status",
          "type": "uint8"
        },
        {
          "internalType": "uint256",
          "name": "createdDate",
          "type": "uint256"
        },
        {
          "internalType": "uint256",
          "name": "startdDate",
          "type": "uint256"
        },
        {
          "internalType": "uint256",
          "name": "endDate",
          "type": "uint256"
        },
        {
          "internalType": "enum CondominiumLib.Category",
          "name": "category",
          "type": "uint8"
        },
        {
          "internalType": "uint256",
          "name": "amount",
          "type": "uint256"
        },
        {
          "internalType": "address",
          "name": "responsible",
          "type": "address"
        }
      ],
      "stateMutability": "view",
      "type": "function"
    },
    {
      "inputs": [
        {
          "internalType": "string",
          "name": "topicTitle",
          "type": "string"
        },
        {
          "internalType": "uint256",
          "name": "amount",
          "type": "uint256"
        }
      ],
      "name": "transfer",
      "outputs": [
        {
          "components": [
            {
              "internalType": "address",
              "name": "to",
              "type": "address"
            },
            {
              "internalType": "uint256",
              "name": "amount",
              "type": "uint256"
            },
            {
              "internalType": "string",
              "name": "topic",
              "type": "string"
            }
          ],
          "internalType": "struct CondominiumLib.TransferReceipt",
          "name": "",
          "type": "tuple"
        }
      ],
      "stateMutability": "nonpayable",
      "type": "function"
    },
    {
      "inputs": [
        {
          "internalType": "string",
          "name": "title",
          "type": "string"
        },
        {
          "internalType": "enum CondominiumLib.Options",
          "name": "option",
          "type": "uint8"
        }
      ],
      "name": "vote",
      "outputs": [],
      "stateMutability": "nonpayable",
      "type": "function"
    }
  ],
  "bytecode": "0x6080604052662386f26fc1000060015534801561001b57600080fd5b50600080546001600160a01b0319163217905560015b60028161ffff16116100bc5760015b60058161ffff16116100a95760015b60058161ffff16116100965761ffff6103e8840260648402018201166000908152600260205260409020805460ff191660011790558061008e816100c2565b91505061004f565b50806100a1816100c2565b915050610040565b50806100b4816100c2565b915050610031565b506100f1565b600061ffff821661ffff81036100e857634e487b7160e01b600052601160045260246000fd5b60010192915050565b61487e806101006000396000f3fe6080604052600436106101b75760003560e01c80637b57ee49116100ec578063a7107f021161008a578063bc2f89f311610064578063bc2f89f3146105b4578063c12e8063146105e4578063d5009584146105f7578063eaf5d9dc1461061557600080fd5b8063a7107f0214610547578063abeb376114610574578063b15835461461059457600080fd5b806390ca27f3116100c657806390ca27f3146104b3578063967d59e4146104d357806396fa1def146105075780639e1bf9851461052757600080fd5b80637b57ee4914610439578063805265e5146104665780638fc5dad81461049357600080fd5b8063481c6a751161015957806368aca3351161013357806368aca335146103a6578063783bb57d146103d657806378b5749d146103ec5780637932938b1461040c57600080fd5b8063481c6a751461032157806356ea46d914610359578063597de9871461038657600080fd5b80631df8ba77116101955780631df8ba771461027e5780632f9f21fe1461029d57806343b8c6b1146102d2578063474502d8146102f457600080fd5b80631283d0a0146101bc57806312cb70c71461021c57806318d9adab14610249575b600080fd5b3480156101c857600080fd5b506101dc6101d7366004613d2a565b610635565b604080516001600160a01b03909616865261ffff9094166020860152911515928401929092529015156060830152608082015260a0015b60405180910390f35b34801561022857600080fd5b5061023c610237366004613e3e565b6106c6565b6040516102139190613ee7565b34801561025557600080fd5b50610269610264366004613d2a565b61099d565b60405161021399989796959493929190613f83565b34801561028a57600080fd5b506001545b604051908152602001610213565b3480156102a957600080fd5b5061028f6102b8366004613fff565b805160209182012060009081526009909152604090205490565b3480156102de57600080fd5b506102f26102ed366004614058565b610b1c565b005b34801561030057600080fd5b5061031461030f366004613fff565b610ec5565b6040516102139190614193565b34801561032d57600080fd5b50600054610341906001600160a01b031681565b6040516001600160a01b039091168152602001610213565b34801561036557600080fd5b506103796103743660046141ad565b610ed6565b60405161021391906141cf565b34801561039257600080fd5b506102f26103a1366004614269565b6111c9565b3480156103b257600080fd5b506103c66103c1366004614269565b611513565b6040519015158152602001610213565b3480156103e257600080fd5b5061028f60015481565b3480156103f857600080fd5b506103c6610407366004613fff565b61152e565b34801561041857600080fd5b5061042c6104273660046141ad565b611545565b6040516102139190614284565b34801561044557600080fd5b50610459610454366004613fff565b61169c565b6040516102139190614327565b34801561047257600080fd5b50610486610481366004613fff565b611c3b565b6040516102139190614380565b34801561049f57600080fd5b506104596104ae366004613fff565b611d39565b3480156104bf57600080fd5b506102f26104ce3660046143fc565b61243e565b3480156104df57600080fd5b506103c66104ee366004614460565b61ffff1660009081526002602052604090205460ff1690565b34801561051357600080fd5b506102f261052236600461447b565b6129ab565b34801561053357600080fd5b50610459610542366004613fff565b6129c7565b34801561055357600080fd5b50610567610562366004614269565b612bf3565b60405161021391906144ac565b34801561058057600080fd5b5061034161058f366004613d2a565b612c27565b3480156105a057600080fd5b506102f26105af3660046144f6565b612c51565b3480156105c057600080fd5b506103c66105cf366004614460565b60026020526000908152604090205460ff1681565b6102f26105f2366004614460565b612f4f565b34801561060357600080fd5b506000546001600160a01b0316610341565b34801561062157600080fd5b50610459610630366004614529565b6130d3565b6003818154811061064557600080fd5b6000918252602090912060029091020180546001909101546001600160a01b038216925061ffff740100000000000000000000000000000000000000008304169160ff760100000000000000000000000000000000000000000000820481169277010000000000000000000000000000000000000000000000909204169085565b604080516060808201835260008083526020830152918101919091526000546001600160a01b031632146107415760405162461bcd60e51b815260206004820152601c60248201527f4f6e6c7920746865206d616e616765722063616e20646f20746869730000000060448201526064015b60405180910390fd5b814710156107915760405162461bcd60e51b815260206004820152601260248201527f496e73756666696369656e742066756e647300000000000000000000000000006044820152606401610738565b600061079c8461334e565b90506002816040015160058111156107b6576107b6613f27565b1480156107d8575060018160c0015160038111156107d6576107d6613f27565b145b61084a5760405162461bcd60e51b815260206004820152603460248201527f4f6e6c7920415050524f564544205350454e5420746f706963732063616e206260448201527f65207573656420666f72207472616e73666572730000000000000000000000006064820152608401610738565b828160e0015110156108c45760405162461bcd60e51b815260206004820152603460248201527f54686520616d6f756e74206d75737465206265206c657373206f72206571756160448201527f6c2074686520415050524f56454420746f7069630000000000000000000000006064820152608401610738565b8061010001516001600160a01b03166108fc849081150290604051600060405180830381858888f19350505050158015610902573d6000803e3d6000fd5b50835160208086019190912060008181526008909252604090912054600780546005919083908110610936576109366145ac565b60009182526020909120600260099092020101805460ff1916600183600581111561096357610963613f27565b021790555060405180606001604052808461010001516001600160a01b031681526020018681526020018781525093505050505b92915050565b600781815481106109ad57600080fd5b90600052602060002090600902016000915090508060000180546109d0906145db565b80601f01602080910402602001604051908101604052809291908181526020018280546109fc906145db565b8015610a495780601f10610a1e57610100808354040283529160200191610a49565b820191906000526020600020905b815481529060010190602001808311610a2c57829003601f168201915b505050505090806001018054610a5e906145db565b80601f0160208091040260200160405190810160405280929190818152602001828054610a8a906145db565b8015610ad75780601f10610aac57610100808354040283529160200191610ad7565b820191906000526020600020905b815481529060010190602001808311610aba57829003601f168201915b505050600284015460038501546004860154600587015460068801546007890154600890990154979860ff95861698949750929550909316916001600160a01b031689565b6000546001600160a01b03163214610c36576000546001600160a01b0316321480610b4b5750610b4b32611513565b610bbd5760405162461bcd60e51b815260206004820152602d60248201527f4f6e6c7920746865206d616e61676572206f7220746865207265736964656e7460448201527f732063616e20646f2074686973000000000000000000000000000000000000006064820152608401610738565b6000610bc832613607565b6000549091506001600160a01b0316321480610be8575080608001514211155b610c345760405162461bcd60e51b815260206004820152601e60248201527f546865207265736964656e74206d7573742062652064656661756c74657200006044820152606401610738565b505b610c3f8561152e565b15610c8c5760405162461bcd60e51b815260206004820152601960248201527f5468697320746f70696320616c726561647920657869737473000000000000006044820152606401610738565b8115610d0f576002836003811115610ca657610ca6613f27565b1480610cc357506001836003811115610cc157610cc1613f27565b145b610d0f5760405162461bcd60e51b815260206004820152600e60248201527f57726f6e672063617465676f72790000000000000000000000000000000000006044820152606401610738565b60408051610120810182528681526020810186905260009181018281526020014281526020016000815260200160008152602001856003811115610d5557610d55613f27565b8152602081018590526040016001600160a01b038416610d755732610d77565b835b6001600160a01b031690526007805488516020808b01919091206000908152600890915260408120829055600182018355919091528151919250829160099091027fa66cc928b5edb82af9bd49922954155ab7b0942694bea4ce44661d9a8736c68801908190610de7908261467d565b5060208201516001820190610dfc908261467d565b50604082015160028201805460ff19166001836005811115610e2057610e20613f27565b0217905550606082015181600301556080820151816004015560a0820151816005015560c08201518160060160006101000a81548160ff02191690836003811115610e6d57610e6d613f27565b021790555060e0820151600782015561010090910151600890910180547fffffffffffffffffffffffff0000000000000000000000000000000000000000166001600160a01b03909216919091179055505050505050565b610ecd613c81565b6109978261334e565b60408051808201909152606081526000602082015260008267ffffffffffffffff811115610f0657610f06613d43565b604051908082528060200260200182016040528015610f3f57816020015b610f2c613c81565b815260200190600190039081610f245790505b509050600083610f50600187614789565b610f5a919061479c565b90506000815b610f6a86846147b3565b81108015610f79575060075481105b156111aa5760078181548110610f9157610f916145ac565b906000526020600020906009020160405180610120016040529081600082018054610fbb906145db565b80601f0160208091040260200160405190810160405280929190818152602001828054610fe7906145db565b80156110345780601f1061100957610100808354040283529160200191611034565b820191906000526020600020905b81548152906001019060200180831161101757829003601f168201915b5050505050815260200160018201805461104d906145db565b80601f0160208091040260200160405190810160405280929190818152602001828054611079906145db565b80156110c65780601f1061109b576101008083540402835291602001916110c6565b820191906000526020600020905b8154815290600101906020018083116110a957829003601f168201915b5050509183525050600282015460209091019060ff1660058111156110ed576110ed613f27565b60058111156110fe576110fe613f27565b815260038281015460208301526004830154604083015260058301546060830152600683015460809092019160ff169081111561113d5761113d613f27565b600381111561114e5761114e613f27565b8152600782015460208201526008909101546001600160a01b0316604090910152848361117a816147c6565b94508151811061118c5761118c6145ac565b602002602001018190525080806111a2906147c6565b915050610f60565b5050604080518082019091529182525060075460208201529392505050565b6000546001600160a01b031632146112235760405162461bcd60e51b815260206004820152601c60248201527f4f6e6c7920746865206d616e616765722063616e20646f2074686973000000006044820152606401610738565b61122c81613770565b156112795760405162461bcd60e51b815260206004820152601d60248201527f4120636f756e73656c6f722063616e6e6f742062652072656d6f7665640000006044820152606401610738565b6001600160a01b0381166000908152600460205260409020546003546112a190600190614789565b81146114a15760038054600091906112bb90600190614789565b815481106112cb576112cb6145ac565b60009182526020918290206040805160a081018252600290930290910180546001600160a01b038116845261ffff740100000000000000000000000000000000000000008204169484019490945260ff76010000000000000000000000000000000000000000000085048116151592840192909252770100000000000000000000000000000000000000000000009093041615156060820152600190910154608082015260038054919250829184908110611388576113886145ac565b6000918252602080832084516002909302018054858301516040808801516060890151151577010000000000000000000000000000000000000000000000027fffffffffffffffff00ffffffffffffffffffffffffffffffffffffffffffffff91151576010000000000000000000000000000000000000000000002919091167fffffffffffffffff0000ffffffffffffffffffffffffffffffffffffffffffff61ffff90941674010000000000000000000000000000000000000000027fffffffffffffffffffff000000000000000000000000000000000000000000009095166001600160a01b03988916179490941792909216929092171782556080909501516001909101559351168152600490925290208190555b60038054806114b2576114b26147e0565b6000828152602080822060026000199094019384020180547fffffffffffffffff000000000000000000000000000000000000000000000000168155600101829055919092556001600160a01b039390931681526004909252506040812055565b60008061151f83613607565b6020015161ffff161192915050565b60008061153a8361334e565b606001511192915050565b60408051808201909152606081526000602082015260008267ffffffffffffffff81111561157557611575613d43565b6040519080825280602002602001820160405280156115ce57816020015b6040805160a0810182526000808252602080830182905292820181905260608201819052608082015282526000199092019101816115935790505b5090506000836115df600187614789565b6115e9919061479c565b90506000815b6115f986846147b3565b81108015611608575060035481105b1561167d5761164260038281548110611623576116236145ac565b60009182526020909120600290910201546001600160a01b0316613607565b848361164d816147c6565b94508151811061165f5761165f6145ac565b60200260200101819052508080611675906147c6565b9150506115ef565b5050604080518082019091529182525060035460208201529392505050565b6116c660408051608081018252600080825260606020830152909182019081526020016000905290565b6000546001600160a01b031632146117205760405162461bcd60e51b815260206004820152601c60248201527f4f6e6c7920746865206d616e616765722063616e20646f2074686973000000006044820152606401610738565b600061172b8361334e565b905060008160600151116117815760405162461bcd60e51b815260206004820152601960248201527f54686520746f70696320646f6573206e6f7420657869737473000000000000006044820152606401610738565b60008160400151600581111561179957611799613f27565b146117e65760405162461bcd60e51b815260206004820152601f60248201527f4f6e6c792049444c4520746f706963732063616e2062652072656d6f766564006044820152606401610738565b82516020808501919091206000818152600890925260409091205460075461181090600190614789565b8114611b3f57600780546000919061182a90600190614789565b8154811061183a5761183a6145ac565b906000526020600020906009020160405180610120016040529081600082018054611864906145db565b80601f0160208091040260200160405190810160405280929190818152602001828054611890906145db565b80156118dd5780601f106118b2576101008083540402835291602001916118dd565b820191906000526020600020905b8154815290600101906020018083116118c057829003601f168201915b505050505081526020016001820180546118f6906145db565b80601f0160208091040260200160405190810160405280929190818152602001828054611922906145db565b801561196f5780601f106119445761010080835404028352916020019161196f565b820191906000526020600020905b81548152906001019060200180831161195257829003601f168201915b5050509183525050600282015460209091019060ff16600581111561199657611996613f27565b60058111156119a7576119a7613f27565b815260038281015460208301526004830154604083015260058301546060830152600683015460809092019160ff16908111156119e6576119e6613f27565b60038111156119f7576119f7613f27565b815260078281015460208301526008909201546001600160a01b03166040909101528054919250829184908110611a3057611a306145ac565b600091825260209091208251600990920201908190611a4f908261467d565b5060208201516001820190611a64908261467d565b50604082015160028201805460ff19166001836005811115611a8857611a88613f27565b0217905550606082015181600301556080820151816004015560a0820151816005015560c08201518160060160006101000a81548160ff02191690836003811115611ad557611ad5613f27565b021790555060e0820151600782015561010090910151600891820180547fffffffffffffffffffffffff0000000000000000000000000000000000000000166001600160a01b03909216919091179055905180516020918201206000908152919052604090208190555b6007805480611b5057611b506147e0565b60008281526020812060001990920191600983020190611b708282613cdc565b611b7e600183016000613cdc565b5060028101805460ff1990811690915560006003830181905560048084018290556005840182905560068401805490931690925560078301819055600892830180547fffffffffffffffffffffffff0000000000000000000000000000000000000000169055929093558482526020908152604080832092909255815160808101835285815286519181019190915291908201905b81526020018460c001516003811115611c2e57611c2e613f27565b905293505050505b919050565b60606009600083805190602001208152602001908152602001600020805480602002602001604051908101604052809291908181526020016000905b82821015611d2e576000848152602090819020604080516080810182526002860290920180546001600160a01b038116845274010000000000000000000000000000000000000000810461ffff1694840194909452919290830190760100000000000000000000000000000000000000000000900460ff166003811115611d0057611d00613f27565b6003811115611d1157611d11613f27565b815260200160018201548152505081526020019060010190611c77565b505050509050919050565b611d6360408051608081018252600080825260606020830152909182019081526020016000905290565b6000546001600160a01b03163214611dbd5760405162461bcd60e51b815260206004820152601c60248201527f4f6e6c7920746865206d616e616765722063616e20646f2074686973000000006044820152606401610738565b6000611dc88361334e565b90506000816060015111611e1e5760405162461bcd60e51b815260206004820152601960248201527f54686520746f70696320646f6573206e6f7420657869737473000000000000006044820152606401610738565b600181604001516005811115611e3657611e36613f27565b14611ea95760405162461bcd60e51b815260206004820152602160248201527f4f6e6c7920564f5454494e4720746f706963732063616e20626520636c6f736560448201527f64000000000000000000000000000000000000000000000000000000000000006064820152608401610738565b600560018260c001516003811115611ec357611ec3613f27565b03611ed05750600a611f16565b60038260c001516003811115611ee857611ee8613f27565b03611ef55750600f611f16565b60028260c001516003811115611f0d57611f0d613f27565b03611f16575060145b8060ff16611f3885805160209182012060009081526009909152604090205490565b1015611fac5760405162461bcd60e51b815260206004820152603560248201527f596f752063616e6e6f742066696e697368206120766f74696e6720776869746860448201527f6f757420746865206d696e696d756d20766f74657300000000000000000000006064820152608401610738565b60008060008087805190602001209050600060096000838152602001908152602001600020805480602002602001604051908101604052809291908181526020016000905b828210156120a8576000848152602090819020604080516080810182526002860290920180546001600160a01b038116845274010000000000000000000000000000000000000000810461ffff1694840194909452919290830190760100000000000000000000000000000000000000000000900460ff16600381111561207a5761207a613f27565b600381111561208b5761208b613f27565b815260200160018201548152505081526020019060010190611ff1565b50505050905060005b81518160ff161015612173576001828260ff16815181106120d4576120d46145ac565b60200260200101516040015160038111156120f1576120f1613f27565b0361210857856121008161480f565b965050612161565b6002828260ff168151811061211f5761211f6145ac565b602002602001015160400151600381111561213c5761213c613f27565b03612153578461214b8161480f565b955050612161565b8361215d8161480f565b9450505b8061216b8161480f565b9150506120b1565b5060008460ff168660ff161161218a57600361218d565b60025b600084815260086020526040902054600780549293509091839190839081106121b8576121b86145ac565b60009182526020909120600260099092020101805460ff191660018360058111156121e5576121e5613f27565b021790555042600782815481106121fe576121fe6145ac565b6000918252602090912060056009909202010155600282600581111561222657612226613f27565b036123e95760028960c00151600381111561224357612243613f27565b036122555760e08901516001556123e9565b60038960c00151600381111561226d5761226d613f27565b036123e957600054612287906001600160a01b0316611513565b1561231457600080546001600160a01b03168152600460205260408120546003805490919081106122ba576122ba6145ac565b60009182526020909120600290910201805491151577010000000000000000000000000000000000000000000000027fffffffffffffffff00ffffffffffffffffffffffffffffffffffffffffffffff9092169190911790555b610100890151600080547fffffffffffffffffffffffff0000000000000000000000000000000000000000166001600160a01b03831617905561235690611513565b156123e9576101008901516001600160a01b03166000908152600460205260409020546003805460019290811061238f5761238f6145ac565b60009182526020909120600290910201805491151577010000000000000000000000000000000000000000000000027fffffffffffffffff00ffffffffffffffffffffffffffffffffffffffffffffff9092169190911790555b604080516080810182528581528a51602082015290810183600581111561241257612412613f27565b81526020018a60c00151600381111561242d5761242d613f27565b90529b9a5050505050505050505050565b6000546001600160a01b03163214612558576000546001600160a01b031632148061246d575061246d32611513565b6124df5760405162461bcd60e51b815260206004820152602d60248201527f4f6e6c7920746865206d616e61676572206f7220746865207265736964656e7460448201527f732063616e20646f2074686973000000000000000000000000000000000000006064820152608401610738565b60006124ea32613607565b6000549091506001600160a01b031632148061250a575080608001514211155b6125565760405162461bcd60e51b815260206004820152601e60248201527f546865207265736964656e74206d7573742062652064656661756c74657200006044820152606401610738565b505b600081600381111561256c5761256c613f27565b036125b95760405162461bcd60e51b815260206004820152601a60248201527f546865206f7074696f6e2063616e6e6f7420626520454d5054590000000000006044820152606401610738565b60006125c48361334e565b9050600081606001511161261a5760405162461bcd60e51b815260206004820152601960248201527f54686520746f70696320646f6573206e6f7420657869737473000000000000006044820152606401610738565b60018160400151600581111561263257612632613f27565b1461267f5760405162461bcd60e51b815260206004820152601f60248201527f4f6e6c7920564f54494e4720746f706963732063616e20626520766f746564006044820152606401610738565b326000908152600460205260408120546003805490919081106126a4576126a46145ac565b600091825260208083206002929092029091015486518783012080845260098352604080852080548251818702810187019093528083527401000000000000000000000000000000000000000090940461ffff169650919493909290849084015b828210156127bc576000848152602090819020604080516080810182526002860290920180546001600160a01b038116845274010000000000000000000000000000000000000000810461ffff1694840194909452919290830190760100000000000000000000000000000000000000000000900460ff16600381111561278e5761278e613f27565b600381111561279f5761279f613f27565b815260200160018201548152505081526020019060010190612705565b50505050905060005b81518160ff161015612880578361ffff16828260ff16815181106127eb576127eb6145ac565b60200260200101516020015161ffff160361286e5760405162461bcd60e51b815260206004820152602160248201527f41207265736964656e63652073686f756c6420766f7465206f6e6c79206f6e6360448201527f65000000000000000000000000000000000000000000000000000000000000006064820152608401610738565b806128788161480f565b9150506127c5565b506040805160808101825232815261ffff8516602082015260009181018760038111156128af576128af613f27565b8152426020918201526000858152600982526040808220805460018101825590835291839020845160029093020180549385015161ffff1674010000000000000000000000000000000000000000027fffffffffffffffffffff000000000000000000000000000000000000000000009094166001600160a01b039093169290921792909217808255918301519293508392909182907fffffffffffffffffff00ffffffffffffffffffffffffffffffffffffffffffff1676010000000000000000000000000000000000000000000083600381111561299157612991613f27565b021790555060608201518160010155505050505050505050565b80156129be576129ba826137cf565b5050565b6129ba826139b7565b6129f160408051608081018252600080825260606020830152909182019081526020016000905290565b6000546001600160a01b03163214612a4b5760405162461bcd60e51b815260206004820152601c60248201527f4f6e6c7920746865206d616e616765722063616e20646f2074686973000000006044820152606401610738565b6000612a568361334e565b90506000816060015111612aac5760405162461bcd60e51b815260206004820152601960248201527f54686520746f70696320646f6573206e6f7420657869737473000000000000006044820152606401610738565b600081604001516005811115612ac457612ac4613f27565b14612b375760405162461bcd60e51b815260206004820152602760248201527f4f6e6c792049444c4520746f706963732063616e206265206f70656e20666f7260448201527f20766f74696e67000000000000000000000000000000000000000000000000006064820152608401610738565b825160208085019190912060008181526008909252604090912054600780546001919083908110612b6a57612b6a6145ac565b60009182526020909120600260099092020101805460ff19166001836005811115612b9757612b97613f27565b02179055504260078281548110612bb057612bb06145ac565b90600052602060002090600902016004018190555060405180608001604052808381526020018460000151815260200160016005811115611c1357611c13613f27565b6040805160a08101825260008082526020820181905291810182905260608101829052608081019190915261099782613607565b60058181548110612c3757600080fd5b6000918252602090912001546001600160a01b0316905081565b6000546001600160a01b0316321480612c6e5750612c6e32613770565b612ce05760405162461bcd60e51b815260206004820152602f60248201527f54686973204f6e6c7920746865206d616e61676572206f7220436f756e73656c60448201527f6f72732063616e20646f207468697300000000000000000000000000000000006064820152608401610738565b816001600160a01b038116612d375760405162461bcd60e51b815260206004820152600f60248201527f496e76616c6964206164647265737300000000000000000000000000000000006044820152606401610738565b61ffff821660009081526002602052604090205460ff16612d9a5760405162461bcd60e51b815260206004820152601e60248201527f54686973207265736964656e636520646f6573206e6f742065786973747300006044820152606401610738565b6040805160a0810182526001600160a01b0380861680835261ffff808716602085019081526000958501868152865485169093146060860190815260808601878152600380546001818101835591909952965160029098027fc2575a0e9e593c00f959f8c92f12db2869c3395a3b0502d05e2516446f71f85b81018054945196519351151577010000000000000000000000000000000000000000000000027fffffffffffffffff00ffffffffffffffffffffffffffffffffffffffffffffff94151576010000000000000000000000000000000000000000000002949094167fffffffffffffffff0000ffffffffffffffffffffffffffffffffffffffffffff9790961674010000000000000000000000000000000000000000027fffffffffffffffffffff00000000000000000000000000000000000000000000909516999097169890981792909217939093169190911791909117909155517fc2575a0e9e593c00f959f8c92f12db2869c3395a3b0502d05e2516446f71f85c90920191909155612f28908361482e565b6001600160a01b03909316600090815260046020526040902061ffff939093169092555050565b61ffff811660009081526002602052604090205460ff16612fb25760405162461bcd60e51b815260206004820152601d60248201527f546865207265736964656e636520646f6573206e6f74206578697374730000006044820152606401610738565b6001543410156130045760405162461bcd60e51b815260206004820152600b60248201527f57726f6e672076616c75650000000000000000000000000000000000000000006044820152606401610738565b61ffff811660009081526006602052604090205442116130665760405162461bcd60e51b815260206004820152601c60248201527f596f752063616e6e6f74207061792074776963652061206d6f6e7468000000006044820152606401610738565b61ffff811660009081526006602052604081205490036130a45761308d62278d00426147b3565b61ffff821660009081526006602052604090205550565b61ffff81166000908152600660205260408120805462278d0092906130ca9084906147b3565b90915550505b50565b6130fd60408051608081018252600080825260606020830152909182019081526020016000905290565b6000546001600160a01b031632146131575760405162461bcd60e51b815260206004820152601c60248201527f4f6e6c7920746865206d616e616765722063616e20646f2074686973000000006044820152606401610738565b60006131628661334e565b905060008160600151116131b85760405162461bcd60e51b815260206004820152601a60248201527f5468697320746f70696320646f6573206e6f74206578697374730000000000006044820152606401610738565b6000816040015160058111156131d0576131d0613f27565b1461321d5760405162461bcd60e51b815260206004820152601e60248201527f4f6e6c792049444c4520746f706963732063616e2062652065646974656400006044820152606401610738565b855160208088019190912060008181526008909252604090912054865115613272578660078281548110613253576132536145ac565b90600052602060002090600902016001019081613270919061467d565b505b8560078281548110613286576132866145ac565b9060005260206000209060090201600701819055506001600160a01b038516156132f45784600782815481106132be576132be6145ac565b906000526020600020906009020160080160006101000a8154816001600160a01b0302191690836001600160a01b031602179055505b6040518060800160405280838152602001846000015181526020018460400151600581111561332557613325613f27565b81526020018460c00151600381111561334057613340613f27565b905298975050505050505050565b613356613c81565b81516020808401919091206000818152600890925260409091205460075481101561359557600060078281548110613390576133906145ac565b9060005260206000209060090201604051806101200160405290816000820180546133ba906145db565b80601f01602080910402602001604051908101604052809291908181526020018280546133e6906145db565b80156134335780601f1061340857610100808354040283529160200191613433565b820191906000526020600020905b81548152906001019060200180831161341657829003601f168201915b5050505050815260200160018201805461344c906145db565b80601f0160208091040260200160405190810160405280929190818152602001828054613478906145db565b80156134c55780601f1061349a576101008083540402835291602001916134c5565b820191906000526020600020905b8154815290600101906020018083116134a857829003601f168201915b5050509183525050600282015460209091019060ff1660058111156134ec576134ec613f27565b60058111156134fd576134fd613f27565b815260038281015460208301526004830154604083015260058301546060830152600683015460809092019160ff169081111561353c5761353c613f27565b600381111561354d5761354d613f27565b8152600782015460208201526008909101546001600160a01b031660409091015290508115158061358657508051805160209091012083145b1561359357949350505050565b505b60408051610140810182526000610120820181815282528251602081810185529181529082015290810160048152602001600081526020016000815260200160008152602001600060038111156135ee576135ee613f27565b8152600060208201819052604090910152949350505050565b6040805160a0810182526000808252602080830182905282840182905260608301829052608083018290526001600160a01b038516825260049052919091205460035481101561373e57600060038281548110613666576136666145ac565b60009182526020918290206040805160a081018252600290930290910180546001600160a01b0380821680865261ffff740100000000000000000000000000000000000000008404169686019690965260ff7601000000000000000000000000000000000000000000008304811615159486019490945277010000000000000000000000000000000000000000000000909104909216151560608401526001015460808301529092508516900361373c5760208082015161ffff1660009081526006909152604090205460808201529392505050565b505b50506040805160a081018252600080825260208201819052918101829052606081018290526080810191909152919050565b6000805b6005548110156137c657826001600160a01b03166005828154811061379b5761379b6145ac565b6000918252602090912001546001600160a01b0316036137be5750600192915050565b600101613774565b50600092915050565b6000546001600160a01b031632146138295760405162461bcd60e51b815260206004820152601c60248201527f4f6e6c7920746865206d616e616765722063616e20646f2074686973000000006044820152606401610738565b806001600160a01b0381166138805760405162461bcd60e51b815260206004820152600f60248201527f496e76616c6964206164647265737300000000000000000000000000000000006044820152606401610738565b61388982611513565b6138d55760405162461bcd60e51b815260206004820181905260248201527f54686520636f756e73656c6f72206d7573742062652061207265736964656e746044820152606401610738565b6005805460018082019092557f036b6384b5eca791c62761152d0c79bb0604c104a5fb6f4eb0703f3154bb3db00180547fffffffffffffffffffffffff0000000000000000000000000000000000000000166001600160a01b03851690811790915560009081526004602052604090205460038054909190811061395b5761395b6145ac565b600091825260209091206002909102018054911515760100000000000000000000000000000000000000000000027fffffffffffffffffff00ffffffffffffffffffffffffffffffffffffffffffff9092169190911790555050565b6000546001600160a01b03163214613a115760405162461bcd60e51b815260206004820152601c60248201527f4f6e6c7920746865206d616e616765722063616e20646f2074686973000000006044820152606401610738565b806001600160a01b038116613a685760405162461bcd60e51b815260206004820152600f60248201527f496e76616c6964206164647265737300000000000000000000000000000000006044820152606401610738565b620186a060005b600554811015613ac057836001600160a01b031660058281548110613a9657613a966145ac565b6000918252602090912001546001600160a01b031603613ab857809150613ac0565b600101613a6f565b5080620186a003613b135760405162461bcd60e51b815260206004820152601360248201527f436f756e73656c6f72206e6f7420666f756e64000000000000000000000000006044820152606401610738565b600554613b2290600190614789565b8114613bab576005805460009190613b3c90600190614789565b81548110613b4c57613b4c6145ac565b600091825260209091200154600580546001600160a01b039092169250829184908110613b7b57613b7b6145ac565b9060005260206000200160006101000a8154816001600160a01b0302191690836001600160a01b03160217905550505b6005805480613bbc57613bbc6147e0565b60008281526020808220830160001990810180547fffffffffffffffffffffffff00000000000000000000000000000000000000001690559092019092556001600160a01b0385168252600490526040812054600380549091908110613c2457613c246145ac565b600091825260209091206002909102018054911515760100000000000000000000000000000000000000000000027fffffffffffffffffff00ffffffffffffffffffffffffffffffffffffffffffff909216919091179055505050565b6040805161012081018252606080825260208201529081016000815260200160008152602001600081526020016000815260200160006003811115613cc857613cc8613f27565b815260006020820181905260409091015290565b508054613ce8906145db565b6000825580601f10613cf8575050565b601f0160209004906000526020600020908101906130d091905b80821115613d265760008155600101613d12565b5090565b600060208284031215613d3c57600080fd5b5035919050565b7f4e487b7100000000000000000000000000000000000000000000000000000000600052604160045260246000fd5b600082601f830112613d8357600080fd5b813567ffffffffffffffff811115613d9d57613d9d613d43565b6040517fffffffffffffffffffffffffffffffffffffffffffffffffffffffffffffffe0603f7fffffffffffffffffffffffffffffffffffffffffffffffffffffffffffffffe0601f8501160116810181811067ffffffffffffffff82111715613e0957613e09613d43565b604052818152838201602001851015613e2157600080fd5b816020850160208301376000918101602001919091529392505050565b60008060408385031215613e5157600080fd5b823567ffffffffffffffff811115613e6857600080fd5b613e7485828601613d72565b95602094909401359450505050565b6000815180845260005b81811015613ea957602081850181015186830182015201613e8d565b5060006020828601015260207fffffffffffffffffffffffffffffffffffffffffffffffffffffffffffffffe0601f83011685010191505092915050565b602081526001600160a01b0382511660208201526020820151604082015260006040830151606080840152613f1f6080840182613e83565b949350505050565b7f4e487b7100000000000000000000000000000000000000000000000000000000600052602160045260246000fd5b60068110613f6657613f66613f27565b9052565b600481106130d0576130d0613f27565b613f6681613f6a565b61012081526000613f9861012083018c613e83565b8281036020840152613faa818c613e83565b915050613fba604083018a613f56565b8760608301528660808301528560a0830152613fd585613f6a565b8460c08301528360e08301526001600160a01b0383166101008301529a9950505050505050505050565b60006020828403121561401157600080fd5b813567ffffffffffffffff81111561402857600080fd5b613f1f84828501613d72565b600481106130d057600080fd5b80356001600160a01b0381168114611c3657600080fd5b600080600080600060a0868803121561407057600080fd5b853567ffffffffffffffff81111561408757600080fd5b61409388828901613d72565b955050602086013567ffffffffffffffff8111156140b057600080fd5b6140bc88828901613d72565b94505060408601356140cd81614034565b9250606086013591506140e260808701614041565b90509295509295909350565b600081516101208452614105610120850182613e83565b90506020830151848203602086015261411e8282613e83565b91505060408301516141336040860182613f56565b50606083015160608501526080830151608085015260a083015160a085015260c083015161416460c0860182613f7a565b5060e083015160e085015261010083015161418b6101008601826001600160a01b03169052565b509392505050565b6020815260006141a660208301846140ee565b9392505050565b600080604083850312156141c057600080fd5b50508035926020909101359150565b6020815260006060820183516040602085015281815180845260808601915060808160051b870101935060208301925060005b81811015614251577fffffffffffffffffffffffffffffffffffffffffffffffffffffffffffffff8087860301835261423c8585516140ee565b94506020938401939290920191600101614202565b50505050602084015160408401528091505092915050565b60006020828403121561427b57600080fd5b6141a682614041565b602080825282516040838301528051606084018190526000929190910190829060808501905b80831015614310576142f98285516001600160a01b03815116825261ffff6020820151166020830152604081015115156040830152606081015115156060830152608081015160808301525050565b60a0820191506020840193506001830192506142aa565b506020860151604086015280935050505092915050565b6020815281516020820152600060208301516080604084015261434d60a0840182613e83565b905060408401516143616060850182613f56565b50606084015161437081613f6a565b6080939093019290925250919050565b602080825282518282018190526000918401906040840190835b818110156143f15783516001600160a01b03815116845261ffff602082015116602085015260408101516143cd81613f6a565b6040850152606090810151908401526020939093019260809092019160010161439a565b509095945050505050565b6000806040838503121561440f57600080fd5b823567ffffffffffffffff81111561442657600080fd5b61443285828601613d72565b925050602083013561444381614034565b809150509250929050565b803561ffff81168114611c3657600080fd5b60006020828403121561447257600080fd5b6141a68261444e565b6000806040838503121561448e57600080fd5b61449783614041565b91506020830135801515811461444357600080fd5b60a0810161099782846001600160a01b03815116825261ffff6020820151166020830152604081015115156040830152606081015115156060830152608081015160808301525050565b6000806040838503121561450957600080fd5b61451283614041565b91506145206020840161444e565b90509250929050565b6000806000806080858703121561453f57600080fd5b843567ffffffffffffffff81111561455657600080fd5b61456287828801613d72565b945050602085013567ffffffffffffffff81111561457f57600080fd5b61458b87828801613d72565b935050604085013591506145a160608601614041565b905092959194509250565b7f4e487b7100000000000000000000000000000000000000000000000000000000600052603260045260246000fd5b600181811c908216806145ef57607f821691505b602082108103614628577f4e487b7100000000000000000000000000000000000000000000000000000000600052602260045260246000fd5b50919050565b601f82111561467857806000526020600020601f840160051c810160208510156146555750805b601f840160051c820191505b818110156146755760008155600101614661565b50505b505050565b815167ffffffffffffffff81111561469757614697613d43565b6146ab816146a584546145db565b8461462e565b6020601f8211600181146146df57600083156146c75750848201515b600019600385901b1c1916600184901b178455614675565b6000848152602081207fffffffffffffffffffffffffffffffffffffffffffffffffffffffffffffffe08516915b8281101561472d578785015182556020948501946001909201910161470d565b508482101561474b5786840151600019600387901b60f8161c191681555b50505050600190811b01905550565b7f4e487b7100000000000000000000000000000000000000000000000000000000600052601160045260246000fd5b818103818111156109975761099761475a565b80820281158282048414176109975761099761475a565b808201808211156109975761099761475a565b600060001982036147d9576147d961475a565b5060010190565b7f4e487b7100000000000000000000000000000000000000000000000000000000600052603160045260246000fd5b600060ff821660ff81036148255761482561475a565b60010192915050565b61ffff82811682821603908111156109975761099761475a56fea26469706673582212209daf888766167d0ff07ec3e5c3131934aba7d82d44156d2a63f5af14f97f6dbc64736f6c634300081c0033",
  "linkReferences": {},
  "deployedLinkReferences": {}
}