{
  "_format": "hh-sol-artifact-1",
  "contractName": "CondominiumAdapter",
  "sourceName": "contracts/CondominiumAdapter.sol",
  "abi": [
    {
      "inputs": [],
      "stateMutability": "nonpayable",
      "type": "constructor"
    },
    {
      "anonymous": false,
      "inputs": [
        {
          "indexed": false,
          "internalType": "address",
          "name": "manager",
          "type": "address"
        }
      ],
      "name": "ManagerChanged",
      "type": "event"
    },
    {
      "anonymous": false,
      "inputs": [
        {
          "indexed": false,
          "internalType": "uint256",
          "name": "amount",
          "type": "uint256"
        }
      ],
      "name": "QuotaChanged",
      "type": "event"
    },
    {
      "anonymous": false,
      "inputs": [
        {
          "indexed": true,
          "internalType": "bytes32",
          "name": "topicId",
          "type": "bytes32"
        },
        {
          "indexed": false,
          "internalType": "string",
          "name": "title",
          "type": "string"
        },
        {
          "indexed": true,
          "internalType": "enum CondominiumLib.Status",
          "name": "status",
          "type": "uint8"
        }
      ],
      "name": "TopicChanged",
      "type": "event"
    },
    {
      "anonymous": false,
      "inputs": [
        {
          "indexed": false,
          "internalType": "address",
          "name": "to",
          "type": "address"
        },
        {
          "indexed": true,
          "internalType": "uint256",
          "name": "amount",
          "type": "uint256"
        },
        {
          "indexed": false,
          "internalType": "string",
          "name": "topic",
          "type": "string"
        }
      ],
      "name": "Transfer",
      "type": "event"
    },
    {
      "inputs": [
        {
          "internalType": "address",
          "name": "resident",
          "type": "address"
        },
        {
          "internalType": "uint16",
          "name": "residenceId",
          "type": "uint16"
        }
      ],
      "name": "addResident",
      "outputs": [],
      "stateMutability": "nonpayable",
      "type": "function"
    },
    {
      "inputs": [
        {
          "internalType": "string",
          "name": "title",
          "type": "string"
        },
        {
          "internalType": "string",
          "name": "description",
          "type": "string"
        },
        {
          "internalType": "enum CondominiumLib.Category",
          "name": "category",
          "type": "uint8"
        },
        {
          "internalType": "uint256",
          "name": "amount",
          "type": "uint256"
        },
        {
          "internalType": "address",
          "name": "responsible",
          "type": "address"
        }
      ],
      "name": "addTopic",
      "outputs": [],
      "stateMutability": "nonpayable",
      "type": "function"
    },
    {
      "inputs": [
        {
          "internalType": "string",
          "name": "title",
          "type": "string"
        }
      ],
      "name": "closeVoting",
      "outputs": [],
      "stateMutability": "nonpayable",
      "type": "function"
    },
    {
      "inputs": [
        {
          "internalType": "string",
          "name": "topicToEdit",
          "type": "string"
        },
        {
          "internalType": "string",
          "name": "description",
          "type": "string"
        },
        {
          "internalType": "uint256",
          "name": "amount",
          "type": "uint256"
        },
        {
          "internalType": "address",
          "name": "responsible",
          "type": "address"
        }
      ],
      "name": "editTopic",
      "outputs": [],
      "stateMutability": "nonpayable",
      "type": "function"
    },
    {
      "inputs": [],
      "name": "getImplAddress",
      "outputs": [
        {
          "internalType": "address",
          "name": "",
          "type": "address"
        }
      ],
      "stateMutability": "view",
      "type": "function"
    },
    {
      "inputs": [],
      "name": "getManager",
      "outputs": [
        {
          "internalType": "address",
          "name": "",
          "type": "address"
        }
      ],
      "stateMutability": "view",
      "type": "function"
    },
    {
      "inputs": [],
      "name": "getQuota",
      "outputs": [
        {
          "internalType": "uint256",
          "name": "",
          "type": "uint256"
        }
      ],
      "stateMutability": "view",
      "type": "function"
    },
    {
      "inputs": [
        {
          "internalType": "address",
          "name": "resident",
          "type": "address"
        }
      ],
      "name": "getResident",
      "outputs": [
        {
          "components": [
            {
              "internalType": "address",
              "name": "wallet",
              "type": "address"
            },
            {
              "internalType": "uint16",
              "name": "residence",
              "type": "uint16"
            },
            {
              "internalType": "bool",
              "name": "isCounselor",
              "type": "bool"
            },
            {
              "internalType": "bool",
              "name": "isManager",
              "type": "bool"
            },
            {
              "internalType": "uint256",
              "name": "nextPayment",
              "type": "uint256"
            }
          ],
          "internalType": "struct CondominiumLib.Resident",
          "name": "",
          "type": "tuple"
        }
      ],
      "stateMutability": "view",
      "type": "function"
    },
    {
      "inputs": [
        {
          "internalType": "uint256",
          "name": "page",
          "type": "uint256"
        },
        {
          "internalType": "uint256",
          "name": "pageSize",
          "type": "uint256"
        }
      ],
      "name": "getResidents",
      "outputs": [
        {
          "components": [
            {
              "components": [
                {
                  "internalType": "address",
                  "name": "wallet",
                  "type": "address"
                },
                {
                  "internalType": "uint16",
                  "name": "residence",
                  "type": "uint16"
                },
                {
                  "internalType": "bool",
                  "name": "isCounselor",
                  "type": "bool"
                },
                {
                  "internalType": "bool",
                  "name": "isManager",
                  "type": "bool"
                },
                {
                  "internalType": "uint256",
                  "name": "nextPayment",
                  "type": "uint256"
                }
              ],
              "internalType": "struct CondominiumLib.Resident[]",
              "name": "residents",
              "type": "tuple[]"
            },
            {
              "internalType": "uint256",
              "name": "total",
              "type": "uint256"
            }
          ],
          "internalType": "struct CondominiumLib.ResidentPage",
          "name": "",
          "type": "tuple"
        }
      ],
      "stateMutability": "view",
      "type": "function"
    },
    {
      "inputs": [
        {
          "internalType": "string",
          "name": "title",
          "type": "string"
        }
      ],
      "name": "getTopic",
      "outputs": [
        {
          "components": [
            {
              "internalType": "string",
              "name": "title",
              "type": "string"
            },
            {
              "internalType": "string",
              "name": "description",
              "type": "string"
            },
            {
              "internalType": "enum CondominiumLib.Status",
              "name": "status",
              "type": "uint8"
            },
            {
              "internalType": "uint256",
              "name": "createdDate",
              "type": "uint256"
            },
            {
              "internalType": "uint256",
              "name": "startdDate",
              "type": "uint256"
            },
            {
              "internalType": "uint256",
              "name": "endDate",
              "type": "uint256"
            },
            {
              "internalType": "enum CondominiumLib.Category",
              "name": "category",
              "type": "uint8"
            },
            {
              "internalType": "uint256",
              "name": "amount",
              "type": "uint256"
            },
            {
              "internalType": "address",
              "name": "responsible",
              "type": "address"
            }
          ],
          "internalType": "struct CondominiumLib.Topic",
          "name": "",
          "type": "tuple"
        }
      ],
      "stateMutability": "view",
      "type": "function"
    },
    {
      "inputs": [
        {
          "internalType": "uint256",
          "name": "page",
          "type": "uint256"
        },
        {
          "internalType": "uint256",
          "name": "pageSize",
          "type": "uint256"
        }
      ],
      "name": "getTopics",
      "outputs": [
        {
          "components": [
            {
              "components": [
                {
                  "internalType": "string",
                  "name": "title",
                  "type": "string"
                },
                {
                  "internalType": "string",
                  "name": "description",
                  "type": "string"
                },
                {
                  "internalType": "enum CondominiumLib.Status",
                  "name": "status",
                  "type": "uint8"
                },
                {
                  "internalType": "uint256",
                  "name": "createdDate",
                  "type": "uint256"
                },
                {
                  "internalType": "uint256",
                  "name": "startdDate",
                  "type": "uint256"
                },
                {
                  "internalType": "uint256",
                  "name": "endDate",
                  "type": "uint256"
                },
                {
                  "internalType": "enum CondominiumLib.Category",
                  "name": "category",
                  "type": "uint8"
                },
                {
                  "internalType": "uint256",
                  "name": "amount",
                  "type": "uint256"
                },
                {
                  "internalType": "address",
                  "name": "responsible",
                  "type": "address"
                }
              ],
              "internalType": "struct CondominiumLib.Topic[]",
              "name": "topics",
              "type": "tuple[]"
            },
            {
              "internalType": "uint256",
              "name": "total",
              "type": "uint256"
            }
          ],
          "internalType": "struct CondominiumLib.TopicPage",
          "name": "",
          "type": "tuple"
        }
      ],
      "stateMutability": "view",
      "type": "function"
    },
    {
      "inputs": [
        {
          "internalType": "string",
          "name": "topicTitle",
          "type": "string"
        }
      ],
      "name": "getVotes",
      "outputs": [
        {
          "components": [
            {
              "internalType": "address",
              "name": "resident",
              "type": "address"
            },
            {
              "internalType": "uint16",
              "name": "residence",
              "type": "uint16"
            },
            {
              "internalType": "enum CondominiumLib.Options",
              "name": "option",
              "type": "uint8"
            },
            {
              "internalType": "uint256",
              "name": "timestamp",
              "type": "uint256"
            }
          ],
          "internalType": "struct CondominiumLib.Vote[]",
          "name": "",
          "type": "tuple[]"
        }
      ],
      "stateMutability": "view",
      "type": "function"
    },
    {
      "inputs": [
        {
          "internalType": "string",
          "name": "title",
          "type": "string"
        }
      ],
      "name": "openVoting",
      "outputs": [],
      "stateMutability": "nonpayable",
      "type": "function"
    },
    {
      "inputs": [],
      "name": "owner",
      "outputs": [
        {
          "internalType": "address",
          "name": "",
          "type": "address"
        }
      ],
      "stateMutability": "view",
      "type": "function"
    },
    {
      "inputs": [
        {
          "internalType": "uint16",
          "name": "residenceId",
          "type": "uint16"
        }
      ],
      "name": "payQuota",
      "outputs": [],
      "stateMutability": "payable",
      "type": "function"
    },
    {
      "inputs": [
        {
          "internalType": "address",
          "name": "resident",
          "type": "address"
        }
      ],
      "name": "removeResident",
      "outputs": [],
      "stateMutability": "nonpayable",
      "type": "function"
    },
    {
      "inputs": [
        {
          "internalType": "string",
          "name": "title",
          "type": "string"
        }
      ],
      "name": "removeTopic",
      "outputs": [],
      "stateMutability": "nonpayable",
      "type": "function"
    },
    {
      "inputs": [
        {
          "internalType": "address",
          "name": "resident",
          "type": "address"
        },
        {
          "internalType": "bool",
          "name": "isEntering",
          "type": "bool"
        }
      ],
      "name": "setCounselor",
      "outputs": [],
      "stateMutability": "nonpayable",
      "type": "function"
    },
    {
      "inputs": [
        {
          "internalType": "string",
          "name": "topicTitle",
          "type": "string"
        },
        {
          "internalType": "uint256",
          "name": "amount",
          "type": "uint256"
        }
      ],
      "name": "transfer",
      "outputs": [],
      "stateMutability": "nonpayable",
      "type": "function"
    },
    {
      "inputs": [
        {
          "internalType": "address",
          "name": "newImplementation",
          "type": "address"
        }
      ],
      "name": "upgrade",
      "outputs": [],
      "stateMutability": "nonpayable",
      "type": "function"
    },
    {
      "inputs": [
        {
          "internalType": "string",
          "name": "title",
          "type": "string"
        },
        {
          "internalType": "enum CondominiumLib.Options",
          "name": "option",
          "type": "uint8"
        }
      ],
      "name": "vote",
      "outputs": [],
      "stateMutability": "nonpayable",
      "type": "function"
    }
  ],
  "bytecode": "0x60a0604052348015600f57600080fd5b50336080526080516127a761003660003960008181610331015261047301526127a76000f3fe60806040526004361061016a5760003560e01c8063805265e5116100cb5780639e1bf9851161007f578063c12e806311610059578063c12e806314610420578063d500958414610433578063eaf5d9dc1461044857600080fd5b80639e1bf985146103b3578063a7107f02146103d3578063b15835461461040057600080fd5b80638fc5dad8116100b05780638fc5dad81461035357806390ca27f31461037357806396fa1def1461039357600080fd5b8063805265e5146102f25780638da5cb5b1461031f57600080fd5b806356ea46d9116101225780637311ad81116101075780637311ad81146102735780637932938b146102a55780637b57ee49146102d257600080fd5b806356ea46d914610226578063597de9871461025357600080fd5b80631df8ba77116101535780631df8ba77146101b157806343b8c6b1146101d9578063474502d8146101f957600080fd5b80630900f0101461016f57806312cb70c714610191575b600080fd5b34801561017b57600080fd5b5061018f61018a366004611835565b610468565b005b34801561019d57600080fd5b5061018f6101ac3660046119a7565b610575565b3480156101bd57600080fd5b506101c66106ad565b6040519081526020015b60405180910390f35b3480156101e557600080fd5b5061018f6101f43660046119f9565b610780565b34801561020557600080fd5b50610219610214366004611a93565b610863565b6040516101d09190611c21565b34801561023257600080fd5b50610246610241366004611c34565b610959565b6040516101d09190611c56565b34801561025f57600080fd5b5061018f61026e366004611835565b610a60565b34801561027f57600080fd5b506000546001600160a01b03165b6040516001600160a01b0390911681526020016101d0565b3480156102b157600080fd5b506102c56102c0366004611c34565b610ad4565b6040516101d09190611cf0565b3480156102de57600080fd5b5061018f6102ed366004611a93565b610bd2565b3480156102fe57600080fd5b5061031261030d366004611a93565b610d14565b6040516101d09190611d93565b34801561032b57600080fd5b5061028d7f000000000000000000000000000000000000000000000000000000000000000081565b34801561035f57600080fd5b5061018f61036e366004611a93565b610dfd565b34801561037f57600080fd5b5061018f61038e366004611e0f565b611113565b34801561039f57600080fd5b5061018f6103ae366004611e6f565b6111ec565b3480156103bf57600080fd5b5061018f6103ce366004611a93565b611297565b3480156103df57600080fd5b506103f36103ee366004611835565b611339565b6040516101d09190611e9d565b34801561040c57600080fd5b5061018f61041b366004611ef7565b611441565b61018f61042e366004611f25565b6114ee565b34801561043f57600080fd5b5061028d6115ac565b34801561045457600080fd5b5061018f610463366004611f42565b61167a565b336001600160a01b037f000000000000000000000000000000000000000000000000000000000000000016146104e55760405162461bcd60e51b815260206004820152601a60248201527f596f7520646f206e6f742068617665207065726d697373696f6e00000000000060448201526064015b60405180910390fd5b6001600160a01b03811661053b5760405162461bcd60e51b815260206004820152600f60248201527f496e76616c69642061646472657373000000000000000000000000000000000060448201526064016104dc565b600080547fffffffffffffffffffffffff0000000000000000000000000000000000000000166001600160a01b0392909216919091179055565b6000546001600160a01b03166105cd5760405162461bcd60e51b815260206004820152601660248201527f596f75206d75737420757067726164652066697273740000000000000000000060448201526064016104dc565b600080546040517f12cb70c70000000000000000000000000000000000000000000000000000000081526001600160a01b03909116906312cb70c7906106199086908690600401611fc7565b6000604051808303816000875af1158015610638573d6000803e3d6000fd5b505050506040513d6000823e601f3d908101601f191682016040526106609190810190612039565b905080602001517feb10b79f28ae0b520cb7ee8e40115f547bfac852d7167a55d9ae8e028ee23a11826000015183604001516040516106a09291906120e5565b60405180910390a2505050565b600080546001600160a01b03166107065760405162461bcd60e51b815260206004820152601660248201527f596f75206d75737420757067726164652066697273740000000000000000000060448201526064016104dc565b60008054906101000a90046001600160a01b03166001600160a01b0316631df8ba776040518163ffffffff1660e01b8152600401602060405180830381865afa158015610757573d6000803e3d6000fd5b505050506040513d601f19601f8201168201806040525081019061077b9190612107565b905090565b6000546001600160a01b03166107d85760405162461bcd60e51b815260206004820152601660248201527f596f75206d75737420757067726164652066697273740000000000000000000060448201526064016104dc565b6000546040517f43b8c6b10000000000000000000000000000000000000000000000000000000081526001600160a01b03909116906343b8c6b1906108299088908890889088908890600401612120565b600060405180830381600087803b15801561084357600080fd5b505af1158015610857573d6000803e3d6000fd5b505050505b5050505050565b61086b6117c5565b6000546001600160a01b03166108c35760405162461bcd60e51b815260206004820152601660248201527f596f75206d75737420757067726164652066697273740000000000000000000060448201526064016104dc565b6000546040517f474502d80000000000000000000000000000000000000000000000000000000081526001600160a01b039091169063474502d89061090c908590600401612176565b600060405180830381865afa158015610929573d6000803e3d6000fd5b505050506040513d6000823e601f3d908101601f191682016040526109519190810190612275565b90505b919050565b6040805180820190915260608152600060208201526000546001600160a01b03166109c65760405162461bcd60e51b815260206004820152601660248201527f596f75206d75737420757067726164652066697273740000000000000000000060448201526064016104dc565b6000546040517f56ea46d900000000000000000000000000000000000000000000000000000000815260048101859052602481018490526001600160a01b03909116906356ea46d990604401600060405180830381865afa158015610a2f573d6000803e3d6000fd5b505050506040513d6000823e601f3d908101601f19168201604052610a5791908101906122ce565b90505b92915050565b6000546040517f597de9870000000000000000000000000000000000000000000000000000000081526001600160a01b0383811660048301529091169063597de98790602401600060405180830381600087803b158015610ac057600080fd5b505af115801561085c573d6000803e3d6000fd5b6040805180820190915260608152600060208201526000546001600160a01b0316610b415760405162461bcd60e51b815260206004820152601660248201527f596f75206d75737420757067726164652066697273740000000000000000000060448201526064016104dc565b6000546040517f7932938b00000000000000000000000000000000000000000000000000000000815260048101859052602481018490526001600160a01b0390911690637932938b90604401600060405180830381865afa158015610baa573d6000803e3d6000fd5b505050506040513d6000823e601f3d908101601f19168201604052610a579190810190612459565b6000546001600160a01b0316610c2a5760405162461bcd60e51b815260206004820152601660248201527f596f75206d75737420757067726164652066697273740000000000000000000060448201526064016104dc565b600080546040517f7b57ee490000000000000000000000000000000000000000000000000000000081526001600160a01b0390911690637b57ee4990610c74908590600401612176565b6000604051808303816000875af1158015610c93573d6000803e3d6000fd5b505050506040513d6000823e601f3d908101601f19168201604052610cbb9190810190612539565b905080604001516005811115610cd357610cd3611b20565b815160208301516040517fefe93f21a3369f1228a2589883bc377a76d7335daddc712853688de4617f82ab91610d0891612176565b60405180910390a35050565b6000546060906001600160a01b0316610d6f5760405162461bcd60e51b815260206004820152601660248201527f596f75206d75737420757067726164652066697273740000000000000000000060448201526064016104dc565b6000546040517f805265e50000000000000000000000000000000000000000000000000000000081526001600160a01b039091169063805265e590610db8908590600401612176565b600060405180830381865afa158015610dd5573d6000803e3d6000fd5b505050506040513d6000823e601f3d908101601f1916820160405261095191908101906125dc565b6000546001600160a01b0316610e555760405162461bcd60e51b815260206004820152601660248201527f596f75206d75737420757067726164652066697273740000000000000000000060448201526064016104dc565b600080546040517f8fc5dad80000000000000000000000000000000000000000000000000000000081526001600160a01b0390911690638fc5dad890610e9f908590600401612176565b6000604051808303816000875af1158015610ebe573d6000803e3d6000fd5b505050506040513d6000823e601f3d908101601f19168201604052610ee69190810190612539565b905080604001516005811115610efe57610efe611b20565b815160208301516040517fefe93f21a3369f1228a2589883bc377a76d7335daddc712853688de4617f82ab91610f3391612176565b60405180910390a3600281604001516005811115610f5357610f53611b20565b0361110f57600381606001516003811115610f7057610f70611b20565b0361103a57600054604080517fd500958400000000000000000000000000000000000000000000000000000000815290517f198db6e425fb8aafd1823c6ca50be2d51e5764571a5ae0f0f21c6812e45def0b926001600160a01b03169163d50095849160048083019260209291908290030181865afa158015610ff7573d6000803e3d6000fd5b505050506040513d601f19601f8201168201806040525081019061101b91906126c7565b6040516001600160a01b03909116815260200160405180910390a15050565b60028160600151600381111561105257611052611b20565b0361110f57600054604080517f1df8ba7700000000000000000000000000000000000000000000000000000000815290517f274a3b0d5142ec9fc4e77bd3ffc173b4e7c6c64eca73b31a6c6906b184257e7e926001600160a01b031691631df8ba779160048083019260209291908290030181865afa1580156110d9573d6000803e3d6000fd5b505050506040513d601f19601f820116820180604052508101906110fd9190612107565b60405190815260200160405180910390a15b5050565b6000546001600160a01b031661116b5760405162461bcd60e51b815260206004820152601660248201527f596f75206d75737420757067726164652066697273740000000000000000000060448201526064016104dc565b6000546040517f90ca27f30000000000000000000000000000000000000000000000000000000081526001600160a01b03909116906390ca27f3906111b690859085906004016126e4565b600060405180830381600087803b1580156111d057600080fd5b505af11580156111e4573d6000803e3d6000fd5b505050505050565b6000546001600160a01b03166112445760405162461bcd60e51b815260206004820152601660248201527f596f75206d75737420757067726164652066697273740000000000000000000060448201526064016104dc565b6000546040517f96fa1def0000000000000000000000000000000000000000000000000000000081526001600160a01b0384811660048301528315156024830152909116906396fa1def906044016111b6565b6000546001600160a01b03166112ef5760405162461bcd60e51b815260206004820152601660248201527f596f75206d75737420757067726164652066697273740000000000000000000060448201526064016104dc565b600080546040517f9e1bf9850000000000000000000000000000000000000000000000000000000081526001600160a01b0390911690639e1bf98590610c74908590600401612176565b6040805160a081018252600080825260208201819052918101829052606081018290526080810182905290546001600160a01b03166113ba5760405162461bcd60e51b815260206004820152601660248201527f596f75206d75737420757067726164652066697273740000000000000000000060448201526064016104dc565b6000546040517fa7107f020000000000000000000000000000000000000000000000000000000081526001600160a01b0384811660048301529091169063a7107f029060240160a060405180830381865afa15801561141d573d6000803e3d6000fd5b505050506040513d601f19601f82011682018060405250810190610951919061270f565b6000546001600160a01b03166114995760405162461bcd60e51b815260206004820152601660248201527f596f75206d75737420757067726164652066697273740000000000000000000060448201526064016104dc565b6000546040517fb15835460000000000000000000000000000000000000000000000000000000081526001600160a01b03848116600483015261ffff841660248301529091169063b1583546906044016111b6565b6000546001600160a01b03166115465760405162461bcd60e51b815260206004820152601660248201527f596f75206d75737420757067726164652066697273740000000000000000000060448201526064016104dc565b6000546040517fc12e806300000000000000000000000000000000000000000000000000000000815261ffff831660048201526001600160a01b039091169063c12e80639034906024016000604051808303818588803b1580156111d057600080fd5b50565b600080546001600160a01b03166116055760405162461bcd60e51b815260206004820152601660248201527f596f75206d75737420757067726164652066697273740000000000000000000060448201526064016104dc565b60008054906101000a90046001600160a01b03166001600160a01b031663d50095846040518163ffffffff1660e01b8152600401602060405180830381865afa158015611656573d6000803e3d6000fd5b505050506040513d601f19601f8201168201806040525081019061077b91906126c7565b6000546001600160a01b03166116d25760405162461bcd60e51b815260206004820152601660248201527f596f75206d75737420757067726164652066697273740000000000000000000060448201526064016104dc565b600080546040517feaf5d9dc0000000000000000000000000000000000000000000000000000000081526001600160a01b039091169063eaf5d9dc9061172290889088908890889060040161272b565b6000604051808303816000875af1158015611741573d6000803e3d6000fd5b505050506040513d6000823e601f3d908101601f191682016040526117699190810190612539565b90508060400151600581111561178157611781611b20565b815160208301516040517fefe93f21a3369f1228a2589883bc377a76d7335daddc712853688de4617f82ab916117b691612176565b60405180910390a35050505050565b604080516101208101825260608082526020820152908101600081526020016000815260200160008152602001600081526020016000600381111561180c5761180c611b20565b815260006020820181905260409091015290565b6001600160a01b03811681146115a957600080fd5b60006020828403121561184757600080fd5b813561185281611820565b9392505050565b7f4e487b7100000000000000000000000000000000000000000000000000000000600052604160045260246000fd5b604051610120810167ffffffffffffffff811182821017156118ac576118ac611859565b60405290565b6040805190810167ffffffffffffffff811182821017156118ac576118ac611859565b6040516080810167ffffffffffffffff811182821017156118ac576118ac611859565b604051601f8201601f1916810167ffffffffffffffff8111828210171561192157611921611859565b604052919050565b600067ffffffffffffffff82111561194357611943611859565b50601f01601f191660200190565b600082601f83011261196257600080fd5b813561197561197082611929565b6118f8565b81815284602083860101111561198a57600080fd5b816020850160208301376000918101602001919091529392505050565b600080604083850312156119ba57600080fd5b823567ffffffffffffffff8111156119d157600080fd5b6119dd85828601611951565b95602094909401359450505050565b600481106115a957600080fd5b600080600080600060a08688031215611a1157600080fd5b853567ffffffffffffffff811115611a2857600080fd5b611a3488828901611951565b955050602086013567ffffffffffffffff811115611a5157600080fd5b611a5d88828901611951565b9450506040860135611a6e816119ec565b9250606086013591506080860135611a8581611820565b809150509295509295909350565b600060208284031215611aa557600080fd5b813567ffffffffffffffff811115611abc57600080fd5b611ac884828501611951565b949350505050565b60005b83811015611aeb578181015183820152602001611ad3565b50506000910152565b60008151808452611b0c816020860160208601611ad0565b601f01601f19169290920160200192915050565b7f4e487b7100000000000000000000000000000000000000000000000000000000600052602160045260246000fd5b60068110611b5f57611b5f611b20565b9052565b600481106115a9576115a9611b20565b611b5f81611b63565b600081516101208452611b93610120850182611af4565b905060208301518482036020860152611bac8282611af4565b9150506040830151611bc16040860182611b4f565b50606083015160608501526080830151608085015260a083015160a085015260c0830151611bf260c0860182611b73565b5060e083015160e0850152610100830151611c196101008601826001600160a01b03169052565b509392505050565b602081526000610a576020830184611b7c565b60008060408385031215611c4757600080fd5b50508035926020909101359150565b6020815260006060820183516040602085015281815180845260808601915060808160051b870101935060208301925060005b81811015611cd8577fffffffffffffffffffffffffffffffffffffffffffffffffffffffffffffff80878603018352611cc3858551611b7c565b94506020938401939290920191600101611c89565b50505050602084015160408401528091505092915050565b602080825282516040838301528051606084018190526000929190910190829060808501905b80831015611d7c57611d658285516001600160a01b03815116825261ffff6020820151166020830152604081015115156040830152606081015115156060830152608081015160808301525050565b60a082019150602084019350600183019250611d16565b506020860151604086015280935050505092915050565b602080825282518282018190526000918401906040840190835b81811015611e045783516001600160a01b03815116845261ffff60208201511660208501526040810151611de081611b63565b60408501526060908101519084015260209390930192608090920191600101611dad565b509095945050505050565b60008060408385031215611e2257600080fd5b823567ffffffffffffffff811115611e3957600080fd5b611e4585828601611951565b9250506020830135611e56816119ec565b809150509250929050565b80151581146115a957600080fd5b60008060408385031215611e8257600080fd5b8235611e8d81611820565b91506020830135611e5681611e61565b60a08101610a5a82846001600160a01b03815116825261ffff6020820151166020830152604081015115156040830152606081015115156060830152608081015160808301525050565b61ffff811681146115a957600080fd5b60008060408385031215611f0a57600080fd5b8235611f1581611820565b91506020830135611e5681611ee7565b600060208284031215611f3757600080fd5b813561185281611ee7565b60008060008060808587031215611f5857600080fd5b843567ffffffffffffffff811115611f6f57600080fd5b611f7b87828801611951565b945050602085013567ffffffffffffffff811115611f9857600080fd5b611fa487828801611951565b935050604085013591506060850135611fbc81611820565b939692955090935050565b604081526000611fda6040830185611af4565b90508260208301529392505050565b805161095481611820565b600082601f83011261200557600080fd5b815161201361197082611929565b81815284602083860101111561202857600080fd5b611ac8826020830160208701611ad0565b60006020828403121561204b57600080fd5b815167ffffffffffffffff81111561206257600080fd5b82016060818503121561207457600080fd5b6040516060810167ffffffffffffffff8111828210171561209757612097611859565b60405281516120a581611820565b815260208281015190820152604082015167ffffffffffffffff8111156120cb57600080fd5b6120d786828501611ff4565b604083015250949350505050565b6001600160a01b0383168152604060208201526000611ac86040830184611af4565b60006020828403121561211957600080fd5b5051919050565b60a08152600061213360a0830188611af4565b82810360208401526121458188611af4565b91505061215185611b63565b8460408301528360608301526001600160a01b03831660808301529695505050505050565b602081526000610a576020830184611af4565b80516006811061095457600080fd5b8051610954816119ec565b600061012082840312156121b657600080fd5b6121be611888565b9050815167ffffffffffffffff8111156121d757600080fd5b6121e384828501611ff4565b825250602082015167ffffffffffffffff81111561220057600080fd5b61220c84828501611ff4565b60208301525061221e60408301612189565b6040820152606082810151908201526080808301519082015260a0808301519082015261224d60c08301612198565b60c082015260e082810151908201526122696101008301611fe9565b61010082015292915050565b60006020828403121561228757600080fd5b815167ffffffffffffffff81111561229e57600080fd5b611ac8848285016121a3565b600067ffffffffffffffff8211156122c4576122c4611859565b5060051b60200190565b6000602082840312156122e057600080fd5b815167ffffffffffffffff8111156122f757600080fd5b82016040818503121561230957600080fd5b6123116118b2565b815167ffffffffffffffff81111561232857600080fd5b8201601f8101861361233957600080fd5b8051612347611970826122aa565b8082825260208201915060208360051b85010192508883111561236957600080fd5b602084015b838110156123ab57805167ffffffffffffffff81111561238d57600080fd5b61239c8b6020838901016121a3565b8452506020928301920161236e565b508452505050602091820151918101919091529392505050565b600060a082840312156123d757600080fd5b60405160a0810167ffffffffffffffff811182821017156123fa576123fa611859565b8060405250809150825161240d81611820565b8152602083015161241d81611ee7565b6020820152604083015161243081611e61565b6040820152606083015161244381611e61565b6060820152608092830151920191909152919050565b60006020828403121561246b57600080fd5b815167ffffffffffffffff81111561248257600080fd5b82016040818503121561249457600080fd5b61249c6118b2565b815167ffffffffffffffff8111156124b357600080fd5b8201601f810186136124c457600080fd5b80516124d2611970826122aa565b80828252602082019150602060a084028501019250888311156124f457600080fd5b6020840193505b828410156125205761250d89856123c5565b825260208201915060a0840193506124fb565b8452505050602091820151918101919091529392505050565b60006020828403121561254b57600080fd5b815167ffffffffffffffff81111561256257600080fd5b82016080818503121561257457600080fd5b61257c6118d5565b81518152602082015167ffffffffffffffff81111561259a57600080fd5b6125a686828501611ff4565b6020830152506125b860408301612189565b6040820152606082015191506125cd826119ec565b60608101919091529392505050565b6000602082840312156125ee57600080fd5b815167ffffffffffffffff81111561260557600080fd5b8201601f8101841361261657600080fd5b8051612624611970826122aa565b8082825260208201915060208360071b85010192508683111561264657600080fd5b6020840193505b828410156126bd576080848803121561266557600080fd5b61266d6118d5565b845161267881611820565b8152602085015161268881611ee7565b6020820152604085015161269b816119ec565b604082015260608581015190820152825260809093019260209091019061264d565b9695505050505050565b6000602082840312156126d957600080fd5b815161185281611820565b6040815260006126f76040830185611af4565b905061270283611b63565b8260208301529392505050565b600060a0828403121561272157600080fd5b610a5783836123c5565b60808152600061273e6080830187611af4565b82810360208401526127508187611af4565b9150508360408301526001600160a01b03831660608301529594505050505056fea26469706673582212209c3b9d896776ffd3ec93be61b33c504b45babe384dbc9ff25b36d8766e818c2764736f6c634300081c0033",
  "linkReferences": {},
  "deployedLinkReferences": {}
}