{
  "_format": "hh-sol-artifact-1",
  "contractName": "Condominium",
  "sourceName": "contracts/Condominium.sol",
  "abi": [
    {
      "inputs": [],
      "stateMutability": "nonpayable",
      "type": "constructor"
    },
    {
      "inputs": [
        {
          "internalType": "address",
          "name": "resident",
          "type": "address"
        },
        {
          "internalType": "uint16",
          "name": "residenceId",
          "type": "uint16"
        }
      ],
      "name": "addResident",
      "outputs": [],
      "stateMutability": "nonpayable",
      "type": "function"
    },
    {
      "inputs": [
        {
          "internalType": "string",
          "name": "title",
          "type": "string"
        },
        {
          "internalType": "string",
          "name": "description",
          "type": "string"
        },
        {
          "internalType": "enum CondominiumLib.Category",
          "name": "category",
          "type": "uint8"
        },
        {
          "internalType": "uint256",
          "name": "amount",
          "type": "uint256"
        },
        {
          "internalType": "address",
          "name": "responsible",
          "type": "address"
        }
      ],
      "name": "addTopic",
      "outputs": [],
      "stateMutability": "nonpayable",
      "type": "function"
    },
    {
      "inputs": [
        {
          "internalType": "string",
          "name": "title",
          "type": "string"
        }
      ],
      "name": "closeVoting",
      "outputs": [
        {
          "components": [
            {
              "internalType": "bytes32",
              "name": "id",
              "type": "bytes32"
            },
            {
              "internalType": "string",
              "name": "title",
              "type": "string"
            },
            {
              "internalType": "enum CondominiumLib.Status",
              "name": "status",
              "type": "uint8"
            },
            {
              "internalType": "enum CondominiumLib.Category",
              "name": "category",
              "type": "uint8"
            }
          ],
          "internalType": "struct CondominiumLib.TopicUpdate",
          "name": "",
          "type": "tuple"
        }
      ],
      "stateMutability": "nonpayable",
      "type": "function"
    },
    {
      "inputs": [
        {
          "internalType": "address",
          "name": "",
          "type": "address"
        }
      ],
      "name": "counselors",
      "outputs": [
        {
          "internalType": "bool",
          "name": "",
          "type": "bool"
        }
      ],
      "stateMutability": "view",
      "type": "function"
    },
    {
      "inputs": [
        {
          "internalType": "string",
          "name": "topicToEdit",
          "type": "string"
        },
        {
          "internalType": "string",
          "name": "description",
          "type": "string"
        },
        {
          "internalType": "uint256",
          "name": "amount",
          "type": "uint256"
        },
        {
          "internalType": "address",
          "name": "responsible",
          "type": "address"
        }
      ],
      "name": "editTopic",
      "outputs": [
        {
          "components": [
            {
              "internalType": "bytes32",
              "name": "id",
              "type": "bytes32"
            },
            {
              "internalType": "string",
              "name": "title",
              "type": "string"
            },
            {
              "internalType": "enum CondominiumLib.Status",
              "name": "status",
              "type": "uint8"
            },
            {
              "internalType": "enum CondominiumLib.Category",
              "name": "category",
              "type": "uint8"
            }
          ],
          "internalType": "struct CondominiumLib.TopicUpdate",
          "name": "",
          "type": "tuple"
        }
      ],
      "stateMutability": "nonpayable",
      "type": "function"
    },
    {
      "inputs": [],
      "name": "getManager",
      "outputs": [
        {
          "internalType": "address",
          "name": "",
          "type": "address"
        }
      ],
      "stateMutability": "view",
      "type": "function"
    },
    {
      "inputs": [],
      "name": "getQuota",
      "outputs": [
        {
          "internalType": "uint256",
          "name": "",
          "type": "uint256"
        }
      ],
      "stateMutability": "view",
      "type": "function"
    },
    {
      "inputs": [
        {
          "internalType": "string",
          "name": "title",
          "type": "string"
        }
      ],
      "name": "getTopic",
      "outputs": [
        {
          "components": [
            {
              "internalType": "string",
              "name": "title",
              "type": "string"
            },
            {
              "internalType": "string",
              "name": "description",
              "type": "string"
            },
            {
              "internalType": "enum CondominiumLib.Status",
              "name": "status",
              "type": "uint8"
            },
            {
              "internalType": "uint256",
              "name": "createdDate",
              "type": "uint256"
            },
            {
              "internalType": "uint256",
              "name": "startdDate",
              "type": "uint256"
            },
            {
              "internalType": "uint256",
              "name": "endDate",
              "type": "uint256"
            },
            {
              "internalType": "enum CondominiumLib.Category",
              "name": "category",
              "type": "uint8"
            },
            {
              "internalType": "uint256",
              "name": "amount",
              "type": "uint256"
            },
            {
              "internalType": "address",
              "name": "responsible",
              "type": "address"
            }
          ],
          "internalType": "struct CondominiumLib.Topic",
          "name": "",
          "type": "tuple"
        }
      ],
      "stateMutability": "view",
      "type": "function"
    },
    {
      "inputs": [
        {
          "internalType": "address",
          "name": "resident",
          "type": "address"
        }
      ],
      "name": "isResident",
      "outputs": [
        {
          "internalType": "bool",
          "name": "",
          "type": "bool"
        }
      ],
      "stateMutability": "view",
      "type": "function"
    },
    {
      "inputs": [],
      "name": "manager",
      "outputs": [
        {
          "internalType": "address",
          "name": "",
          "type": "address"
        }
      ],
      "stateMutability": "view",
      "type": "function"
    },
    {
      "inputs": [],
      "name": "monthlyQuota",
      "outputs": [
        {
          "internalType": "uint256",
          "name": "",
          "type": "uint256"
        }
      ],
      "stateMutability": "view",
      "type": "function"
    },
    {
      "inputs": [
        {
          "internalType": "string",
          "name": "title",
          "type": "string"
        }
      ],
      "name": "numberOfVotes",
      "outputs": [
        {
          "internalType": "uint256",
          "name": "",
          "type": "uint256"
        }
      ],
      "stateMutability": "view",
      "type": "function"
    },
    {
      "inputs": [
        {
          "internalType": "string",
          "name": "title",
          "type": "string"
        }
      ],
      "name": "openVoting",
      "outputs": [
        {
          "components": [
            {
              "internalType": "bytes32",
              "name": "id",
              "type": "bytes32"
            },
            {
              "internalType": "string",
              "name": "title",
              "type": "string"
            },
            {
              "internalType": "enum CondominiumLib.Status",
              "name": "status",
              "type": "uint8"
            },
            {
              "internalType": "enum CondominiumLib.Category",
              "name": "category",
              "type": "uint8"
            }
          ],
          "internalType": "struct CondominiumLib.TopicUpdate",
          "name": "",
          "type": "tuple"
        }
      ],
      "stateMutability": "nonpayable",
      "type": "function"
    },
    {
      "inputs": [
        {
          "internalType": "uint16",
          "name": "residenceId",
          "type": "uint16"
        }
      ],
      "name": "payQuota",
      "outputs": [],
      "stateMutability": "payable",
      "type": "function"
    },
    {
      "inputs": [
        {
          "internalType": "uint16",
          "name": "",
          "type": "uint16"
        }
      ],
      "name": "payments",
      "outputs": [
        {
          "internalType": "uint256",
          "name": "",
          "type": "uint256"
        }
      ],
      "stateMutability": "view",
      "type": "function"
    },
    {
      "inputs": [
        {
          "internalType": "address",
          "name": "resident",
          "type": "address"
        }
      ],
      "name": "removeResident",
      "outputs": [],
      "stateMutability": "nonpayable",
      "type": "function"
    },
    {
      "inputs": [
        {
          "internalType": "string",
          "name": "title",
          "type": "string"
        }
      ],
      "name": "removeTopic",
      "outputs": [
        {
          "components": [
            {
              "internalType": "bytes32",
              "name": "id",
              "type": "bytes32"
            },
            {
              "internalType": "string",
              "name": "title",
              "type": "string"
            },
            {
              "internalType": "enum CondominiumLib.Status",
              "name": "status",
              "type": "uint8"
            },
            {
              "internalType": "enum CondominiumLib.Category",
              "name": "category",
              "type": "uint8"
            }
          ],
          "internalType": "struct CondominiumLib.TopicUpdate",
          "name": "",
          "type": "tuple"
        }
      ],
      "stateMutability": "nonpayable",
      "type": "function"
    },
    {
      "inputs": [
        {
          "internalType": "uint16",
          "name": "residenceId",
          "type": "uint16"
        }
      ],
      "name": "residenceExists",
      "outputs": [
        {
          "internalType": "bool",
          "name": "",
          "type": "bool"
        }
      ],
      "stateMutability": "view",
      "type": "function"
    },
    {
      "inputs": [
        {
          "internalType": "uint16",
          "name": "",
          "type": "uint16"
        }
      ],
      "name": "residences",
      "outputs": [
        {
          "internalType": "bool",
          "name": "",
          "type": "bool"
        }
      ],
      "stateMutability": "view",
      "type": "function"
    },
    {
      "inputs": [
        {
          "internalType": "address",
          "name": "",
          "type": "address"
        }
      ],
      "name": "residents",
      "outputs": [
        {
          "internalType": "uint16",
          "name": "",
          "type": "uint16"
        }
      ],
      "stateMutability": "view",
      "type": "function"
    },
    {
      "inputs": [
        {
          "internalType": "address",
          "name": "resident",
          "type": "address"
        },
        {
          "internalType": "bool",
          "name": "isEntering",
          "type": "bool"
        }
      ],
      "name": "setCounselor",
      "outputs": [],
      "stateMutability": "nonpayable",
      "type": "function"
    },
    {
      "inputs": [
        {
          "internalType": "string",
          "name": "tile",
          "type": "string"
        }
      ],
      "name": "topicExists",
      "outputs": [
        {
          "internalType": "bool",
          "name": "",
          "type": "bool"
        }
      ],
      "stateMutability": "view",
      "type": "function"
    },
    {
      "inputs": [
        {
          "internalType": "bytes32",
          "name": "",
          "type": "bytes32"
        }
      ],
      "name": "topics",
      "outputs": [
        {
          "internalType": "string",
          "name": "title",
          "type": "string"
        },
        {
          "internalType": "string",
          "name": "description",
          "type": "string"
        },
        {
          "internalType": "enum CondominiumLib.Status",
          "name": "status",
          "type": "uint8"
        },
        {
          "internalType": "uint256",
          "name": "createdDate",
          "type": "uint256"
        },
        {
          "internalType": "uint256",
          "name": "startdDate",
          "type": "uint256"
        },
        {
          "internalType": "uint256",
          "name": "endDate",
          "type": "uint256"
        },
        {
          "internalType": "enum CondominiumLib.Category",
          "name": "category",
          "type": "uint8"
        },
        {
          "internalType": "uint256",
          "name": "amount",
          "type": "uint256"
        },
        {
          "internalType": "address",
          "name": "responsible",
          "type": "address"
        }
      ],
      "stateMutability": "view",
      "type": "function"
    },
    {
      "inputs": [
        {
          "internalType": "string",
          "name": "topicTitle",
          "type": "string"
        },
        {
          "internalType": "uint256",
          "name": "amount",
          "type": "uint256"
        }
      ],
      "name": "transfer",
      "outputs": [
        {
          "components": [
            {
              "internalType": "address",
              "name": "to",
              "type": "address"
            },
            {
              "internalType": "uint256",
              "name": "amount",
              "type": "uint256"
            },
            {
              "internalType": "string",
              "name": "topic",
              "type": "string"
            }
          ],
          "internalType": "struct CondominiumLib.TransferReceipt",
          "name": "",
          "type": "tuple"
        }
      ],
      "stateMutability": "nonpayable",
      "type": "function"
    },
    {
      "inputs": [
        {
          "internalType": "string",
          "name": "title",
          "type": "string"
        },
        {
          "internalType": "enum CondominiumLib.Options",
          "name": "option",
          "type": "uint8"
        }
      ],
      "name": "vote",
      "outputs": [],
      "stateMutability": "nonpayable",
      "type": "function"
    },
    {
      "inputs": [
        {
          "internalType": "bytes32",
          "name": "",
          "type": "bytes32"
        },
        {
          "internalType": "uint256",
          "name": "",
          "type": "uint256"
        }
      ],
      "name": "votings",
      "outputs": [
        {
          "internalType": "address",
          "name": "resident",
          "type": "address"
        },
        {
          "internalType": "uint16",
          "name": "residence",
          "type": "uint16"
        },
        {
          "internalType": "enum CondominiumLib.Options",
          "name": "option",
          "type": "uint8"
        },
        {
          "internalType": "uint256",
          "name": "timestamp",
          "type": "uint256"
        }
      ],
      "stateMutability": "view",
      "type": "function"
    }
  ],
  "bytecode": "0x6080604052662386f26fc1000060015534801561001b57600080fd5b50326000806101000a81548173ffffffffffffffffffffffffffffffffffffffff021916908373ffffffffffffffffffffffffffffffffffffffff1602179055506000600190505b60028161ffff161161010f576000600190505b60058161ffff16116100fb576000600190505b60058161ffff16116100e75760016002600083606486026103e88802010161ffff1661ffff16815260200190815260200160002060006101000a81548160ff02191690831515021790555080806100df90610152565b915050610089565b5080806100f390610152565b915050610076565b50808061010790610152565b915050610063565b5061017c565b7f4e487b7100000000000000000000000000000000000000000000000000000000600052601160045260246000fd5b600061ffff82169050919050565b600061015d82610144565b915061ffff820361017157610170610115565b5b600182019050919050565b614b738061018b6000396000f3fe6080604052600436106101815760003560e01c806378b5749d116100d15780639e1bf9851161008a578063c12e806311610064578063c12e806314610635578063d500958414610651578063e4d65d541461067c578063eaf5d9dc146106b957610181565b80639e1bf98514610592578063b1583546146105cf578063bc2f89f3146105f857610181565b806378b5749d1461044c5780637b57ee49146104895780638fc5dad8146104c657806390ca27f314610503578063967d59e41461052c57806396fa1def1461056957610181565b806343b8c6b11161013e5780634de53265116101185780634de532651461037e578063597de987146103bb57806368aca335146103e4578063783bb57d1461042157610181565b806343b8c6b1146102ed578063474502d814610316578063481c6a751461035357610181565b80630f2fbeec1461018657806312cb70c7146101cb5780631794230c146102085780631a6c0192146102455780631df8ba77146102855780632f9f21fe146102b0575b600080fd5b34801561019257600080fd5b506101ad60048036038101906101a89190612fb7565b6106f6565b6040516101c29998979695949392919061318d565b60405180910390f35b3480156101d757600080fd5b506101f260048036038101906101ed9190613389565b61088e565b6040516101ff919061349d565b60405180910390f35b34801561021457600080fd5b5061022f600480360381019061022a91906134f9565b610b31565b60405161023c9190613526565b60405180910390f35b34801561025157600080fd5b5061026c60048036038101906102679190613541565b610b49565b60405161027c94939291906135d8565b60405180910390f35b34801561029157600080fd5b5061029a610bd1565b6040516102a79190613526565b60405180910390f35b3480156102bc57600080fd5b506102d760048036038101906102d2919061361d565b610bdb565b6040516102e49190613526565b60405180910390f35b3480156102f957600080fd5b50610314600480360381019061030f91906136b7565b610c07565b005b34801561032257600080fd5b5061033d6004803603810190610338919061361d565b61107a565b60405161034a9190613854565b60405180910390f35b34801561035f57600080fd5b506103686112cd565b6040516103759190613876565b60405180910390f35b34801561038a57600080fd5b506103a560048036038101906103a09190613891565b6112f1565b6040516103b291906138d9565b60405180910390f35b3480156103c757600080fd5b506103e260048036038101906103dd9190613891565b611311565b005b3480156103f057600080fd5b5061040b60048036038101906104069190613891565b61147f565b60405161041891906138d9565b60405180910390f35b34801561042d57600080fd5b506104366114dc565b6040516104439190613526565b60405180910390f35b34801561045857600080fd5b50610473600480360381019061046e919061361d565b6114e2565b60405161048091906138d9565b60405180910390f35b34801561049557600080fd5b506104b060048036038101906104ab919061361d565b6114fa565b6040516104bd9190613966565b60405180910390f35b3480156104d257600080fd5b506104ed60048036038101906104e8919061361d565b611757565b6040516104fa9190613966565b60405180910390f35b34801561050f57600080fd5b5061052a600480360381019061052591906139ad565b611d86565b005b34801561053857600080fd5b50610553600480360381019061054e91906134f9565b6123a9565b60405161056091906138d9565b60405180910390f35b34801561057557600080fd5b50610590600480360381019061058b9190613a35565b6123db565b005b34801561059e57600080fd5b506105b960048036038101906105b4919061361d565b6125d9565b6040516105c69190613966565b60405180910390f35b3480156105db57600080fd5b506105f660048036038101906105f19190613a75565b6127eb565b005b34801561060457600080fd5b5061061f600480360381019061061a91906134f9565b6129e4565b60405161062c91906138d9565b60405180910390f35b61064f600480360381019061064a91906134f9565b612a04565b005b34801561065d57600080fd5b50610666612b1f565b6040516106739190613876565b60405180910390f35b34801561068857600080fd5b506106a3600480360381019061069e9190613891565b612b48565b6040516106b09190613ab5565b60405180910390f35b3480156106c557600080fd5b506106e060048036038101906106db9190613ad0565b612b69565b6040516106ed9190613966565b60405180910390f35b600660205280600052604060002060009150905080600001805461071990613b9e565b80601f016020809104026020016040519081016040528092919081815260200182805461074590613b9e565b80156107925780601f1061076757610100808354040283529160200191610792565b820191906000526020600020905b81548152906001019060200180831161077557829003601f168201915b5050505050908060010180546107a790613b9e565b80601f01602080910402602001604051908101604052809291908181526020018280546107d390613b9e565b80156108205780601f106107f557610100808354040283529160200191610820565b820191906000526020600020905b81548152906001019060200180831161080357829003601f168201915b5050505050908060020160009054906101000a900460ff16908060030154908060040154908060050154908060060160009054906101000a900460ff16908060070154908060080160009054906101000a900473ffffffffffffffffffffffffffffffffffffffff16905089565b610896612e04565b60008054906101000a900473ffffffffffffffffffffffffffffffffffffffff1673ffffffffffffffffffffffffffffffffffffffff163273ffffffffffffffffffffffffffffffffffffffff1614610924576040517f08c379a000000000000000000000000000000000000000000000000000000000815260040161091b90613c1b565b60405180910390fd5b81471015610967576040517f08c379a000000000000000000000000000000000000000000000000000000000815260040161095e90613c87565b60405180910390fd5b60006109728461107a565b90506002600581111561098857610987613074565b5b8160400151600581111561099f5761099e613074565b5b1480156109d45750600160038111156109bb576109ba613074565b5b8160c0015160038111156109d2576109d1613074565b5b145b610a13576040517f08c379a0000000000000000000000000000000000000000000000000000000008152600401610a0a90613d19565b60405180910390fd5b828160e001511015610a5a576040517f08c379a0000000000000000000000000000000000000000000000000000000008152600401610a5190613dab565b60405180910390fd5b80610100015173ffffffffffffffffffffffffffffffffffffffff166108fc849081150290604051600060405180830381858888f19350505050158015610aa5573d6000803e3d6000fd5b5060008480519060200120905060056006600083815260200190815260200160002060020160006101000a81548160ff02191690836005811115610aec57610aeb613074565b5b0217905550604051806060016040528083610100015173ffffffffffffffffffffffffffffffffffffffff168152602001858152602001868152509250505092915050565b60056020528060005260406000206000915090505481565b60076020528160005260406000208181548110610b6557600080fd5b9060005260206000209060020201600091509150508060000160009054906101000a900473ffffffffffffffffffffffffffffffffffffffff16908060000160149054906101000a900461ffff16908060000160169054906101000a900460ff16908060010154905084565b6000600154905090565b600080828051906020012090506007600082815260200190815260200160002080549050915050919050565b60008054906101000a900473ffffffffffffffffffffffffffffffffffffffff1673ffffffffffffffffffffffffffffffffffffffff163273ffffffffffffffffffffffffffffffffffffffff161480610c665750610c653261147f565b5b610ca5576040517f08c379a0000000000000000000000000000000000000000000000000000000008152600401610c9c90613e3d565b60405180910390fd5b60008054906101000a900473ffffffffffffffffffffffffffffffffffffffff1673ffffffffffffffffffffffffffffffffffffffff163273ffffffffffffffffffffffffffffffffffffffff161480610d74575062278d0060056000600360003273ffffffffffffffffffffffffffffffffffffffff1673ffffffffffffffffffffffffffffffffffffffff16815260200190815260200160002060009054906101000a900461ffff1661ffff1661ffff16815260200190815260200160002054610d719190613e8c565b42105b610db3576040517f08c379a0000000000000000000000000000000000000000000000000000000008152600401610daa90613f0c565b60405180910390fd5b610dbc856114e2565b15610dfc576040517f08c379a0000000000000000000000000000000000000000000000000000000008152600401610df390613f78565b60405180910390fd5b6000821115610e9c5760026003811115610e1957610e18613074565b5b836003811115610e2c57610e2b613074565b5b1480610e5c575060016003811115610e4757610e46613074565b5b836003811115610e5a57610e59613074565b5b145b610e9b576040517f08c379a0000000000000000000000000000000000000000000000000000000008152600401610e9290613fe4565b60405180910390fd5b5b600060405180610120016040528087815260200186815260200160006005811115610eca57610ec9613074565b5b81526020014281526020016000815260200160008152602001856003811115610ef657610ef5613074565b5b8152602001848152602001600073ffffffffffffffffffffffffffffffffffffffff168473ffffffffffffffffffffffffffffffffffffffff1603610f3b5732610f3d565b835b73ffffffffffffffffffffffffffffffffffffffff1681525090508060066000888051906020012081526020019081526020016000206000820151816000019081610f8891906141b0565b506020820151816001019081610f9e91906141b0565b5060408201518160020160006101000a81548160ff02191690836005811115610fca57610fc9613074565b5b0217905550606082015181600301556080820151816004015560a0820151816005015560c08201518160060160006101000a81548160ff0219169083600381111561101857611017613074565b5b021790555060e082015181600701556101008201518160080160006101000a81548173ffffffffffffffffffffffffffffffffffffffff021916908373ffffffffffffffffffffffffffffffffffffffff160217905550905050505050505050565b611082612e3b565b60008280519060200120905060066000828152602001908152602001600020604051806101200160405290816000820180546110bd90613b9e565b80601f01602080910402602001604051908101604052809291908181526020018280546110e990613b9e565b80156111365780601f1061110b57610100808354040283529160200191611136565b820191906000526020600020905b81548152906001019060200180831161111957829003601f168201915b5050505050815260200160018201805461114f90613b9e565b80601f016020809104026020016040519081016040528092919081815260200182805461117b90613b9e565b80156111c85780601f1061119d576101008083540402835291602001916111c8565b820191906000526020600020905b8154815290600101906020018083116111ab57829003601f168201915b505050505081526020016002820160009054906101000a900460ff1660058111156111f6576111f5613074565b5b600581111561120857611207613074565b5b81526020016003820154815260200160048201548152602001600582015481526020016006820160009054906101000a900460ff16600381111561124f5761124e613074565b5b600381111561126157611260613074565b5b8152602001600782015481526020016008820160009054906101000a900473ffffffffffffffffffffffffffffffffffffffff1673ffffffffffffffffffffffffffffffffffffffff1673ffffffffffffffffffffffffffffffffffffffff1681525050915050919050565b60008054906101000a900473ffffffffffffffffffffffffffffffffffffffff1681565b60046020528060005260406000206000915054906101000a900460ff1681565b60008054906101000a900473ffffffffffffffffffffffffffffffffffffffff1673ffffffffffffffffffffffffffffffffffffffff163273ffffffffffffffffffffffffffffffffffffffff161461139f576040517f08c379a000000000000000000000000000000000000000000000000000000000815260040161139690613c1b565b60405180910390fd5b600460008273ffffffffffffffffffffffffffffffffffffffff1673ffffffffffffffffffffffffffffffffffffffff16815260200190815260200160002060009054906101000a900460ff161561142c576040517f08c379a0000000000000000000000000000000000000000000000000000000008152600401611423906142ce565b60405180910390fd5b600360008273ffffffffffffffffffffffffffffffffffffffff1673ffffffffffffffffffffffffffffffffffffffff16815260200190815260200160002060006101000a81549061ffff021916905550565b600080600360008473ffffffffffffffffffffffffffffffffffffffff1673ffffffffffffffffffffffffffffffffffffffff16815260200190815260200160002060009054906101000a900461ffff1661ffff16119050919050565b60015481565b6000806114ee8361107a565b60600151119050919050565b611502612ec1565b60008054906101000a900473ffffffffffffffffffffffffffffffffffffffff1673ffffffffffffffffffffffffffffffffffffffff163273ffffffffffffffffffffffffffffffffffffffff1614611590576040517f08c379a000000000000000000000000000000000000000000000000000000000815260040161158790613c1b565b60405180910390fd5b600061159b8361107a565b905060008160600151116115e4576040517f08c379a00000000000000000000000000000000000000000000000000000000081526004016115db9061433a565b60405180910390fd5b600060058111156115f8576115f7613074565b5b8160400151600581111561160f5761160e613074565b5b1461164f576040517f08c379a0000000000000000000000000000000000000000000000000000000008152600401611646906143a6565b60405180910390fd5b600083805190602001209050600660008281526020019081526020016000206000808201600061167f9190612f10565b60018201600061168f9190612f10565b6002820160006101000a81549060ff02191690556003820160009055600482016000905560058201600090556006820160006101000a81549060ff021916905560078201600090556008820160006101000a81549073ffffffffffffffffffffffffffffffffffffffff021916905550506040518060800160405280828152602001836000015181526020016004600581111561172f5761172e613074565b5b81526020018360c00151600381111561174b5761174a613074565b5b81525092505050919050565b61175f612ec1565b60008054906101000a900473ffffffffffffffffffffffffffffffffffffffff1673ffffffffffffffffffffffffffffffffffffffff163273ffffffffffffffffffffffffffffffffffffffff16146117ed576040517f08c379a00000000000000000000000000000000000000000000000000000000081526004016117e490613c1b565b60405180910390fd5b60006117f88361107a565b90506000816060015111611841576040517f08c379a00000000000000000000000000000000000000000000000000000000081526004016118389061433a565b60405180910390fd5b6001600581111561185557611854613074565b5b8160400151600581111561186c5761186b613074565b5b146118ac576040517f08c379a00000000000000000000000000000000000000000000000000000000081526004016118a390614438565b60405180910390fd5b600060059050600160038111156118c6576118c5613074565b5b8260c0015160038111156118dd576118dc613074565b5b036118eb57600a905061195a565b6003808111156118fe576118fd613074565b5b8260c00151600381111561191557611914613074565b5b0361192357600f9050611959565b6002600381111561193757611936613074565b5b8260c00151600381111561194e5761194d613074565b5b0361195857601490505b5b5b8060ff1661196785610bdb565b10156119a8576040517f08c379a000000000000000000000000000000000000000000000000000000000815260040161199f906144ca565b60405180910390fd5b60008060008087805190602001209050600060076000838152602001908152602001600020805480602002602001604051908101604052809291908181526020016000905b82821015611ada57838290600052602060002090600202016040518060800160405290816000820160009054906101000a900473ffffffffffffffffffffffffffffffffffffffff1673ffffffffffffffffffffffffffffffffffffffff1673ffffffffffffffffffffffffffffffffffffffff1681526020016000820160149054906101000a900461ffff1661ffff1661ffff1681526020016000820160169054906101000a900460ff166003811115611aab57611aaa613074565b5b6003811115611abd57611abc613074565b5b8152602001600182015481525050815260200190600101906119ed565b50505050905060005b81518160ff161015611bd25760016003811115611b0357611b02613074565b5b828260ff1681518110611b1957611b186144ea565b5b6020026020010151604001516003811115611b3757611b36613074565b5b03611b4f578580611b4790614526565b965050611bbf565b60026003811115611b6357611b62613074565b5b828260ff1681518110611b7957611b786144ea565b5b6020026020010151604001516003811115611b9757611b96613074565b5b03611baf578480611ba790614526565b955050611bbe565b8380611bba90614526565b9450505b5b8080611bca90614526565b915050611ae3565b5060008460ff168660ff1611611be9576003611bec565b60025b9050806006600085815260200190815260200160002060020160006101000a81548160ff02191690836005811115611c2757611c26613074565b5b021790555042600660008581526020019081526020016000206005018190555060026005811115611c5b57611c5a613074565b5b816005811115611c6e57611c6d613074565b5b03611d2a5760026003811115611c8757611c86613074565b5b8860c001516003811115611c9e57611c9d613074565b5b03611cb3578760e00151600181905550611d29565b600380811115611cc657611cc5613074565b5b8860c001516003811115611cdd57611cdc613074565b5b03611d28578761010001516000806101000a81548173ffffffffffffffffffffffffffffffffffffffff021916908373ffffffffffffffffffffffffffffffffffffffff1602179055505b5b5b604051806080016040528084815260200189600001518152602001826005811115611d5857611d57613074565b5b81526020018960c001516003811115611d7457611d73613074565b5b81525098505050505050505050919050565b60008054906101000a900473ffffffffffffffffffffffffffffffffffffffff1673ffffffffffffffffffffffffffffffffffffffff163273ffffffffffffffffffffffffffffffffffffffff161480611de55750611de43261147f565b5b611e24576040517f08c379a0000000000000000000000000000000000000000000000000000000008152600401611e1b90613e3d565b60405180910390fd5b60008054906101000a900473ffffffffffffffffffffffffffffffffffffffff1673ffffffffffffffffffffffffffffffffffffffff163273ffffffffffffffffffffffffffffffffffffffff161480611ef3575062278d0060056000600360003273ffffffffffffffffffffffffffffffffffffffff1673ffffffffffffffffffffffffffffffffffffffff16815260200190815260200160002060009054906101000a900461ffff1661ffff1661ffff16815260200190815260200160002054611ef09190613e8c565b42105b611f32576040517f08c379a0000000000000000000000000000000000000000000000000000000008152600401611f2990613f0c565b60405180910390fd5b60006003811115611f4657611f45613074565b5b816003811115611f5957611f58613074565b5b03611f99576040517f08c379a0000000000000000000000000000000000000000000000000000000008152600401611f909061459b565b60405180910390fd5b6000611fa48361107a565b90506000816060015111611fed576040517f08c379a0000000000000000000000000000000000000000000000000000000008152600401611fe49061433a565b60405180910390fd5b6001600581111561200157612000613074565b5b8160400151600581111561201857612017613074565b5b14612058576040517f08c379a000000000000000000000000000000000000000000000000000000000815260040161204f90614607565b60405180910390fd5b6000600360003273ffffffffffffffffffffffffffffffffffffffff1673ffffffffffffffffffffffffffffffffffffffff16815260200190815260200160002060009054906101000a900461ffff169050600084805190602001209050600060076000838152602001908152602001600020805480602002602001604051908101604052809291908181526020016000905b828210156121d857838290600052602060002090600202016040518060800160405290816000820160009054906101000a900473ffffffffffffffffffffffffffffffffffffffff1673ffffffffffffffffffffffffffffffffffffffff1673ffffffffffffffffffffffffffffffffffffffff1681526020016000820160149054906101000a900461ffff1661ffff1661ffff1681526020016000820160169054906101000a900460ff1660038111156121a9576121a8613074565b5b60038111156121bb576121ba613074565b5b8152602001600182015481525050815260200190600101906120eb565b50505050905060005b81518160ff16101561226b578361ffff16828260ff1681518110612208576122076144ea565b5b60200260200101516020015161ffff1603612258576040517f08c379a000000000000000000000000000000000000000000000000000000000815260040161224f90614699565b60405180910390fd5b808061226390614526565b9150506121e1565b50600060405180608001604052803273ffffffffffffffffffffffffffffffffffffffff1681526020018561ffff1681526020018760038111156122b2576122b1613074565b5b81526020014281525090506007600084815260200190815260200160002081908060018154018082558091505060019003906000526020600020906002020160009091909190915060008201518160000160006101000a81548173ffffffffffffffffffffffffffffffffffffffff021916908373ffffffffffffffffffffffffffffffffffffffff16021790555060208201518160000160146101000a81548161ffff021916908361ffff16021790555060408201518160000160166101000a81548160ff0219169083600381111561238f5761238e613074565b5b021790555060608201518160010155505050505050505050565b6000600260008361ffff1661ffff16815260200190815260200160002060009054906101000a900460ff169050919050565b60008054906101000a900473ffffffffffffffffffffffffffffffffffffffff1673ffffffffffffffffffffffffffffffffffffffff163273ffffffffffffffffffffffffffffffffffffffff1614612469576040517f08c379a000000000000000000000000000000000000000000000000000000000815260040161246090613c1b565b60405180910390fd5b81600073ffffffffffffffffffffffffffffffffffffffff168173ffffffffffffffffffffffffffffffffffffffff16036124d9576040517f08c379a00000000000000000000000000000000000000000000000000000000081526004016124d090614705565b60405180910390fd5b8115612584576124e88361147f565b612527576040517f08c379a000000000000000000000000000000000000000000000000000000000815260040161251e90614771565b60405180910390fd5b6001600460008573ffffffffffffffffffffffffffffffffffffffff1673ffffffffffffffffffffffffffffffffffffffff16815260200190815260200160002060006101000a81548160ff0219169083151502179055506125d4565b600460008473ffffffffffffffffffffffffffffffffffffffff1673ffffffffffffffffffffffffffffffffffffffff16815260200190815260200160002060006101000a81549060ff02191690555b505050565b6125e1612ec1565b60008054906101000a900473ffffffffffffffffffffffffffffffffffffffff1673ffffffffffffffffffffffffffffffffffffffff163273ffffffffffffffffffffffffffffffffffffffff161461266f576040517f08c379a000000000000000000000000000000000000000000000000000000000815260040161266690613c1b565b60405180910390fd5b600061267a8361107a565b905060008160600151116126c3576040517f08c379a00000000000000000000000000000000000000000000000000000000081526004016126ba9061433a565b60405180910390fd5b600060058111156126d7576126d6613074565b5b816040015160058111156126ee576126ed613074565b5b1461272e576040517f08c379a000000000000000000000000000000000000000000000000000000000815260040161272590614803565b60405180910390fd5b60008380519060200120905060016006600083815260200190815260200160002060020160006101000a81548160ff0219169083600581111561277457612773613074565b5b0217905550426006600083815260200190815260200160002060040181905550604051806080016040528082815260200183600001518152602001600160058111156127c3576127c2613074565b5b81526020018360c0015160038111156127df576127de613074565b5b81525092505050919050565b60008054906101000a900473ffffffffffffffffffffffffffffffffffffffff1673ffffffffffffffffffffffffffffffffffffffff163273ffffffffffffffffffffffffffffffffffffffff16148061288e5750600460003273ffffffffffffffffffffffffffffffffffffffff1673ffffffffffffffffffffffffffffffffffffffff16815260200190815260200160002060009054906101000a900460ff165b6128cd576040517f08c379a00000000000000000000000000000000000000000000000000000000081526004016128c490614895565b60405180910390fd5b81600073ffffffffffffffffffffffffffffffffffffffff168173ffffffffffffffffffffffffffffffffffffffff160361293d576040517f08c379a000000000000000000000000000000000000000000000000000000000815260040161293490614705565b60405180910390fd5b612946826123a9565b612985576040517f08c379a000000000000000000000000000000000000000000000000000000000815260040161297c90614901565b60405180910390fd5b81600360008573ffffffffffffffffffffffffffffffffffffffff1673ffffffffffffffffffffffffffffffffffffffff16815260200190815260200160002060006101000a81548161ffff021916908361ffff160217905550505050565b60026020528060005260406000206000915054906101000a900460ff1681565b612a0d816123a9565b612a4c576040517f08c379a0000000000000000000000000000000000000000000000000000000008152600401612a439061496d565b60405180910390fd5b600154341015612a91576040517f08c379a0000000000000000000000000000000000000000000000000000000008152600401612a88906149d9565b60405180910390fd5b62278d00600560008361ffff1661ffff16815260200190815260200160002054612abb9190613e8c565b4211612afc576040517f08c379a0000000000000000000000000000000000000000000000000000000008152600401612af390614a45565b60405180910390fd5b42600560008361ffff1661ffff1681526020019081526020016000208190555050565b60008060009054906101000a900473ffffffffffffffffffffffffffffffffffffffff16905090565b60036020528060005260406000206000915054906101000a900461ffff1681565b612b71612ec1565b60008054906101000a900473ffffffffffffffffffffffffffffffffffffffff1673ffffffffffffffffffffffffffffffffffffffff163273ffffffffffffffffffffffffffffffffffffffff1614612bff576040517f08c379a0000000000000000000000000000000000000000000000000000000008152600401612bf690613c1b565b60405180910390fd5b6000612c0a8661107a565b90506000816060015111612c53576040517f08c379a0000000000000000000000000000000000000000000000000000000008152600401612c4a90614ab1565b60405180910390fd5b60006005811115612c6757612c66613074565b5b81604001516005811115612c7e57612c7d613074565b5b14612cbe576040517f08c379a0000000000000000000000000000000000000000000000000000000008152600401612cb590614b1d565b60405180910390fd5b600086805190602001209050600086511115612cf95785600660008381526020019081526020016000206001019081612cf791906141b0565b505b60008510612d1d578460066000838152602001908152602001600020600701819055505b600073ffffffffffffffffffffffffffffffffffffffff168473ffffffffffffffffffffffffffffffffffffffff1614612da757836006600083815260200190815260200160002060080160006101000a81548173ffffffffffffffffffffffffffffffffffffffff021916908373ffffffffffffffffffffffffffffffffffffffff1602179055505b60405180608001604052808281526020018360000151815260200183604001516005811115612dd957612dd8613074565b5b81526020018360c001516003811115612df557612df4613074565b5b81525092505050949350505050565b6040518060600160405280600073ffffffffffffffffffffffffffffffffffffffff16815260200160008152602001606081525090565b604051806101200160405280606081526020016060815260200160006005811115612e6957612e68613074565b5b815260200160008152602001600081526020016000815260200160006003811115612e9757612e96613074565b5b815260200160008152602001600073ffffffffffffffffffffffffffffffffffffffff1681525090565b6040518060800160405280600080191681526020016060815260200160006005811115612ef157612ef0613074565b5b815260200160006003811115612f0a57612f09613074565b5b81525090565b508054612f1c90613b9e565b6000825580601f10612f2e5750612f4d565b601f016020900490600052602060002090810190612f4c9190612f50565b5b50565b5b80821115612f69576000816000905550600101612f51565b5090565b6000604051905090565b600080fd5b600080fd5b6000819050919050565b612f9481612f81565b8114612f9f57600080fd5b50565b600081359050612fb181612f8b565b92915050565b600060208284031215612fcd57612fcc612f77565b5b6000612fdb84828501612fa2565b91505092915050565b600081519050919050565b600082825260208201905092915050565b60005b8381101561301e578082015181840152602081019050613003565b60008484015250505050565b6000601f19601f8301169050919050565b600061304682612fe4565b6130508185612fef565b9350613060818560208601613000565b6130698161302a565b840191505092915050565b7f4e487b7100000000000000000000000000000000000000000000000000000000600052602160045260246000fd5b600681106130b4576130b3613074565b5b50565b60008190506130c5826130a3565b919050565b60006130d5826130b7565b9050919050565b6130e5816130ca565b82525050565b6000819050919050565b6130fe816130eb565b82525050565b6004811061311557613114613074565b5b50565b600081905061312682613104565b919050565b600061313682613118565b9050919050565b6131468161312b565b82525050565b600073ffffffffffffffffffffffffffffffffffffffff82169050919050565b60006131778261314c565b9050919050565b6131878161316c565b82525050565b60006101208201905081810360008301526131a8818c61303b565b905081810360208301526131bc818b61303b565b90506131cb604083018a6130dc565b6131d860608301896130f5565b6131e560808301886130f5565b6131f260a08301876130f5565b6131ff60c083018661313d565b61320c60e08301856130f5565b61321a61010083018461317e565b9a9950505050505050505050565b600080fd5b600080fd5b7f4e487b7100000000000000000000000000000000000000000000000000000000600052604160045260246000fd5b61326a8261302a565b810181811067ffffffffffffffff8211171561328957613288613232565b5b80604052505050565b600061329c612f6d565b90506132a88282613261565b919050565b600067ffffffffffffffff8211156132c8576132c7613232565b5b6132d18261302a565b9050602081019050919050565b82818337600083830152505050565b60006133006132fb846132ad565b613292565b90508281526020810184848401111561331c5761331b61322d565b5b6133278482856132de565b509392505050565b600082601f83011261334457613343613228565b5b81356133548482602086016132ed565b91505092915050565b613366816130eb565b811461337157600080fd5b50565b6000813590506133838161335d565b92915050565b600080604083850312156133a05761339f612f77565b5b600083013567ffffffffffffffff8111156133be576133bd612f7c565b5b6133ca8582860161332f565b92505060206133db85828601613374565b9150509250929050565b6133ee8161316c565b82525050565b6133fd816130eb565b82525050565b600082825260208201905092915050565b600061341f82612fe4565b6134298185613403565b9350613439818560208601613000565b6134428161302a565b840191505092915050565b600060608301600083015161346560008601826133e5565b50602083015161347860208601826133f4565b50604083015184820360408601526134908282613414565b9150508091505092915050565b600060208201905081810360008301526134b7818461344d565b905092915050565b600061ffff82169050919050565b6134d6816134bf565b81146134e157600080fd5b50565b6000813590506134f3816134cd565b92915050565b60006020828403121561350f5761350e612f77565b5b600061351d848285016134e4565b91505092915050565b600060208201905061353b60008301846130f5565b92915050565b6000806040838503121561355857613557612f77565b5b600061356685828601612fa2565b925050602061357785828601613374565b9150509250929050565b61358a816134bf565b82525050565b600481106135a1576135a0613074565b5b50565b60008190506135b282613590565b919050565b60006135c2826135a4565b9050919050565b6135d2816135b7565b82525050565b60006080820190506135ed600083018761317e565b6135fa6020830186613581565b61360760408301856135c9565b61361460608301846130f5565b95945050505050565b60006020828403121561363357613632612f77565b5b600082013567ffffffffffffffff81111561365157613650612f7c565b5b61365d8482850161332f565b91505092915050565b6004811061367357600080fd5b50565b60008135905061368581613666565b92915050565b6136948161316c565b811461369f57600080fd5b50565b6000813590506136b18161368b565b92915050565b600080600080600060a086880312156136d3576136d2612f77565b5b600086013567ffffffffffffffff8111156136f1576136f0612f7c565b5b6136fd8882890161332f565b955050602086013567ffffffffffffffff81111561371e5761371d612f7c565b5b61372a8882890161332f565b945050604061373b88828901613676565b935050606061374c88828901613374565b925050608061375d888289016136a2565b9150509295509295909350565b613773816130ca565b82525050565b6137828161312b565b82525050565b60006101208301600083015184820360008601526137a68282613414565b915050602083015184820360208601526137c08282613414565b91505060408301516137d5604086018261376a565b5060608301516137e860608601826133f4565b5060808301516137fb60808601826133f4565b5060a083015161380e60a08601826133f4565b5060c083015161382160c0860182613779565b5060e083015161383460e08601826133f4565b506101008301516138496101008601826133e5565b508091505092915050565b6000602082019050818103600083015261386e8184613788565b905092915050565b600060208201905061388b600083018461317e565b92915050565b6000602082840312156138a7576138a6612f77565b5b60006138b5848285016136a2565b91505092915050565b60008115159050919050565b6138d3816138be565b82525050565b60006020820190506138ee60008301846138ca565b92915050565b6138fd81612f81565b82525050565b600060808301600083015161391b60008601826138f4565b50602083015184820360208601526139338282613414565b9150506040830151613948604086018261376a565b50606083015161395b6060860182613779565b508091505092915050565b600060208201905081810360008301526139808184613903565b905092915050565b6004811061399557600080fd5b50565b6000813590506139a781613988565b92915050565b600080604083850312156139c4576139c3612f77565b5b600083013567ffffffffffffffff8111156139e2576139e1612f7c565b5b6139ee8582860161332f565b92505060206139ff85828601613998565b9150509250929050565b613a12816138be565b8114613a1d57600080fd5b50565b600081359050613a2f81613a09565b92915050565b60008060408385031215613a4c57613a4b612f77565b5b6000613a5a858286016136a2565b9250506020613a6b85828601613a20565b9150509250929050565b60008060408385031215613a8c57613a8b612f77565b5b6000613a9a858286016136a2565b9250506020613aab858286016134e4565b9150509250929050565b6000602082019050613aca6000830184613581565b92915050565b60008060008060808587031215613aea57613ae9612f77565b5b600085013567ffffffffffffffff811115613b0857613b07612f7c565b5b613b148782880161332f565b945050602085013567ffffffffffffffff811115613b3557613b34612f7c565b5b613b418782880161332f565b9350506040613b5287828801613374565b9250506060613b63878288016136a2565b91505092959194509250565b7f4e487b7100000000000000000000000000000000000000000000000000000000600052602260045260246000fd5b60006002820490506001821680613bb657607f821691505b602082108103613bc957613bc8613b6f565b5b50919050565b7f4f6e6c7920746865206d616e616765722063616e20646f207468697300000000600082015250565b6000613c05601c83612fef565b9150613c1082613bcf565b602082019050919050565b60006020820190508181036000830152613c3481613bf8565b9050919050565b7f496e73756666696369656e742066756e64730000000000000000000000000000600082015250565b6000613c71601283612fef565b9150613c7c82613c3b565b602082019050919050565b60006020820190508181036000830152613ca081613c64565b9050919050565b7f4f6e6c7920415050524f564544205350454e5420746f706963732063616e206260008201527f65207573656420666f72207472616e7366657273000000000000000000000000602082015250565b6000613d03603483612fef565b9150613d0e82613ca7565b604082019050919050565b60006020820190508181036000830152613d3281613cf6565b9050919050565b7f54686520616d6f756e74206d75737465206265206c657373206f72206571756160008201527f6c2074686520415050524f56454420746f706963000000000000000000000000602082015250565b6000613d95603483612fef565b9150613da082613d39565b604082019050919050565b60006020820190508181036000830152613dc481613d88565b9050919050565b7f4f6e6c7920746865206d616e61676572206f7220746865207265736964656e7460008201527f732063616e20646f207468697300000000000000000000000000000000000000602082015250565b6000613e27602d83612fef565b9150613e3282613dcb565b604082019050919050565b60006020820190508181036000830152613e5681613e1a565b9050919050565b7f4e487b7100000000000000000000000000000000000000000000000000000000600052601160045260246000fd5b6000613e97826130eb565b9150613ea2836130eb565b9250828201905080821115613eba57613eb9613e5d565b5b92915050565b7f546865207265736964656e74206d7573742062652064656661756c7465720000600082015250565b6000613ef6601e83612fef565b9150613f0182613ec0565b602082019050919050565b60006020820190508181036000830152613f2581613ee9565b9050919050565b7f5468697320746f70696320616c72656164792065786973747300000000000000600082015250565b6000613f62601983612fef565b9150613f6d82613f2c565b602082019050919050565b60006020820190508181036000830152613f9181613f55565b9050919050565b7f57726f6e672063617465676f7279000000000000000000000000000000000000600082015250565b6000613fce600e83612fef565b9150613fd982613f98565b602082019050919050565b60006020820190508181036000830152613ffd81613fc1565b9050919050565b60008190508160005260206000209050919050565b60006020601f8301049050919050565b600082821b905092915050565b6000600883026140667fffffffffffffffffffffffffffffffffffffffffffffffffffffffffffffffff82614029565b6140708683614029565b95508019841693508086168417925050509392505050565b6000819050919050565b60006140ad6140a86140a3846130eb565b614088565b6130eb565b9050919050565b6000819050919050565b6140c783614092565b6140db6140d3826140b4565b848454614036565b825550505050565b600090565b6140f06140e3565b6140fb8184846140be565b505050565b5b8181101561411f576141146000826140e8565b600181019050614101565b5050565b601f8211156141645761413581614004565b61413e84614019565b8101602085101561414d578190505b61416161415985614019565b830182614100565b50505b505050565b600082821c905092915050565b600061418760001984600802614169565b1980831691505092915050565b60006141a08383614176565b9150826002028217905092915050565b6141b982612fe4565b67ffffffffffffffff8111156141d2576141d1613232565b5b6141dc8254613b9e565b6141e7828285614123565b600060209050601f83116001811461421a5760008415614208578287015190505b6142128582614194565b86555061427a565b601f19841661422886614004565b60005b828110156142505784890151825560018201915060208501945060208101905061422b565b8683101561426d5784890151614269601f891682614176565b8355505b6001600288020188555050505b505050505050565b7f4120636f756e73656c6f722063616e6e6f742062652072656d6f766564000000600082015250565b60006142b8601d83612fef565b91506142c382614282565b602082019050919050565b600060208201905081810360008301526142e7816142ab565b9050919050565b7f54686520746f70696320646f6573206e6f742065786973747300000000000000600082015250565b6000614324601983612fef565b915061432f826142ee565b602082019050919050565b6000602082019050818103600083015261435381614317565b9050919050565b7f4f6e6c792049444c4520746f706963732063616e2062652072656d6f76656400600082015250565b6000614390601f83612fef565b915061439b8261435a565b602082019050919050565b600060208201905081810360008301526143bf81614383565b9050919050565b7f4f6e6c7920564f5454494e4720746f706963732063616e20626520636c6f736560008201527f6400000000000000000000000000000000000000000000000000000000000000602082015250565b6000614422602183612fef565b915061442d826143c6565b604082019050919050565b6000602082019050818103600083015261445181614415565b9050919050565b7f596f752063616e6e6f742066696e697368206120766f74696e6720776869746860008201527f6f757420746865206d696e696d756d20766f7465730000000000000000000000602082015250565b60006144b4603583612fef565b91506144bf82614458565b604082019050919050565b600060208201905081810360008301526144e3816144a7565b9050919050565b7f4e487b7100000000000000000000000000000000000000000000000000000000600052603260045260246000fd5b600060ff82169050919050565b600061453182614519565b915060ff820361454457614543613e5d565b5b600182019050919050565b7f546865206f7074696f6e2063616e6e6f7420626520454d505459000000000000600082015250565b6000614585601a83612fef565b91506145908261454f565b602082019050919050565b600060208201905081810360008301526145b481614578565b9050919050565b7f4f6e6c7920564f54494e4720746f706963732063616e20626520766f74656400600082015250565b60006145f1601f83612fef565b91506145fc826145bb565b602082019050919050565b60006020820190508181036000830152614620816145e4565b9050919050565b7f41207265736964656e63652073686f756c6420766f7465206f6e6c79206f6e6360008201527f6500000000000000000000000000000000000000000000000000000000000000602082015250565b6000614683602183612fef565b915061468e82614627565b604082019050919050565b600060208201905081810360008301526146b281614676565b9050919050565b7f496e76616c696420616464726573730000000000000000000000000000000000600082015250565b60006146ef600f83612fef565b91506146fa826146b9565b602082019050919050565b6000602082019050818103600083015261471e816146e2565b9050919050565b7f54686520636f756e73656c6f72206d7573742062652061207265736964656e74600082015250565b600061475b602083612fef565b915061476682614725565b602082019050919050565b6000602082019050818103600083015261478a8161474e565b9050919050565b7f4f6e6c792049444c4520746f706963732063616e206265206f70656e20666f7260008201527f20766f74696e6700000000000000000000000000000000000000000000000000602082015250565b60006147ed602783612fef565b91506147f882614791565b604082019050919050565b6000602082019050818103600083015261481c816147e0565b9050919050565b7f54686973204f6e6c7920746865206d616e61676572206f7220436f756e73656c60008201527f6f72732063616e20646f20746869730000000000000000000000000000000000602082015250565b600061487f602f83612fef565b915061488a82614823565b604082019050919050565b600060208201905081810360008301526148ae81614872565b9050919050565b7f54686973207265736964656e636520646f6573206e6f74206578697374730000600082015250565b60006148eb601e83612fef565b91506148f6826148b5565b602082019050919050565b6000602082019050818103600083015261491a816148de565b9050919050565b7f546865207265736964656e636520646f6573206e6f7420657869737473000000600082015250565b6000614957601d83612fef565b915061496282614921565b602082019050919050565b600060208201905081810360008301526149868161494a565b9050919050565b7f57726f6e672076616c7565000000000000000000000000000000000000000000600082015250565b60006149c3600b83612fef565b91506149ce8261498d565b602082019050919050565b600060208201905081810360008301526149f2816149b6565b9050919050565b7f596f752063616e6e6f74207061792074776963652061206d6f6e746800000000600082015250565b6000614a2f601c83612fef565b9150614a3a826149f9565b602082019050919050565b60006020820190508181036000830152614a5e81614a22565b9050919050565b7f5468697320746f70696320646f6573206e6f7420657869737473000000000000600082015250565b6000614a9b601a83612fef565b9150614aa682614a65565b602082019050919050565b60006020820190508181036000830152614aca81614a8e565b9050919050565b7f4f6e6c792049444c4520746f706963732063616e206265206564697465640000600082015250565b6000614b07601e83612fef565b9150614b1282614ad1565b602082019050919050565b60006020820190508181036000830152614b3681614afa565b905091905056fea264697066735822122059d9705c8c038a14912e94e7acaffef17d76624d749fc929aab5582235c63d0864736f6c634300081c0033",
  "linkReferences": {},
  "deployedLinkReferences": {}
}