{
  "_format": "hh-sol-artifact-1",
  "contractName": "CondominiumAdapter",
  "sourceName": "contracts/CondominiumAdapter.sol",
  "abi": [
    {
      "inputs": [],
      "stateMutability": "nonpayable",
      "type": "constructor"
    },
    {
      "anonymous": false,
      "inputs": [
        {
          "indexed": false,
          "internalType": "address",
          "name": "manager",
          "type": "address"
        }
      ],
      "name": "ManagerChanged",
      "type": "event"
    },
    {
      "anonymous": false,
      "inputs": [
        {
          "indexed": false,
          "internalType": "uint256",
          "name": "amount",
          "type": "uint256"
        }
      ],
      "name": "QuotaChanged",
      "type": "event"
    },
    {
      "anonymous": false,
      "inputs": [
        {
          "indexed": true,
          "internalType": "bytes32",
          "name": "topicId",
          "type": "bytes32"
        },
        {
          "indexed": false,
          "internalType": "string",
          "name": "title",
          "type": "string"
        },
        {
          "indexed": true,
          "internalType": "enum CondominiumLib.Status",
          "name": "status",
          "type": "uint8"
        }
      ],
      "name": "TopicChanged",
      "type": "event"
    },
    {
      "anonymous": false,
      "inputs": [
        {
          "indexed": false,
          "internalType": "address",
          "name": "to",
          "type": "address"
        },
        {
          "indexed": true,
          "internalType": "uint256",
          "name": "amount",
          "type": "uint256"
        },
        {
          "indexed": false,
          "internalType": "string",
          "name": "topic",
          "type": "string"
        }
      ],
      "name": "Transfer",
      "type": "event"
    },
    {
      "inputs": [
        {
          "internalType": "address",
          "name": "resident",
          "type": "address"
        },
        {
          "internalType": "uint16",
          "name": "residenceId",
          "type": "uint16"
        }
      ],
      "name": "addResident",
      "outputs": [],
      "stateMutability": "nonpayable",
      "type": "function"
    },
    {
      "inputs": [
        {
          "internalType": "string",
          "name": "title",
          "type": "string"
        },
        {
          "internalType": "string",
          "name": "description",
          "type": "string"
        },
        {
          "internalType": "enum CondominiumLib.Category",
          "name": "category",
          "type": "uint8"
        },
        {
          "internalType": "uint256",
          "name": "amount",
          "type": "uint256"
        },
        {
          "internalType": "address",
          "name": "responsible",
          "type": "address"
        }
      ],
      "name": "addTopic",
      "outputs": [],
      "stateMutability": "nonpayable",
      "type": "function"
    },
    {
      "inputs": [
        {
          "internalType": "string",
          "name": "title",
          "type": "string"
        }
      ],
      "name": "closeVoting",
      "outputs": [],
      "stateMutability": "nonpayable",
      "type": "function"
    },
    {
      "inputs": [
        {
          "internalType": "string",
          "name": "topicToEdit",
          "type": "string"
        },
        {
          "internalType": "string",
          "name": "description",
          "type": "string"
        },
        {
          "internalType": "uint256",
          "name": "amount",
          "type": "uint256"
        },
        {
          "internalType": "address",
          "name": "responsible",
          "type": "address"
        }
      ],
      "name": "editTopic",
      "outputs": [],
      "stateMutability": "nonpayable",
      "type": "function"
    },
    {
      "inputs": [],
      "name": "getImplAddress",
      "outputs": [
        {
          "internalType": "address",
          "name": "",
          "type": "address"
        }
      ],
      "stateMutability": "view",
      "type": "function"
    },
    {
      "inputs": [
        {
          "internalType": "string",
          "name": "title",
          "type": "string"
        }
      ],
      "name": "openVoting",
      "outputs": [],
      "stateMutability": "nonpayable",
      "type": "function"
    },
    {
      "inputs": [],
      "name": "owner",
      "outputs": [
        {
          "internalType": "address",
          "name": "",
          "type": "address"
        }
      ],
      "stateMutability": "view",
      "type": "function"
    },
    {
      "inputs": [
        {
          "internalType": "uint16",
          "name": "residenceId",
          "type": "uint16"
        }
      ],
      "name": "payQuota",
      "outputs": [],
      "stateMutability": "payable",
      "type": "function"
    },
    {
      "inputs": [
        {
          "internalType": "address",
          "name": "resident",
          "type": "address"
        }
      ],
      "name": "removeResident",
      "outputs": [],
      "stateMutability": "nonpayable",
      "type": "function"
    },
    {
      "inputs": [
        {
          "internalType": "string",
          "name": "title",
          "type": "string"
        }
      ],
      "name": "removeTopic",
      "outputs": [],
      "stateMutability": "nonpayable",
      "type": "function"
    },
    {
      "inputs": [
        {
          "internalType": "address",
          "name": "resident",
          "type": "address"
        },
        {
          "internalType": "bool",
          "name": "isEntering",
          "type": "bool"
        }
      ],
      "name": "setCounselor",
      "outputs": [],
      "stateMutability": "nonpayable",
      "type": "function"
    },
    {
      "inputs": [
        {
          "internalType": "string",
          "name": "topicTitle",
          "type": "string"
        },
        {
          "internalType": "uint256",
          "name": "amount",
          "type": "uint256"
        }
      ],
      "name": "transfer",
      "outputs": [],
      "stateMutability": "nonpayable",
      "type": "function"
    },
    {
      "inputs": [
        {
          "internalType": "address",
          "name": "newImplementation",
          "type": "address"
        }
      ],
      "name": "upgrade",
      "outputs": [],
      "stateMutability": "nonpayable",
      "type": "function"
    },
    {
      "inputs": [
        {
          "internalType": "string",
          "name": "title",
          "type": "string"
        },
        {
          "internalType": "enum CondominiumLib.Options",
          "name": "option",
          "type": "uint8"
        }
      ],
      "name": "vote",
      "outputs": [],
      "stateMutability": "nonpayable",
      "type": "function"
    }
  ],
  "bytecode": "0x60a0604052348015600f57600080fd5b503373ffffffffffffffffffffffffffffffffffffffff1660808173ffffffffffffffffffffffffffffffffffffffff16815250506080516122ad61006660003960008181610319015261094b01526122ad6000f3fe6080604052600436106100dd5760003560e01c80638fc5dad81161007f5780639e1bf985116100595780639e1bf98514610280578063b1583546146102a9578063c12e8063146102d2578063eaf5d9dc146102ee576100dd565b80638fc5dad81461020557806390ca27f31461022e57806396fa1def14610257576100dd565b8063597de987116100bb578063597de9871461015d5780637311ad81146101865780637b57ee49146101b15780638da5cb5b146101da576100dd565b80630900f010146100e257806312cb70c71461010b57806343b8c6b114610134575b600080fd5b3480156100ee57600080fd5b5061010960048036038101906101049190611537565b610317565b005b34801561011757600080fd5b50610132600480360381019061012d91906116e0565b610457565b005b34801561014057600080fd5b5061015b60048036038101906101569190611761565b6105d9565b005b34801561016957600080fd5b50610184600480360381019061017f9190611537565b610702565b005b34801561019257600080fd5b5061019b610790565b6040516101a89190611823565b60405180910390f35b3480156101bd57600080fd5b506101d860048036038101906101d3919061183e565b6107b9565b005b3480156101e657600080fd5b506101ef610949565b6040516101fc9190611823565b60405180910390f35b34801561021157600080fd5b5061022c6004803603810190610227919061183e565b61096d565b005b34801561023a57600080fd5b50610255600480360381019061025091906118ac565b610d1e565b005b34801561026357600080fd5b5061027e60048036038101906102799190611940565b610e3e565b005b34801561028c57600080fd5b506102a760048036038101906102a2919061183e565b610f5e565b005b3480156102b557600080fd5b506102d060048036038101906102cb91906119ba565b6110ee565b005b6102ec60048036038101906102e791906119fa565b61120e565b005b3480156102fa57600080fd5b5061031560048036038101906103109190611a27565b61132c565b005b7f000000000000000000000000000000000000000000000000000000000000000073ffffffffffffffffffffffffffffffffffffffff163373ffffffffffffffffffffffffffffffffffffffff16146103a5576040517f08c379a000000000000000000000000000000000000000000000000000000000815260040161039c90611b23565b60405180910390fd5b600073ffffffffffffffffffffffffffffffffffffffff168173ffffffffffffffffffffffffffffffffffffffff1603610414576040517f08c379a000000000000000000000000000000000000000000000000000000000815260040161040b90611b8f565b60405180910390fd5b806000806101000a81548173ffffffffffffffffffffffffffffffffffffffff021916908373ffffffffffffffffffffffffffffffffffffffff16021790555050565b600073ffffffffffffffffffffffffffffffffffffffff1660008054906101000a900473ffffffffffffffffffffffffffffffffffffffff1673ffffffffffffffffffffffffffffffffffffffff16036104e6576040517f08c379a00000000000000000000000000000000000000000000000000000000081526004016104dd90611bfb565b60405180910390fd5b60008060009054906101000a900473ffffffffffffffffffffffffffffffffffffffff1673ffffffffffffffffffffffffffffffffffffffff166312cb70c784846040518363ffffffff1660e01b8152600401610544929190611c98565b6000604051808303816000875af1158015610563573d6000803e3d6000fd5b505050506040513d6000823e3d601f19601f8201168201806040525081019061058c9190611dec565b905080602001517feb10b79f28ae0b520cb7ee8e40115f547bfac852d7167a55d9ae8e028ee23a11826000015183604001516040516105cc929190611e35565b60405180910390a2505050565b600073ffffffffffffffffffffffffffffffffffffffff1660008054906101000a900473ffffffffffffffffffffffffffffffffffffffff1673ffffffffffffffffffffffffffffffffffffffff1603610668576040517f08c379a000000000000000000000000000000000000000000000000000000000815260040161065f90611bfb565b60405180910390fd5b60008054906101000a900473ffffffffffffffffffffffffffffffffffffffff1673ffffffffffffffffffffffffffffffffffffffff166343b8c6b186868686866040518663ffffffff1660e01b81526004016106c9959493929190611edc565b600060405180830381600087803b1580156106e357600080fd5b505af11580156106f7573d6000803e3d6000fd5b505050505050505050565b60008054906101000a900473ffffffffffffffffffffffffffffffffffffffff1673ffffffffffffffffffffffffffffffffffffffff1663597de987826040518263ffffffff1660e01b815260040161075b9190611823565b600060405180830381600087803b15801561077557600080fd5b505af1158015610789573d6000803e3d6000fd5b5050505050565b60008060009054906101000a900473ffffffffffffffffffffffffffffffffffffffff16905090565b600073ffffffffffffffffffffffffffffffffffffffff1660008054906101000a900473ffffffffffffffffffffffffffffffffffffffff1673ffffffffffffffffffffffffffffffffffffffff1603610848576040517f08c379a000000000000000000000000000000000000000000000000000000000815260040161083f90611bfb565b60405180910390fd5b60008060009054906101000a900473ffffffffffffffffffffffffffffffffffffffff1673ffffffffffffffffffffffffffffffffffffffff16637b57ee49836040518263ffffffff1660e01b81526004016108a49190611f3d565b6000604051808303816000875af11580156108c3573d6000803e3d6000fd5b505050506040513d6000823e3d601f19601f820116820180604052508101906108ec9190612063565b90508060400151600581111561090557610904611e65565b5b81600001517fefe93f21a3369f1228a2589883bc377a76d7335daddc712853688de4617f82ab836020015160405161093d9190611f3d565b60405180910390a35050565b7f000000000000000000000000000000000000000000000000000000000000000081565b600073ffffffffffffffffffffffffffffffffffffffff1660008054906101000a900473ffffffffffffffffffffffffffffffffffffffff1673ffffffffffffffffffffffffffffffffffffffff16036109fc576040517f08c379a00000000000000000000000000000000000000000000000000000000081526004016109f390611bfb565b60405180910390fd5b60008060009054906101000a900473ffffffffffffffffffffffffffffffffffffffff1673ffffffffffffffffffffffffffffffffffffffff16638fc5dad8836040518263ffffffff1660e01b8152600401610a589190611f3d565b6000604051808303816000875af1158015610a77573d6000803e3d6000fd5b505050506040513d6000823e3d601f19601f82011682018060405250810190610aa09190612063565b905080604001516005811115610ab957610ab8611e65565b5b81600001517fefe93f21a3369f1228a2589883bc377a76d7335daddc712853688de4617f82ab8360200151604051610af19190611f3d565b60405180910390a360026005811115610b0d57610b0c611e65565b5b81604001516005811115610b2457610b23611e65565b5b03610d1a57600380811115610b3c57610b3b611e65565b5b81606001516003811115610b5357610b52611e65565b5b03610c22577f198db6e425fb8aafd1823c6ca50be2d51e5764571a5ae0f0f21c6812e45def0b60008054906101000a900473ffffffffffffffffffffffffffffffffffffffff1673ffffffffffffffffffffffffffffffffffffffff1663d50095846040518163ffffffff1660e01b8152600401602060405180830381865afa158015610be4573d6000803e3d6000fd5b505050506040513d601f19601f82011682018060405250810190610c0891906120ac565b604051610c159190611823565b60405180910390a1610d19565b60026003811115610c3657610c35611e65565b5b81606001516003811115610c4d57610c4c611e65565b5b03610d18577f274a3b0d5142ec9fc4e77bd3ffc173b4e7c6c64eca73b31a6c6906b184257e7e60008054906101000a900473ffffffffffffffffffffffffffffffffffffffff1673ffffffffffffffffffffffffffffffffffffffff16631df8ba776040518163ffffffff1660e01b8152600401602060405180830381865afa158015610cde573d6000803e3d6000fd5b505050506040513d601f19601f82011682018060405250810190610d0291906120d9565b604051610d0f9190612106565b60405180910390a15b5b5b5050565b600073ffffffffffffffffffffffffffffffffffffffff1660008054906101000a900473ffffffffffffffffffffffffffffffffffffffff1673ffffffffffffffffffffffffffffffffffffffff1603610dad576040517f08c379a0000000000000000000000000000000000000000000000000000000008152600401610da490611bfb565b60405180910390fd5b60008054906101000a900473ffffffffffffffffffffffffffffffffffffffff1673ffffffffffffffffffffffffffffffffffffffff166390ca27f383836040518363ffffffff1660e01b8152600401610e08929190612169565b600060405180830381600087803b158015610e2257600080fd5b505af1158015610e36573d6000803e3d6000fd5b505050505050565b600073ffffffffffffffffffffffffffffffffffffffff1660008054906101000a900473ffffffffffffffffffffffffffffffffffffffff1673ffffffffffffffffffffffffffffffffffffffff1603610ecd576040517f08c379a0000000000000000000000000000000000000000000000000000000008152600401610ec490611bfb565b60405180910390fd5b60008054906101000a900473ffffffffffffffffffffffffffffffffffffffff1673ffffffffffffffffffffffffffffffffffffffff166396fa1def83836040518363ffffffff1660e01b8152600401610f289291906121a8565b600060405180830381600087803b158015610f4257600080fd5b505af1158015610f56573d6000803e3d6000fd5b505050505050565b600073ffffffffffffffffffffffffffffffffffffffff1660008054906101000a900473ffffffffffffffffffffffffffffffffffffffff1673ffffffffffffffffffffffffffffffffffffffff1603610fed576040517f08c379a0000000000000000000000000000000000000000000000000000000008152600401610fe490611bfb565b60405180910390fd5b60008060009054906101000a900473ffffffffffffffffffffffffffffffffffffffff1673ffffffffffffffffffffffffffffffffffffffff16639e1bf985836040518263ffffffff1660e01b81526004016110499190611f3d565b6000604051808303816000875af1158015611068573d6000803e3d6000fd5b505050506040513d6000823e3d601f19601f820116820180604052508101906110919190612063565b9050806040015160058111156110aa576110a9611e65565b5b81600001517fefe93f21a3369f1228a2589883bc377a76d7335daddc712853688de4617f82ab83602001516040516110e29190611f3d565b60405180910390a35050565b600073ffffffffffffffffffffffffffffffffffffffff1660008054906101000a900473ffffffffffffffffffffffffffffffffffffffff1673ffffffffffffffffffffffffffffffffffffffff160361117d576040517f08c379a000000000000000000000000000000000000000000000000000000000815260040161117490611bfb565b60405180910390fd5b60008054906101000a900473ffffffffffffffffffffffffffffffffffffffff1673ffffffffffffffffffffffffffffffffffffffff1663b158354683836040518363ffffffff1660e01b81526004016111d89291906121e0565b600060405180830381600087803b1580156111f257600080fd5b505af1158015611206573d6000803e3d6000fd5b505050505050565b600073ffffffffffffffffffffffffffffffffffffffff1660008054906101000a900473ffffffffffffffffffffffffffffffffffffffff1673ffffffffffffffffffffffffffffffffffffffff160361129d576040517f08c379a000000000000000000000000000000000000000000000000000000000815260040161129490611bfb565b60405180910390fd5b60008054906101000a900473ffffffffffffffffffffffffffffffffffffffff1673ffffffffffffffffffffffffffffffffffffffff1663c12e806334836040518363ffffffff1660e01b81526004016112f79190612209565b6000604051808303818588803b15801561131057600080fd5b505af1158015611324573d6000803e3d6000fd5b505050505050565b600073ffffffffffffffffffffffffffffffffffffffff1660008054906101000a900473ffffffffffffffffffffffffffffffffffffffff1673ffffffffffffffffffffffffffffffffffffffff16036113bb576040517f08c379a00000000000000000000000000000000000000000000000000000000081526004016113b290611bfb565b60405180910390fd5b60008060009054906101000a900473ffffffffffffffffffffffffffffffffffffffff1673ffffffffffffffffffffffffffffffffffffffff1663eaf5d9dc868686866040518563ffffffff1660e01b815260040161141d9493929190612224565b6000604051808303816000875af115801561143c573d6000803e3d6000fd5b505050506040513d6000823e3d601f19601f820116820180604052508101906114659190612063565b90508060400151600581111561147e5761147d611e65565b5b81600001517fefe93f21a3369f1228a2589883bc377a76d7335daddc712853688de4617f82ab83602001516040516114b69190611f3d565b60405180910390a35050505050565b6000604051905090565b600080fd5b600080fd5b600073ffffffffffffffffffffffffffffffffffffffff82169050919050565b6000611504826114d9565b9050919050565b611514816114f9565b811461151f57600080fd5b50565b6000813590506115318161150b565b92915050565b60006020828403121561154d5761154c6114cf565b5b600061155b84828501611522565b91505092915050565b600080fd5b600080fd5b6000601f19601f8301169050919050565b7f4e487b7100000000000000000000000000000000000000000000000000000000600052604160045260246000fd5b6115b78261156e565b810181811067ffffffffffffffff821117156115d6576115d561157f565b5b80604052505050565b60006115e96114c5565b90506115f582826115ae565b919050565b600067ffffffffffffffff8211156116155761161461157f565b5b61161e8261156e565b9050602081019050919050565b82818337600083830152505050565b600061164d611648846115fa565b6115df565b90508281526020810184848401111561166957611668611569565b5b61167484828561162b565b509392505050565b600082601f83011261169157611690611564565b5b81356116a184826020860161163a565b91505092915050565b6000819050919050565b6116bd816116aa565b81146116c857600080fd5b50565b6000813590506116da816116b4565b92915050565b600080604083850312156116f7576116f66114cf565b5b600083013567ffffffffffffffff811115611715576117146114d4565b5b6117218582860161167c565b9250506020611732858286016116cb565b9150509250929050565b6004811061174957600080fd5b50565b60008135905061175b8161173c565b92915050565b600080600080600060a0868803121561177d5761177c6114cf565b5b600086013567ffffffffffffffff81111561179b5761179a6114d4565b5b6117a78882890161167c565b955050602086013567ffffffffffffffff8111156117c8576117c76114d4565b5b6117d48882890161167c565b94505060406117e58882890161174c565b93505060606117f6888289016116cb565b925050608061180788828901611522565b9150509295509295909350565b61181d816114f9565b82525050565b60006020820190506118386000830184611814565b92915050565b600060208284031215611854576118536114cf565b5b600082013567ffffffffffffffff811115611872576118716114d4565b5b61187e8482850161167c565b91505092915050565b6004811061189457600080fd5b50565b6000813590506118a681611887565b92915050565b600080604083850312156118c3576118c26114cf565b5b600083013567ffffffffffffffff8111156118e1576118e06114d4565b5b6118ed8582860161167c565b92505060206118fe85828601611897565b9150509250929050565b60008115159050919050565b61191d81611908565b811461192857600080fd5b50565b60008135905061193a81611914565b92915050565b60008060408385031215611957576119566114cf565b5b600061196585828601611522565b92505060206119768582860161192b565b9150509250929050565b600061ffff82169050919050565b61199781611980565b81146119a257600080fd5b50565b6000813590506119b48161198e565b92915050565b600080604083850312156119d1576119d06114cf565b5b60006119df85828601611522565b92505060206119f0858286016119a5565b9150509250929050565b600060208284031215611a1057611a0f6114cf565b5b6000611a1e848285016119a5565b91505092915050565b60008060008060808587031215611a4157611a406114cf565b5b600085013567ffffffffffffffff811115611a5f57611a5e6114d4565b5b611a6b8782880161167c565b945050602085013567ffffffffffffffff811115611a8c57611a8b6114d4565b5b611a988782880161167c565b9350506040611aa9878288016116cb565b9250506060611aba87828801611522565b91505092959194509250565b600082825260208201905092915050565b7f596f7520646f206e6f742068617665207065726d697373696f6e000000000000600082015250565b6000611b0d601a83611ac6565b9150611b1882611ad7565b602082019050919050565b60006020820190508181036000830152611b3c81611b00565b9050919050565b7f496e76616c696420616464726573730000000000000000000000000000000000600082015250565b6000611b79600f83611ac6565b9150611b8482611b43565b602082019050919050565b60006020820190508181036000830152611ba881611b6c565b9050919050565b7f596f75206d757374207570677261646520666972737400000000000000000000600082015250565b6000611be5601683611ac6565b9150611bf082611baf565b602082019050919050565b60006020820190508181036000830152611c1481611bd8565b9050919050565b600081519050919050565b60005b83811015611c44578082015181840152602081019050611c29565b60008484015250505050565b6000611c5b82611c1b565b611c658185611ac6565b9350611c75818560208601611c26565b611c7e8161156e565b840191505092915050565b611c92816116aa565b82525050565b60006040820190508181036000830152611cb28185611c50565b9050611cc16020830184611c89565b9392505050565b600080fd5b600080fd5b600081519050611ce18161150b565b92915050565b600081519050611cf6816116b4565b92915050565b6000611d0f611d0a846115fa565b6115df565b905082815260208101848484011115611d2b57611d2a611569565b5b611d36848285611c26565b509392505050565b600082601f830112611d5357611d52611564565b5b8151611d63848260208601611cfc565b91505092915050565b600060608284031215611d8257611d81611cc8565b5b611d8c60606115df565b90506000611d9c84828501611cd2565b6000830152506020611db084828501611ce7565b602083015250604082015167ffffffffffffffff811115611dd457611dd3611ccd565b5b611de084828501611d3e565b60408301525092915050565b600060208284031215611e0257611e016114cf565b5b600082015167ffffffffffffffff811115611e2057611e1f6114d4565b5b611e2c84828501611d6c565b91505092915050565b6000604082019050611e4a6000830185611814565b8181036020830152611e5c8184611c50565b90509392505050565b7f4e487b7100000000000000000000000000000000000000000000000000000000600052602160045260246000fd5b60048110611ea557611ea4611e65565b5b50565b6000819050611eb682611e94565b919050565b6000611ec682611ea8565b9050919050565b611ed681611ebb565b82525050565b600060a0820190508181036000830152611ef68188611c50565b90508181036020830152611f0a8187611c50565b9050611f196040830186611ecd565b611f266060830185611c89565b611f336080830184611814565b9695505050505050565b60006020820190508181036000830152611f578184611c50565b905092915050565b6000819050919050565b611f7281611f5f565b8114611f7d57600080fd5b50565b600081519050611f8f81611f69565b92915050565b60068110611fa257600080fd5b50565b600081519050611fb481611f95565b92915050565b600081519050611fc98161173c565b92915050565b600060808284031215611fe557611fe4611cc8565b5b611fef60806115df565b90506000611fff84828501611f80565b600083015250602082015167ffffffffffffffff81111561202357612022611ccd565b5b61202f84828501611d3e565b602083015250604061204384828501611fa5565b604083015250606061205784828501611fba565b60608301525092915050565b600060208284031215612079576120786114cf565b5b600082015167ffffffffffffffff811115612097576120966114d4565b5b6120a384828501611fcf565b91505092915050565b6000602082840312156120c2576120c16114cf565b5b60006120d084828501611cd2565b91505092915050565b6000602082840312156120ef576120ee6114cf565b5b60006120fd84828501611ce7565b91505092915050565b600060208201905061211b6000830184611c89565b92915050565b6004811061213257612131611e65565b5b50565b600081905061214382612121565b919050565b600061215382612135565b9050919050565b61216381612148565b82525050565b600060408201905081810360008301526121838185611c50565b9050612192602083018461215a565b9392505050565b6121a281611908565b82525050565b60006040820190506121bd6000830185611814565b6121ca6020830184612199565b9392505050565b6121da81611980565b82525050565b60006040820190506121f56000830185611814565b61220260208301846121d1565b9392505050565b600060208201905061221e60008301846121d1565b92915050565b6000608082019050818103600083015261223e8187611c50565b905081810360208301526122528186611c50565b90506122616040830185611c89565b61226e6060830184611814565b9594505050505056fea2646970667358221220d12bbc6c86841d3c765807daef10185962c0a6297c6aba4a7865d0310c4ae09864736f6c634300081c0033",
  "linkReferences": {},
  "deployedLinkReferences": {}
}